{
	"contracts/zombieattack.sol": {
		"ZombieBattle": {
			"abi": [
				{
					"constant": false,
					"inputs": [
						{
							"name": "_zombieId",
							"type": "uint256"
						},
						{
							"name": "_kittyId",
							"type": "uint256"
						}
					],
					"name": "feedOnKitty",
					"outputs": [],
					"payable": false,
					"stateMutability": "nonpayable",
					"type": "function"
				},
				{
					"constant": true,
					"inputs": [
						{
							"name": "",
							"type": "uint256"
						}
					],
					"name": "zombies",
					"outputs": [
						{
							"name": "name",
							"type": "string"
						},
						{
							"name": "dna",
							"type": "uint256"
						},
						{
							"name": "level",
							"type": "uint32"
						},
						{
							"name": "readyTime",
							"type": "uint32"
						},
						{
							"name": "winCount",
							"type": "uint16"
						},
						{
							"name": "lossCount",
							"type": "uint16"
						}
					],
					"payable": false,
					"stateMutability": "view",
					"type": "function"
				},
				{
					"constant": false,
					"inputs": [],
					"name": "withdraw",
					"outputs": [],
					"payable": false,
					"stateMutability": "nonpayable",
					"type": "function"
				},
				{
					"constant": true,
					"inputs": [
						{
							"name": "_owner",
							"type": "address"
						}
					],
					"name": "getZombiesByOwner",
					"outputs": [
						{
							"name": "",
							"type": "uint256[]"
						}
					],
					"payable": false,
					"stateMutability": "view",
					"type": "function"
				},
				{
					"constant": true,
					"inputs": [
						{
							"name": "",
							"type": "uint256"
						}
					],
					"name": "zombieToOwner",
					"outputs": [
						{
							"name": "",
							"type": "address"
						}
					],
					"payable": false,
					"stateMutability": "view",
					"type": "function"
				},
				{
					"constant": false,
					"inputs": [
						{
							"name": "_address",
							"type": "address"
						}
					],
					"name": "setKittyContractAddress",
					"outputs": [],
					"payable": false,
					"stateMutability": "nonpayable",
					"type": "function"
				},
				{
					"constant": false,
					"inputs": [
						{
							"name": "_zombieId",
							"type": "uint256"
						},
						{
							"name": "_newDna",
							"type": "uint256"
						}
					],
					"name": "changeDna",
					"outputs": [],
					"payable": false,
					"stateMutability": "nonpayable",
					"type": "function"
				},
				{
					"constant": false,
					"inputs": [
						{
							"name": "_name",
							"type": "string"
						}
					],
					"name": "createRandomZombie",
					"outputs": [],
					"payable": false,
					"stateMutability": "nonpayable",
					"type": "function"
				},
				{
					"constant": true,
					"inputs": [],
					"name": "owner",
					"outputs": [
						{
							"name": "",
							"type": "address"
						}
					],
					"payable": false,
					"stateMutability": "view",
					"type": "function"
				},
				{
					"constant": false,
					"inputs": [
						{
							"name": "_zombieId",
							"type": "uint256"
						},
						{
							"name": "_newName",
							"type": "string"
						}
					],
					"name": "changeName",
					"outputs": [],
					"payable": false,
					"stateMutability": "nonpayable",
					"type": "function"
				},
				{
					"constant": false,
					"inputs": [
						{
							"name": "_fee",
							"type": "uint256"
						}
					],
					"name": "setLevelUpFee",
					"outputs": [],
					"payable": false,
					"stateMutability": "nonpayable",
					"type": "function"
				},
				{
					"constant": false,
					"inputs": [
						{
							"name": "_zombieId",
							"type": "uint256"
						},
						{
							"name": "_targetId",
							"type": "uint256"
						}
					],
					"name": "attack",
					"outputs": [],
					"payable": false,
					"stateMutability": "nonpayable",
					"type": "function"
				},
				{
					"constant": false,
					"inputs": [
						{
							"name": "newOwner",
							"type": "address"
						}
					],
					"name": "transferOwnership",
					"outputs": [],
					"payable": false,
					"stateMutability": "nonpayable",
					"type": "function"
				},
				{
					"anonymous": false,
					"inputs": [
						{
							"indexed": false,
							"name": "zombieId",
							"type": "uint256"
						},
						{
							"indexed": false,
							"name": "name",
							"type": "string"
						},
						{
							"indexed": false,
							"name": "dna",
							"type": "uint256"
						}
					],
					"name": "NewZombie",
					"type": "event"
				},
				{
					"anonymous": false,
					"inputs": [
						{
							"indexed": true,
							"name": "previousOwner",
							"type": "address"
						},
						{
							"indexed": true,
							"name": "newOwner",
							"type": "address"
						}
					],
					"name": "OwnershipTransferred",
					"type": "event"
				}
			],
			"devdoc": {
				"methods": {
					"transferOwnership(address)": {
						"details": "Allows the current owner to transfer control of the contract to a newOwner.",
						"params": {
							"newOwner": "The address to transfer ownership to."
						}
					}
				}
			},
			"evm": {
				"assembly": "    /* \"contracts/zombieattack.sol\":56:819  contract ZombieBattle is ZombieHelper {... */\n  mstore(0x40, 0x60)\n    /* \"contracts/zombiefactory.sol\":169:171  16 */\n  0x10\n    /* \"contracts/zombiefactory.sol\":152:171  uint dnaDigits = 16 */\n  0x1\n  sstore\n    /* \"contracts/zombiefactory.sol\":201:210  dnaDigits */\n  sload(0x1)\n    /* \"contracts/zombiefactory.sol\":195:197  10 */\n  0xa\n    /* \"contracts/zombiefactory.sol\":195:210  10 ** dnaDigits */\n  exp\n    /* \"contracts/zombiefactory.sol\":177:210  uint dnaModulus = 10 ** dnaDigits */\n  0x2\n  sstore\n    /* \"contracts/zombiefactory.sol\":236:242  1 days */\n  0x15180\n    /* \"contracts/zombiefactory.sol\":216:242  uint cooldownTime = 1 days */\n  0x3\n  sstore\n    /* \"contracts/zombiehelper.sol\":119:130  0.001 ether */\n  0x38d7ea4c68000\n    /* \"contracts/zombiehelper.sol\":101:130  uint levelUpFee = 0.001 ether */\n  0x8\n  sstore\n    /* \"contracts/zombieattack.sol\":115:116  0 */\n  0x0\n    /* \"contracts/zombieattack.sol\":98:116  uint randNonce = 0 */\n  0x9\n  sstore\n    /* \"contracts/zombieattack.sol\":152:154  70 */\n  0x46\n    /* \"contracts/zombieattack.sol\":120:154  uint attackVictoryProbability = 70 */\n  0xa\n  sstore\n    /* \"contracts/ownable.sol\":506:516  msg.sender */\n  caller\n    /* \"contracts/ownable.sol\":498:503  owner */\n  0x0\n  dup1\n    /* \"contracts/ownable.sol\":498:516  owner = msg.sender */\n  0x100\n  exp\n  dup2\n  sload\n  dup2\n  0xffffffffffffffffffffffffffffffffffffffff\n  mul\n  not\n  and\n  swap1\n  dup4\n  0xffffffffffffffffffffffffffffffffffffffff\n  and\n  mul\n  or\n  swap1\n  sstore\n  pop\n    /* \"contracts/zombieattack.sol\":56:819  contract ZombieBattle is ZombieHelper {... */\n  dataSize(sub_0)\n  dup1\n  dataOffset(sub_0)\n  0x0\n  codecopy\n  0x0\n  return\nstop\n\nsub_0: assembly {\n        /* \"contracts/zombieattack.sol\":56:819  contract ZombieBattle is ZombieHelper {... */\n      mstore(0x40, 0x60)\n      jumpi(tag_1, lt(calldatasize, 0x4))\n      calldataload(0x0)\n      0x100000000000000000000000000000000000000000000000000000000\n      swap1\n      div\n      0xffffffff\n      and\n      dup1\n      0x17a7f4cc\n      eq\n      tag_2\n      jumpi\n      dup1\n      0x2052465e\n      eq\n      tag_3\n      jumpi\n      dup1\n      0x3ccfd60b\n      eq\n      tag_4\n      jumpi\n      dup1\n      0x4412e104\n      eq\n      tag_5\n      jumpi\n      dup1\n      0x528b7b8f\n      eq\n      tag_6\n      jumpi\n      dup1\n      0x5f4623f1\n      eq\n      tag_7\n      jumpi\n      dup1\n      0x5faf2880\n      eq\n      tag_8\n      jumpi\n      dup1\n      0x7bff0a01\n      eq\n      tag_9\n      jumpi\n      dup1\n      0x8da5cb5b\n      eq\n      tag_10\n      jumpi\n      dup1\n      0xc39cbef1\n      eq\n      tag_11\n      jumpi\n      dup1\n      0xccf670f8\n      eq\n      tag_12\n      jumpi\n      dup1\n      0xe1fa7638\n      eq\n      tag_13\n      jumpi\n      dup1\n      0xf2fde38b\n      eq\n      tag_14\n      jumpi\n    tag_1:\n      0x0\n      dup1\n      revert\n        /* \"contracts/zombiefeeding.sol\":1379:1573  function feedOnKitty(uint _zombieId, uint _kittyId) public {... */\n    tag_2:\n      jumpi(tag_15, iszero(callvalue))\n      0x0\n      dup1\n      revert\n    tag_15:\n      tag_16\n      0x4\n      dup1\n      dup1\n      calldataload\n      swap1\n      0x20\n      add\n      swap1\n      swap2\n      swap1\n      dup1\n      calldataload\n      swap1\n      0x20\n      add\n      swap1\n      swap2\n      swap1\n      pop\n      pop\n      jump(tag_17)\n    tag_16:\n      stop\n        /* \"contracts/zombiefactory.sol\":402:425  Zombie[] public zombies */\n    tag_3:\n      jumpi(tag_18, iszero(callvalue))\n      0x0\n      dup1\n      revert\n    tag_18:\n      tag_19\n      0x4\n      dup1\n      dup1\n      calldataload\n      swap1\n      0x20\n      add\n      swap1\n      swap2\n      swap1\n      pop\n      pop\n      jump(tag_20)\n    tag_19:\n      mload(0x40)\n      dup1\n      dup1\n      0x20\n      add\n      dup8\n      dup2\n      mstore\n      0x20\n      add\n      dup7\n      0xffffffff\n      and\n      0xffffffff\n      and\n      dup2\n      mstore\n      0x20\n      add\n      dup6\n      0xffffffff\n      and\n      0xffffffff\n      and\n      dup2\n      mstore\n      0x20\n      add\n      dup5\n      0xffff\n      and\n      0xffff\n      and\n      dup2\n      mstore\n      0x20\n      add\n      dup4\n      0xffff\n      and\n      0xffff\n      and\n      dup2\n      mstore\n      0x20\n      add\n      dup3\n      dup2\n      sub\n      dup3\n      mstore\n      dup9\n      dup2\n      dup2\n      sload\n      0x1\n      dup2\n      0x1\n      and\n      iszero\n      0x100\n      mul\n      sub\n      and\n      0x2\n      swap1\n      div\n      dup2\n      mstore\n      0x20\n      add\n      swap2\n      pop\n      dup1\n      sload\n      0x1\n      dup2\n      0x1\n      and\n      iszero\n      0x100\n      mul\n      sub\n      and\n      0x2\n      swap1\n      div\n      dup1\n      iszero\n      tag_21\n      jumpi\n      dup1\n      0x1f\n      lt\n      tag_22\n      jumpi\n      0x100\n      dup1\n      dup4\n      sload\n      div\n      mul\n      dup4\n      mstore\n      swap2\n      0x20\n      add\n      swap2\n      jump(tag_21)\n    tag_22:\n      dup3\n      add\n      swap2\n      swap1\n      0x0\n      mstore\n      keccak256(0x0, 0x20)\n      swap1\n    tag_23:\n      dup2\n      sload\n      dup2\n      mstore\n      swap1\n      0x1\n      add\n      swap1\n      0x20\n      add\n      dup1\n      dup4\n      gt\n      tag_23\n      jumpi\n      dup3\n      swap1\n      sub\n      0x1f\n      and\n      dup3\n      add\n      swap2\n    tag_21:\n      pop\n      pop\n      swap8\n      pop\n      pop\n      pop\n      pop\n      pop\n      pop\n      pop\n      pop\n      mload(0x40)\n      dup1\n      swap2\n      sub\n      swap1\n      return\n        /* \"contracts/zombiehelper.sol\":249:327  function withdraw() external onlyOwner {... */\n    tag_4:\n      jumpi(tag_24, iszero(callvalue))\n      0x0\n      dup1\n      revert\n    tag_24:\n      tag_25\n      jump(tag_26)\n    tag_25:\n      stop\n        /* \"contracts/zombiehelper.sol\":835:1169  function getZombiesByOwner(address _owner) external view returns(uint[]) {... */\n    tag_5:\n      jumpi(tag_27, iszero(callvalue))\n      0x0\n      dup1\n      revert\n    tag_27:\n      tag_28\n      0x4\n      dup1\n      dup1\n      calldataload\n      0xffffffffffffffffffffffffffffffffffffffff\n      and\n      swap1\n      0x20\n      add\n      swap1\n      swap2\n      swap1\n      pop\n      pop\n      jump(tag_29)\n    tag_28:\n      mload(0x40)\n      dup1\n      dup1\n      0x20\n      add\n      dup3\n      dup2\n      sub\n      dup3\n      mstore\n      dup4\n      dup2\n      dup2\n      mload\n      dup2\n      mstore\n      0x20\n      add\n      swap2\n      pop\n      dup1\n      mload\n      swap1\n      0x20\n      add\n      swap1\n      0x20\n      mul\n      dup1\n      dup4\n      dup4\n        /* \"--CODEGEN--\":23:24   */\n      0x0\n        /* \"--CODEGEN--\":8:108   */\n    tag_30:\n        /* \"--CODEGEN--\":33:36   */\n      dup4\n        /* \"--CODEGEN--\":30:31   */\n      dup2\n        /* \"--CODEGEN--\":27:29   */\n      lt\n        /* \"--CODEGEN--\":8:108   */\n      iszero\n      tag_31\n      jumpi\n        /* \"--CODEGEN--\":99:100   */\n      dup1\n        /* \"--CODEGEN--\":94:97   */\n      dup3\n        /* \"--CODEGEN--\":90:93   */\n      add\n        /* \"--CODEGEN--\":84:89   */\n      mload\n        /* \"--CODEGEN--\":80:81   */\n      dup2\n        /* \"--CODEGEN--\":75:78   */\n      dup5\n        /* \"--CODEGEN--\":71:74   */\n      add\n        /* \"--CODEGEN--\":64:70   */\n      mstore\n        /* \"--CODEGEN--\":52:54   */\n      0x20\n        /* \"--CODEGEN--\":49:50   */\n      dup2\n        /* \"--CODEGEN--\":45:48   */\n      add\n        /* \"--CODEGEN--\":40:55   */\n      swap1\n      pop\n        /* \"--CODEGEN--\":8:108   */\n      jump(tag_30)\n    tag_31:\n        /* \"--CODEGEN--\":12:26   */\n      pop\n        /* \"--CODEGEN--\":3:112   */\n      pop\n      pop\n      pop\n      swap1\n      pop\n      add\n      swap3\n      pop\n      pop\n      pop\n      mload(0x40)\n      dup1\n      swap2\n      sub\n      swap1\n      return\n        /* \"contracts/zombiefactory.sol\":432:478  mapping (uint => address) public zombieToOwner */\n    tag_6:\n      jumpi(tag_33, iszero(callvalue))\n      0x0\n      dup1\n      revert\n    tag_33:\n      tag_34\n      0x4\n      dup1\n      dup1\n      calldataload\n      swap1\n      0x20\n      add\n      swap1\n      swap2\n      swap1\n      pop\n      pop\n      jump(tag_35)\n    tag_34:\n      mload(0x40)\n      dup1\n      dup3\n      0xffffffffffffffffffffffffffffffffffffffff\n      and\n      0xffffffffffffffffffffffffffffffffffffffff\n      and\n      dup2\n      mstore\n      0x20\n      add\n      swap2\n      pop\n      pop\n      mload(0x40)\n      dup1\n      swap2\n      sub\n      swap1\n      return\n        /* \"contracts/zombiefeeding.sol\":554:675  function setKittyContractAddress(address _address) external onlyOwner {... */\n    tag_7:\n      jumpi(tag_36, iszero(callvalue))\n      0x0\n      dup1\n      revert\n    tag_36:\n      tag_37\n      0x4\n      dup1\n      dup1\n      calldataload\n      0xffffffffffffffffffffffffffffffffffffffff\n      and\n      swap1\n      0x20\n      add\n      swap1\n      swap2\n      swap1\n      pop\n      pop\n      jump(tag_38)\n    tag_37:\n      stop\n        /* \"contracts/zombiehelper.sol\":685:831  function changeDna(uint _zombieId, uint _newDna) external aboveLevel(20, _zombieId) ownerOf(_zombieId) {... */\n    tag_8:\n      jumpi(tag_39, iszero(callvalue))\n      0x0\n      dup1\n      revert\n    tag_39:\n      tag_40\n      0x4\n      dup1\n      dup1\n      calldataload\n      swap1\n      0x20\n      add\n      swap1\n      swap2\n      swap1\n      dup1\n      calldataload\n      swap1\n      0x20\n      add\n      swap1\n      swap2\n      swap1\n      pop\n      pop\n      jump(tag_41)\n    tag_40:\n      stop\n        /* \"contracts/zombiefactory.sol\":972:1212  function createRandomZombie(string _name) public {... */\n    tag_9:\n      jumpi(tag_42, iszero(callvalue))\n      0x0\n      dup1\n      revert\n    tag_42:\n      tag_43\n      0x4\n      dup1\n      dup1\n      calldataload\n      swap1\n      0x20\n      add\n      swap1\n      dup3\n      add\n      dup1\n      calldataload\n      swap1\n      0x20\n      add\n      swap1\n      dup1\n      dup1\n      0x1f\n      add\n      0x20\n      dup1\n      swap2\n      div\n      mul\n      0x20\n      add\n      mload(0x40)\n      swap1\n      dup2\n      add\n      0x40\n      mstore\n      dup1\n      swap4\n      swap3\n      swap2\n      swap1\n      dup2\n      dup2\n      mstore\n      0x20\n      add\n      dup4\n      dup4\n      dup1\n      dup3\n      dup5\n      calldatacopy\n      dup3\n      add\n      swap2\n      pop\n      pop\n      pop\n      pop\n      pop\n      pop\n      swap2\n      swap1\n      pop\n      pop\n      jump(tag_44)\n    tag_43:\n      stop\n        /* \"contracts/ownable.sol\":237:257  address public owner */\n    tag_10:\n      jumpi(tag_45, iszero(callvalue))\n      0x0\n      dup1\n      revert\n    tag_45:\n      tag_46\n      jump(tag_47)\n    tag_46:\n      mload(0x40)\n      dup1\n      dup3\n      0xffffffffffffffffffffffffffffffffffffffff\n      and\n      0xffffffffffffffffffffffffffffffffffffffff\n      and\n      dup2\n      mstore\n      0x20\n      add\n      swap2\n      pop\n      pop\n      mload(0x40)\n      dup1\n      swap2\n      sub\n      swap1\n      return\n        /* \"contracts/zombiehelper.sol\":485:636  function changeName(uint _zombieId, string _newName) external aboveLevel(2, _zombieId) ownerOf(_zombieId) {... */\n    tag_11:\n      jumpi(tag_48, iszero(callvalue))\n      0x0\n      dup1\n      revert\n    tag_48:\n      tag_49\n      0x4\n      dup1\n      dup1\n      calldataload\n      swap1\n      0x20\n      add\n      swap1\n      swap2\n      swap1\n      dup1\n      calldataload\n      swap1\n      0x20\n      add\n      swap1\n      dup3\n      add\n      dup1\n      calldataload\n      swap1\n      0x20\n      add\n      swap2\n      swap1\n      swap2\n      swap3\n      swap1\n      pop\n      pop\n      jump(tag_50)\n    tag_49:\n      stop\n        /* \"contracts/zombiehelper.sol\":331:412  function setLevelUpFee(uint _fee) external onlyOwner {... */\n    tag_12:\n      jumpi(tag_51, iszero(callvalue))\n      0x0\n      dup1\n      revert\n    tag_51:\n      tag_52\n      0x4\n      dup1\n      dup1\n      calldataload\n      swap1\n      0x20\n      add\n      swap1\n      swap2\n      swap1\n      pop\n      pop\n      jump(tag_53)\n    tag_52:\n      stop\n        /* \"contracts/zombieattack.sol\":307:817  function attack(uint _zombieId, uint _targetId) external ownerOf(_zombieId) {... */\n    tag_13:\n      jumpi(tag_54, iszero(callvalue))\n      0x0\n      dup1\n      revert\n    tag_54:\n      tag_55\n      0x4\n      dup1\n      dup1\n      calldataload\n      swap1\n      0x20\n      add\n      swap1\n      swap2\n      swap1\n      dup1\n      calldataload\n      swap1\n      0x20\n      add\n      swap1\n      swap2\n      swap1\n      pop\n      pop\n      jump(tag_56)\n    tag_55:\n      stop\n        /* \"contracts/ownable.sol\":831:1000  function transferOwnership(address newOwner) public onlyOwner {... */\n    tag_14:\n      jumpi(tag_57, iszero(callvalue))\n      0x0\n      dup1\n      revert\n    tag_57:\n      tag_58\n      0x4\n      dup1\n      dup1\n      calldataload\n      0xffffffffffffffffffffffffffffffffffffffff\n      and\n      swap1\n      0x20\n      add\n      swap1\n      swap2\n      swap1\n      pop\n      pop\n      jump(tag_59)\n    tag_58:\n      stop\n        /* \"contracts/zombiefeeding.sol\":1379:1573  function feedOnKitty(uint _zombieId, uint _kittyId) public {... */\n    tag_17:\n        /* \"contracts/zombiefeeding.sol\":1444:1457  uint kittyDna */\n      0x0\n        /* \"contracts/zombiefeeding.sol\":1485:1498  kittyContract */\n      0x7\n      0x0\n      swap1\n      sload\n      swap1\n      0x100\n      exp\n      swap1\n      div\n      0xffffffffffffffffffffffffffffffffffffffff\n      and\n        /* \"contracts/zombiefeeding.sol\":1485:1507  kittyContract.getKitty */\n      0xffffffffffffffffffffffffffffffffffffffff\n      and\n      0xe98b7f4d\n        /* \"contracts/zombiefeeding.sol\":1508:1516  _kittyId */\n      dup4\n        /* \"contracts/zombiefeeding.sol\":1485:1517  kittyContract.getKitty(_kittyId) */\n      mstore(add(0x140, mload(0x40)), 0x0)\n      mload(0x40)\n      dup3\n      0xffffffff\n      and\n      0x100000000000000000000000000000000000000000000000000000000\n      mul\n      dup2\n      mstore\n      0x4\n      add\n      dup1\n      dup3\n      dup2\n      mstore\n      0x20\n      add\n      swap2\n      pop\n      pop\n      0x140\n      mload(0x40)\n      dup1\n      dup4\n      sub\n      dup2\n      0x0\n      dup8\n      dup1\n      extcodesize\n      iszero\n      iszero\n      tag_61\n      jumpi\n      0x0\n      dup1\n      revert\n    tag_61:\n      sub(gas, 0x2c6)\n      call\n      iszero\n      iszero\n      tag_62\n      jumpi\n      0x0\n      dup1\n      revert\n    tag_62:\n      pop\n      pop\n      pop\n      mload(0x40)\n      dup1\n      mload\n      swap1\n      0x20\n      add\n      dup1\n      mload\n      swap1\n      0x20\n      add\n      dup1\n      mload\n      swap1\n      0x20\n      add\n      dup1\n      mload\n      swap1\n      0x20\n      add\n      dup1\n      mload\n      swap1\n      0x20\n      add\n      dup1\n      mload\n      swap1\n      0x20\n      add\n      dup1\n      mload\n      swap1\n      0x20\n      add\n      dup1\n      mload\n      swap1\n      0x20\n      add\n      dup1\n      mload\n      swap1\n      0x20\n      add\n      dup1\n      mload\n      swap1\n      pop\n        /* \"contracts/zombiefeeding.sol\":1463:1517  (,,,,,,,,,kittyDna) = kittyContract.getKitty(_kittyId) */\n      swap1\n      swap2\n      swap3\n      swap4\n      swap5\n      swap6\n      swap7\n      swap8\n      swap9\n      pop\n      swap1\n      swap2\n      swap3\n      swap4\n      swap5\n      swap6\n      swap7\n      swap8\n      pop\n      swap1\n      swap2\n      swap3\n      swap4\n      swap5\n      swap6\n      swap7\n      pop\n      swap1\n      swap2\n      swap3\n      swap4\n      swap5\n      swap6\n      pop\n      swap1\n      swap2\n      swap3\n      swap4\n      swap5\n      pop\n      swap1\n      swap2\n      swap3\n      swap4\n      pop\n      swap1\n      swap2\n      swap3\n      pop\n      swap1\n      swap2\n      pop\n      swap1\n      pop\n      dup1\n      swap2\n      pop\n      pop\n        /* \"contracts/zombiefeeding.sol\":1523:1568  feedAndMultiply(_zombieId, kittyDna, \"kitty\") */\n      tag_63\n        /* \"contracts/zombiefeeding.sol\":1539:1548  _zombieId */\n      dup4\n        /* \"contracts/zombiefeeding.sol\":1550:1558  kittyDna */\n      dup3\n        /* \"contracts/zombiefeeding.sol\":1523:1568  feedAndMultiply(_zombieId, kittyDna, \"kitty\") */\n      0x40\n      dup1\n      mload\n      swap1\n      dup2\n      add\n      0x40\n      mstore\n      dup1\n      0x5\n      dup2\n      mstore\n      0x20\n      add\n      0x6b69747479000000000000000000000000000000000000000000000000000000\n      dup2\n      mstore\n      pop\n        /* \"contracts/zombiefeeding.sol\":1523:1538  feedAndMultiply */\n      tag_64\n        /* \"contracts/zombiefeeding.sol\":1523:1568  feedAndMultiply(_zombieId, kittyDna, \"kitty\") */\n      jump\t// in\n    tag_63:\n        /* \"contracts/zombiefeeding.sol\":1379:1573  function feedOnKitty(uint _zombieId, uint _kittyId) public {... */\n      pop\n      pop\n      pop\n      jump\t// out\n        /* \"contracts/zombiefactory.sol\":402:425  Zombie[] public zombies */\n    tag_20:\n      0x4\n      dup2\n      dup2\n      sload\n      dup2\n      lt\n      iszero\n      iszero\n      tag_65\n      jumpi\n      invalid\n    tag_65:\n      swap1\n      0x0\n      mstore\n      keccak256(0x0, 0x20)\n      swap1\n      0x3\n      mul\n      add\n      0x0\n      swap2\n      pop\n      swap1\n      pop\n      dup1\n      0x0\n      add\n      swap1\n      dup1\n      0x1\n      add\n      sload\n      swap1\n      dup1\n      0x2\n      add\n      0x0\n      swap1\n      sload\n      swap1\n      0x100\n      exp\n      swap1\n      div\n      0xffffffff\n      and\n      swap1\n      dup1\n      0x2\n      add\n      0x4\n      swap1\n      sload\n      swap1\n      0x100\n      exp\n      swap1\n      div\n      0xffffffff\n      and\n      swap1\n      dup1\n      0x2\n      add\n      0x8\n      swap1\n      sload\n      swap1\n      0x100\n      exp\n      swap1\n      div\n      0xffff\n      and\n      swap1\n      dup1\n      0x2\n      add\n      0xa\n      swap1\n      sload\n      swap1\n      0x100\n      exp\n      swap1\n      div\n      0xffff\n      and\n      swap1\n      pop\n      dup7\n      jump\t// out\n        /* \"contracts/zombiehelper.sol\":249:327  function withdraw() external onlyOwner {... */\n    tag_26:\n        /* \"contracts/ownable.sol\":651:656  owner */\n      0x0\n      dup1\n      swap1\n      sload\n      swap1\n      0x100\n      exp\n      swap1\n      div\n      0xffffffffffffffffffffffffffffffffffffffff\n      and\n        /* \"contracts/ownable.sol\":637:656  msg.sender == owner */\n      0xffffffffffffffffffffffffffffffffffffffff\n      and\n        /* \"contracts/ownable.sol\":637:647  msg.sender */\n      caller\n        /* \"contracts/ownable.sol\":637:656  msg.sender == owner */\n      0xffffffffffffffffffffffffffffffffffffffff\n      and\n      eq\n        /* \"contracts/ownable.sol\":629:657  require(msg.sender == owner) */\n      iszero\n      iszero\n      tag_68\n      jumpi\n      0x0\n      dup1\n      revert\n    tag_68:\n        /* \"contracts/zombiehelper.sol\":294:299  owner */\n      0x0\n      dup1\n      swap1\n      sload\n      swap1\n      0x100\n      exp\n      swap1\n      div\n      0xffffffffffffffffffffffffffffffffffffffff\n      and\n        /* \"contracts/zombiehelper.sol\":294:308  owner.transfer */\n      0xffffffffffffffffffffffffffffffffffffffff\n      and\n        /* \"contracts/zombiehelper.sol\":294:322  owner.transfer(this.balance) */\n      0x8fc\n        /* \"contracts/zombiehelper.sol\":309:313  this */\n      address\n        /* \"contracts/zombiehelper.sol\":309:321  this.balance */\n      0xffffffffffffffffffffffffffffffffffffffff\n      and\n      balance\n        /* \"contracts/zombiehelper.sol\":294:322  owner.transfer(this.balance) */\n      swap1\n      dup2\n      iszero\n      mul\n      swap1\n      mload(0x40)\n      0x0\n      mload(0x40)\n      dup1\n      dup4\n      sub\n      dup2\n      dup6\n      dup9\n      dup9\n      call\n      swap4\n      pop\n      pop\n      pop\n      pop\n      iszero\n      iszero\n      tag_70\n      jumpi\n      0x0\n      dup1\n      revert\n    tag_70:\n        /* \"contracts/zombiehelper.sol\":249:327  function withdraw() external onlyOwner {... */\n      jump\t// out\n        /* \"contracts/zombiehelper.sol\":835:1169  function getZombiesByOwner(address _owner) external view returns(uint[]) {... */\n    tag_29:\n        /* \"contracts/zombiehelper.sol\":900:906  uint[] */\n      tag_71\n      jump\t// in(tag_72)\n    tag_71:\n        /* \"contracts/zombiehelper.sol\":914:934  uint[] memory result */\n      tag_73\n      jump\t// in(tag_72)\n    tag_73:\n        /* \"contracts/zombiehelper.sol\":979:991  uint counter */\n      0x0\n        /* \"contracts/zombiehelper.sol\":1006:1012  uint i */\n      dup1\n        /* \"contracts/zombiehelper.sol\":948:964  ownerZombieCount */\n      0x6\n        /* \"contracts/zombiehelper.sol\":948:972  ownerZombieCount[_owner] */\n      0x0\n        /* \"contracts/zombiehelper.sol\":965:971  _owner */\n      dup7\n        /* \"contracts/zombiehelper.sol\":948:972  ownerZombieCount[_owner] */\n      0xffffffffffffffffffffffffffffffffffffffff\n      and\n      0xffffffffffffffffffffffffffffffffffffffff\n      and\n      dup2\n      mstore\n      0x20\n      add\n      swap1\n      dup2\n      mstore\n      0x20\n      add\n      0x0\n      keccak256\n      sload\n        /* \"contracts/zombiehelper.sol\":937:973  new uint[](ownerZombieCount[_owner]) */\n      mload(0x40)\n      dup1\n      msize\n      lt\n      tag_75\n      jumpi\n      pop\n      msize\n    tag_75:\n      swap1\n      dup1\n      dup3\n      mstore\n      dup1\n      0x20\n      mul\n      0x20\n      add\n      dup3\n      add\n      0x40\n      mstore\n      pop\n        /* \"contracts/zombiehelper.sol\":914:973  uint[] memory result = new uint[](ownerZombieCount[_owner]) */\n      swap3\n      pop\n        /* \"contracts/zombiehelper.sol\":994:995  0 */\n      0x0\n        /* \"contracts/zombiehelper.sol\":979:995  uint counter = 0 */\n      swap2\n      pop\n        /* \"contracts/zombiehelper.sol\":1015:1016  0 */\n      0x0\n        /* \"contracts/zombiehelper.sol\":1006:1016  uint i = 0 */\n      swap1\n      pop\n        /* \"contracts/zombiehelper.sol\":1001:1146  for (uint i = 0; i < zombies.length; i++) {... */\n    tag_77:\n        /* \"contracts/zombiehelper.sol\":1022:1029  zombies */\n      0x4\n        /* \"contracts/zombiehelper.sol\":1022:1036  zombies.length */\n      dup1\n      sload\n      swap1\n      pop\n        /* \"contracts/zombiehelper.sol\":1018:1019  i */\n      dup2\n        /* \"contracts/zombiehelper.sol\":1018:1036  i < zombies.length */\n      lt\n        /* \"contracts/zombiehelper.sol\":1001:1146  for (uint i = 0; i < zombies.length; i++) {... */\n      iszero\n      tag_78\n      jumpi\n        /* \"contracts/zombiehelper.sol\":1075:1081  _owner */\n      dup5\n        /* \"contracts/zombiehelper.sol\":1055:1081  zombieToOwner[i] == _owner */\n      0xffffffffffffffffffffffffffffffffffffffff\n      and\n        /* \"contracts/zombiehelper.sol\":1055:1068  zombieToOwner */\n      0x5\n        /* \"contracts/zombiehelper.sol\":1055:1071  zombieToOwner[i] */\n      0x0\n        /* \"contracts/zombiehelper.sol\":1069:1070  i */\n      dup4\n        /* \"contracts/zombiehelper.sol\":1055:1071  zombieToOwner[i] */\n      dup2\n      mstore\n      0x20\n      add\n      swap1\n      dup2\n      mstore\n      0x20\n      add\n      0x0\n      keccak256\n      0x0\n      swap1\n      sload\n      swap1\n      0x100\n      exp\n      swap1\n      div\n      0xffffffffffffffffffffffffffffffffffffffff\n      and\n        /* \"contracts/zombiehelper.sol\":1055:1081  zombieToOwner[i] == _owner */\n      0xffffffffffffffffffffffffffffffffffffffff\n      and\n      eq\n        /* \"contracts/zombiehelper.sol\":1051:1140  if (zombieToOwner[i] == _owner) {... */\n      iszero\n      tag_80\n      jumpi\n        /* \"contracts/zombiehelper.sol\":1111:1112  i */\n      dup1\n        /* \"contracts/zombiehelper.sol\":1093:1099  result */\n      dup4\n        /* \"contracts/zombiehelper.sol\":1100:1107  counter */\n      dup4\n        /* \"contracts/zombiehelper.sol\":1093:1108  result[counter] */\n      dup2\n      mload\n      dup2\n      lt\n      iszero\n      iszero\n      tag_81\n      jumpi\n      invalid\n    tag_81:\n      swap1\n      0x20\n      add\n      swap1\n      0x20\n      mul\n      add\n        /* \"contracts/zombiehelper.sol\":1093:1112  result[counter] = i */\n      dup2\n      dup2\n      mstore\n      pop\n      pop\n        /* \"contracts/zombiehelper.sol\":1122:1131  counter++ */\n      dup2\n      dup1\n      0x1\n      add\n      swap3\n      pop\n      pop\n        /* \"contracts/zombiehelper.sol\":1051:1140  if (zombieToOwner[i] == _owner) {... */\n    tag_80:\n        /* \"contracts/zombiehelper.sol\":1038:1041  i++ */\n      dup1\n      dup1\n      0x1\n      add\n      swap2\n      pop\n      pop\n        /* \"contracts/zombiehelper.sol\":1001:1146  for (uint i = 0; i < zombies.length; i++) {... */\n      jump(tag_77)\n    tag_78:\n        /* \"contracts/zombiehelper.sol\":1158:1164  result */\n      dup3\n        /* \"contracts/zombiehelper.sol\":1151:1164  return result */\n      swap4\n      pop\n        /* \"contracts/zombiehelper.sol\":835:1169  function getZombiesByOwner(address _owner) external view returns(uint[]) {... */\n      pop\n      pop\n      pop\n      swap2\n      swap1\n      pop\n      jump\t// out\n        /* \"contracts/zombiefactory.sol\":432:478  mapping (uint => address) public zombieToOwner */\n    tag_35:\n      mstore(0x20, 0x5)\n      dup1\n      0x0\n      mstore\n      keccak256(0x0, 0x40)\n      0x0\n      swap2\n      pop\n      sload\n      swap1\n      0x100\n      exp\n      swap1\n      div\n      0xffffffffffffffffffffffffffffffffffffffff\n      and\n      dup2\n      jump\t// out\n        /* \"contracts/zombiefeeding.sol\":554:675  function setKittyContractAddress(address _address) external onlyOwner {... */\n    tag_38:\n        /* \"contracts/ownable.sol\":651:656  owner */\n      0x0\n      dup1\n      swap1\n      sload\n      swap1\n      0x100\n      exp\n      swap1\n      div\n      0xffffffffffffffffffffffffffffffffffffffff\n      and\n        /* \"contracts/ownable.sol\":637:656  msg.sender == owner */\n      0xffffffffffffffffffffffffffffffffffffffff\n      and\n        /* \"contracts/ownable.sol\":637:647  msg.sender */\n      caller\n        /* \"contracts/ownable.sol\":637:656  msg.sender == owner */\n      0xffffffffffffffffffffffffffffffffffffffff\n      and\n      eq\n        /* \"contracts/ownable.sol\":629:657  require(msg.sender == owner) */\n      iszero\n      iszero\n      tag_83\n      jumpi\n      0x0\n      dup1\n      revert\n    tag_83:\n        /* \"contracts/zombiefeeding.sol\":661:669  _address */\n      dup1\n        /* \"contracts/zombiefeeding.sol\":630:643  kittyContract */\n      0x7\n      0x0\n        /* \"contracts/zombiefeeding.sol\":630:670  kittyContract = KittyInterface(_address) */\n      0x100\n      exp\n      dup2\n      sload\n      dup2\n      0xffffffffffffffffffffffffffffffffffffffff\n      mul\n      not\n      and\n      swap1\n      dup4\n      0xffffffffffffffffffffffffffffffffffffffff\n      and\n      mul\n      or\n      swap1\n      sstore\n      pop\n        /* \"contracts/zombiefeeding.sol\":554:675  function setKittyContractAddress(address _address) external onlyOwner {... */\n      pop\n      jump\t// out\n        /* \"contracts/zombiehelper.sol\":685:831  function changeDna(uint _zombieId, uint _newDna) external aboveLevel(20, _zombieId) ownerOf(_zombieId) {... */\n    tag_41:\n        /* \"contracts/zombiehelper.sol\":754:756  20 */\n      0x14\n        /* \"contracts/zombiehelper.sol\":758:767  _zombieId */\n      dup3\n        /* \"contracts/zombiehelper.sol\":226:232  _level */\n      dup2\n        /* \"contracts/zombiehelper.sol\":198:205  zombies */\n      0x4\n        /* \"contracts/zombiehelper.sol\":206:215  _zombieId */\n      dup3\n        /* \"contracts/zombiehelper.sol\":198:216  zombies[_zombieId] */\n      dup2\n      sload\n      dup2\n      lt\n      iszero\n      iszero\n      tag_86\n      jumpi\n      invalid\n    tag_86:\n      swap1\n      0x0\n      mstore\n      keccak256(0x0, 0x20)\n      swap1\n      0x3\n      mul\n      add\n        /* \"contracts/zombiehelper.sol\":198:222  zombies[_zombieId].level */\n      0x2\n      add\n      0x0\n      swap1\n      sload\n      swap1\n      0x100\n      exp\n      swap1\n      div\n      0xffffffff\n      and\n        /* \"contracts/zombiehelper.sol\":198:232  zombies[_zombieId].level >= _level */\n      0xffffffff\n      and\n      lt\n      iszero\n        /* \"contracts/zombiehelper.sol\":190:233  require(zombies[_zombieId].level >= _level) */\n      iszero\n      iszero\n      tag_88\n      jumpi\n      0x0\n      dup1\n      revert\n    tag_88:\n        /* \"contracts/zombiehelper.sol\":777:786  _zombieId */\n      dup4\n        /* \"contracts/zombiefeeding.sol\":513:526  zombieToOwner */\n      0x5\n        /* \"contracts/zombiefeeding.sol\":513:537  zombieToOwner[_zombieId] */\n      0x0\n        /* \"contracts/zombiefeeding.sol\":527:536  _zombieId */\n      dup3\n        /* \"contracts/zombiefeeding.sol\":513:537  zombieToOwner[_zombieId] */\n      dup2\n      mstore\n      0x20\n      add\n      swap1\n      dup2\n      mstore\n      0x20\n      add\n      0x0\n      keccak256\n      0x0\n      swap1\n      sload\n      swap1\n      0x100\n      exp\n      swap1\n      div\n      0xffffffffffffffffffffffffffffffffffffffff\n      and\n        /* \"contracts/zombiefeeding.sol\":499:537  msg.sender == zombieToOwner[_zombieId] */\n      0xffffffffffffffffffffffffffffffffffffffff\n      and\n        /* \"contracts/zombiefeeding.sol\":499:509  msg.sender */\n      caller\n        /* \"contracts/zombiefeeding.sol\":499:537  msg.sender == zombieToOwner[_zombieId] */\n      0xffffffffffffffffffffffffffffffffffffffff\n      and\n      eq\n        /* \"contracts/zombiefeeding.sol\":491:538  require(msg.sender == zombieToOwner[_zombieId]) */\n      iszero\n      iszero\n      tag_90\n      jumpi\n      0x0\n      dup1\n      revert\n    tag_90:\n        /* \"contracts/zombiehelper.sol\":819:826  _newDna */\n      dup4\n        /* \"contracts/zombiehelper.sol\":794:801  zombies */\n      0x4\n        /* \"contracts/zombiehelper.sol\":802:811  _zombieId */\n      dup7\n        /* \"contracts/zombiehelper.sol\":794:812  zombies[_zombieId] */\n      dup2\n      sload\n      dup2\n      lt\n      iszero\n      iszero\n      tag_92\n      jumpi\n      invalid\n    tag_92:\n      swap1\n      0x0\n      mstore\n      keccak256(0x0, 0x20)\n      swap1\n      0x3\n      mul\n      add\n        /* \"contracts/zombiehelper.sol\":794:816  zombies[_zombieId].dna */\n      0x1\n      add\n        /* \"contracts/zombiehelper.sol\":794:826  zombies[_zombieId].dna = _newDna */\n      dup2\n      swap1\n      sstore\n      pop\n        /* \"contracts/zombiehelper.sol\":239:240  _ */\n      pop\n        /* \"contracts/zombiehelper.sol\":685:831  function changeDna(uint _zombieId, uint _newDna) external aboveLevel(20, _zombieId) ownerOf(_zombieId) {... */\n      pop\n      pop\n      pop\n      pop\n      jump\t// out\n        /* \"contracts/zombiefactory.sol\":972:1212  function createRandomZombie(string _name) public {... */\n    tag_44:\n        /* \"contracts/zombiefactory.sol\":1083:1095  uint randDna */\n      0x0\n        /* \"contracts/zombiefactory.sol\":1071:1072  0 */\n      dup1\n        /* \"contracts/zombiefactory.sol\":1039:1055  ownerZombieCount */\n      0x6\n        /* \"contracts/zombiefactory.sol\":1039:1067  ownerZombieCount[msg.sender] */\n      0x0\n        /* \"contracts/zombiefactory.sol\":1056:1066  msg.sender */\n      caller\n        /* \"contracts/zombiefactory.sol\":1039:1067  ownerZombieCount[msg.sender] */\n      0xffffffffffffffffffffffffffffffffffffffff\n      and\n      0xffffffffffffffffffffffffffffffffffffffff\n      and\n      dup2\n      mstore\n      0x20\n      add\n      swap1\n      dup2\n      mstore\n      0x20\n      add\n      0x0\n      keccak256\n      sload\n        /* \"contracts/zombiefactory.sol\":1039:1072  ownerZombieCount[msg.sender] == 0 */\n      eq\n        /* \"contracts/zombiefactory.sol\":1031:1073  require(ownerZombieCount[msg.sender] == 0) */\n      iszero\n      iszero\n      tag_95\n      jumpi\n      0x0\n      dup1\n      revert\n    tag_95:\n        /* \"contracts/zombiefactory.sol\":1098:1123  _generateRandomDna(_name) */\n      tag_96\n        /* \"contracts/zombiefactory.sol\":1117:1122  _name */\n      dup3\n        /* \"contracts/zombiefactory.sol\":1098:1116  _generateRandomDna */\n      tag_97\n        /* \"contracts/zombiefactory.sol\":1098:1123  _generateRandomDna(_name) */\n      jump\t// in\n    tag_96:\n        /* \"contracts/zombiefactory.sol\":1083:1123  uint randDna = _generateRandomDna(_name) */\n      swap1\n      pop\n        /* \"contracts/zombiefactory.sol\":1163:1166  100 */\n      0x64\n        /* \"contracts/zombiefactory.sol\":1153:1160  randDna */\n      dup2\n        /* \"contracts/zombiefactory.sol\":1153:1166  randDna % 100 */\n      dup2\n      iszero\n      iszero\n      tag_98\n      jumpi\n      invalid\n    tag_98:\n      mod\n        /* \"contracts/zombiefactory.sol\":1143:1150  randDna */\n      dup2\n        /* \"contracts/zombiefactory.sol\":1143:1166  randDna - randDna % 100 */\n      sub\n        /* \"contracts/zombiefactory.sol\":1133:1166  randDna = randDna - randDna % 100 */\n      swap1\n      pop\n        /* \"contracts/zombiefactory.sol\":1176:1205  _createZombie(_name, randDna) */\n      tag_99\n        /* \"contracts/zombiefactory.sol\":1190:1195  _name */\n      dup3\n        /* \"contracts/zombiefactory.sol\":1197:1204  randDna */\n      dup3\n        /* \"contracts/zombiefactory.sol\":1176:1189  _createZombie */\n      tag_100\n        /* \"contracts/zombiefactory.sol\":1176:1205  _createZombie(_name, randDna) */\n      jump\t// in\n    tag_99:\n        /* \"contracts/zombiefactory.sol\":972:1212  function createRandomZombie(string _name) public {... */\n      pop\n      pop\n      jump\t// out\n        /* \"contracts/ownable.sol\":237:257  address public owner */\n    tag_47:\n      0x0\n      dup1\n      swap1\n      sload\n      swap1\n      0x100\n      exp\n      swap1\n      div\n      0xffffffffffffffffffffffffffffffffffffffff\n      and\n      dup2\n      jump\t// out\n        /* \"contracts/zombiehelper.sol\":485:636  function changeName(uint _zombieId, string _newName) external aboveLevel(2, _zombieId) ownerOf(_zombieId) {... */\n    tag_50:\n        /* \"contracts/zombiehelper.sol\":558:559  2 */\n      0x2\n        /* \"contracts/zombiehelper.sol\":561:570  _zombieId */\n      dup4\n        /* \"contracts/zombiehelper.sol\":226:232  _level */\n      dup2\n        /* \"contracts/zombiehelper.sol\":198:205  zombies */\n      0x4\n        /* \"contracts/zombiehelper.sol\":206:215  _zombieId */\n      dup3\n        /* \"contracts/zombiehelper.sol\":198:216  zombies[_zombieId] */\n      dup2\n      sload\n      dup2\n      lt\n      iszero\n      iszero\n      tag_102\n      jumpi\n      invalid\n    tag_102:\n      swap1\n      0x0\n      mstore\n      keccak256(0x0, 0x20)\n      swap1\n      0x3\n      mul\n      add\n        /* \"contracts/zombiehelper.sol\":198:222  zombies[_zombieId].level */\n      0x2\n      add\n      0x0\n      swap1\n      sload\n      swap1\n      0x100\n      exp\n      swap1\n      div\n      0xffffffff\n      and\n        /* \"contracts/zombiehelper.sol\":198:232  zombies[_zombieId].level >= _level */\n      0xffffffff\n      and\n      lt\n      iszero\n        /* \"contracts/zombiehelper.sol\":190:233  require(zombies[_zombieId].level >= _level) */\n      iszero\n      iszero\n      tag_104\n      jumpi\n      0x0\n      dup1\n      revert\n    tag_104:\n        /* \"contracts/zombiehelper.sol\":580:589  _zombieId */\n      dup5\n        /* \"contracts/zombiefeeding.sol\":513:526  zombieToOwner */\n      0x5\n        /* \"contracts/zombiefeeding.sol\":513:537  zombieToOwner[_zombieId] */\n      0x0\n        /* \"contracts/zombiefeeding.sol\":527:536  _zombieId */\n      dup3\n        /* \"contracts/zombiefeeding.sol\":513:537  zombieToOwner[_zombieId] */\n      dup2\n      mstore\n      0x20\n      add\n      swap1\n      dup2\n      mstore\n      0x20\n      add\n      0x0\n      keccak256\n      0x0\n      swap1\n      sload\n      swap1\n      0x100\n      exp\n      swap1\n      div\n      0xffffffffffffffffffffffffffffffffffffffff\n      and\n        /* \"contracts/zombiefeeding.sol\":499:537  msg.sender == zombieToOwner[_zombieId] */\n      0xffffffffffffffffffffffffffffffffffffffff\n      and\n        /* \"contracts/zombiefeeding.sol\":499:509  msg.sender */\n      caller\n        /* \"contracts/zombiefeeding.sol\":499:537  msg.sender == zombieToOwner[_zombieId] */\n      0xffffffffffffffffffffffffffffffffffffffff\n      and\n      eq\n        /* \"contracts/zombiefeeding.sol\":491:538  require(msg.sender == zombieToOwner[_zombieId]) */\n      iszero\n      iszero\n      tag_106\n      jumpi\n      0x0\n      dup1\n      revert\n    tag_106:\n        /* \"contracts/zombiehelper.sol\":623:631  _newName */\n      dup5\n      dup5\n        /* \"contracts/zombiehelper.sol\":597:604  zombies */\n      0x4\n        /* \"contracts/zombiehelper.sol\":605:614  _zombieId */\n      dup9\n        /* \"contracts/zombiehelper.sol\":597:615  zombies[_zombieId] */\n      dup2\n      sload\n      dup2\n      lt\n      iszero\n      iszero\n      tag_108\n      jumpi\n      invalid\n    tag_108:\n      swap1\n      0x0\n      mstore\n      keccak256(0x0, 0x20)\n      swap1\n      0x3\n      mul\n      add\n        /* \"contracts/zombiehelper.sol\":597:620  zombies[_zombieId].name */\n      0x0\n      add\n        /* \"contracts/zombiehelper.sol\":597:631  zombies[_zombieId].name = _newName */\n      swap2\n      swap1\n      tag_110\n      swap3\n      swap2\n      swap1\n      jump\t// in(tag_111)\n    tag_110:\n      pop\n        /* \"contracts/zombiehelper.sol\":239:240  _ */\n      pop\n        /* \"contracts/zombiehelper.sol\":485:636  function changeName(uint _zombieId, string _newName) external aboveLevel(2, _zombieId) ownerOf(_zombieId) {... */\n      pop\n      pop\n      pop\n      pop\n      pop\n      jump\t// out\n        /* \"contracts/zombiehelper.sol\":331:412  function setLevelUpFee(uint _fee) external onlyOwner {... */\n    tag_53:\n        /* \"contracts/ownable.sol\":651:656  owner */\n      0x0\n      dup1\n      swap1\n      sload\n      swap1\n      0x100\n      exp\n      swap1\n      div\n      0xffffffffffffffffffffffffffffffffffffffff\n      and\n        /* \"contracts/ownable.sol\":637:656  msg.sender == owner */\n      0xffffffffffffffffffffffffffffffffffffffff\n      and\n        /* \"contracts/ownable.sol\":637:647  msg.sender */\n      caller\n        /* \"contracts/ownable.sol\":637:656  msg.sender == owner */\n      0xffffffffffffffffffffffffffffffffffffffff\n      and\n      eq\n        /* \"contracts/ownable.sol\":629:657  require(msg.sender == owner) */\n      iszero\n      iszero\n      tag_113\n      jumpi\n      0x0\n      dup1\n      revert\n    tag_113:\n        /* \"contracts/zombiehelper.sol\":403:407  _fee */\n      dup1\n        /* \"contracts/zombiehelper.sol\":390:400  levelUpFee */\n      0x8\n        /* \"contracts/zombiehelper.sol\":390:407  levelUpFee = _fee */\n      dup2\n      swap1\n      sstore\n      pop\n        /* \"contracts/zombiehelper.sol\":331:412  function setLevelUpFee(uint _fee) external onlyOwner {... */\n      pop\n      jump\t// out\n        /* \"contracts/zombieattack.sol\":307:817  function attack(uint _zombieId, uint _targetId) external ownerOf(_zombieId) {... */\n    tag_56:\n        /* \"contracts/zombieattack.sol\":389:412  Zombie storage myZombie */\n      0x0\n        /* \"contracts/zombieattack.sol\":439:465  Zombie storage enemyZombie */\n      dup1\n        /* \"contracts/zombieattack.sol\":492:501  uint rand */\n      0x0\n        /* \"contracts/zombieattack.sol\":372:381  _zombieId */\n      dup5\n        /* \"contracts/zombiefeeding.sol\":513:526  zombieToOwner */\n      0x5\n        /* \"contracts/zombiefeeding.sol\":513:537  zombieToOwner[_zombieId] */\n      0x0\n        /* \"contracts/zombiefeeding.sol\":527:536  _zombieId */\n      dup3\n        /* \"contracts/zombiefeeding.sol\":513:537  zombieToOwner[_zombieId] */\n      dup2\n      mstore\n      0x20\n      add\n      swap1\n      dup2\n      mstore\n      0x20\n      add\n      0x0\n      keccak256\n      0x0\n      swap1\n      sload\n      swap1\n      0x100\n      exp\n      swap1\n      div\n      0xffffffffffffffffffffffffffffffffffffffff\n      and\n        /* \"contracts/zombiefeeding.sol\":499:537  msg.sender == zombieToOwner[_zombieId] */\n      0xffffffffffffffffffffffffffffffffffffffff\n      and\n        /* \"contracts/zombiefeeding.sol\":499:509  msg.sender */\n      caller\n        /* \"contracts/zombiefeeding.sol\":499:537  msg.sender == zombieToOwner[_zombieId] */\n      0xffffffffffffffffffffffffffffffffffffffff\n      and\n      eq\n        /* \"contracts/zombiefeeding.sol\":491:538  require(msg.sender == zombieToOwner[_zombieId]) */\n      iszero\n      iszero\n      tag_116\n      jumpi\n      0x0\n      dup1\n      revert\n    tag_116:\n        /* \"contracts/zombieattack.sol\":415:422  zombies */\n      0x4\n        /* \"contracts/zombieattack.sol\":423:432  _zombieId */\n      dup7\n        /* \"contracts/zombieattack.sol\":415:433  zombies[_zombieId] */\n      dup2\n      sload\n      dup2\n      lt\n      iszero\n      iszero\n      tag_118\n      jumpi\n      invalid\n    tag_118:\n      swap1\n      0x0\n      mstore\n      keccak256(0x0, 0x20)\n      swap1\n      0x3\n      mul\n      add\n        /* \"contracts/zombieattack.sol\":389:433  Zombie storage myZombie = zombies[_zombieId] */\n      swap4\n      pop\n        /* \"contracts/zombieattack.sol\":468:475  zombies */\n      0x4\n        /* \"contracts/zombieattack.sol\":476:485  _targetId */\n      dup6\n        /* \"contracts/zombieattack.sol\":468:486  zombies[_targetId] */\n      dup2\n      sload\n      dup2\n      lt\n      iszero\n      iszero\n      tag_120\n      jumpi\n      invalid\n    tag_120:\n      swap1\n      0x0\n      mstore\n      keccak256(0x0, 0x20)\n      swap1\n      0x3\n      mul\n      add\n        /* \"contracts/zombieattack.sol\":439:486  Zombie storage enemyZombie = zombies[_targetId] */\n      swap3\n      pop\n        /* \"contracts/zombieattack.sol\":504:516  randMod(100) */\n      tag_122\n        /* \"contracts/zombieattack.sol\":512:515  100 */\n      0x64\n        /* \"contracts/zombieattack.sol\":504:511  randMod */\n      tag_123\n        /* \"contracts/zombieattack.sol\":504:516  randMod(100) */\n      jump\t// in\n    tag_122:\n        /* \"contracts/zombieattack.sol\":492:516  uint rand = randMod(100) */\n      swap2\n      pop\n        /* \"contracts/zombieattack.sol\":534:558  attackVictoryProbability */\n      sload(0xa)\n        /* \"contracts/zombieattack.sol\":526:530  rand */\n      dup3\n        /* \"contracts/zombieattack.sol\":526:558  rand <= attackVictoryProbability */\n      gt\n      iszero\n        /* \"contracts/zombieattack.sol\":522:781  if (rand <= attackVictoryProbability) {... */\n      iszero\n      tag_124\n      jumpi\n        /* \"contracts/zombieattack.sol\":568:576  myZombie */\n      dup4\n        /* \"contracts/zombieattack.sol\":568:585  myZombie.winCount */\n      0x2\n      add\n      0x8\n        /* \"contracts/zombieattack.sol\":568:587  myZombie.winCount++ */\n      dup2\n      dup2\n      swap1\n      sload\n      swap1\n      0x100\n      exp\n      swap1\n      div\n      0xffff\n      and\n      dup1\n      swap3\n      swap2\n      swap1\n      0x1\n      add\n      swap2\n      swap1\n      0x100\n      exp\n      dup2\n      sload\n      dup2\n      0xffff\n      mul\n      not\n      and\n      swap1\n      dup4\n      0xffff\n      and\n      mul\n      or\n      swap1\n      sstore\n      pop\n      pop\n        /* \"contracts/zombieattack.sol\":595:603  myZombie */\n      dup4\n        /* \"contracts/zombieattack.sol\":595:609  myZombie.level */\n      0x2\n      add\n      0x0\n        /* \"contracts/zombieattack.sol\":595:611  myZombie.level++ */\n      dup2\n      dup2\n      swap1\n      sload\n      swap1\n      0x100\n      exp\n      swap1\n      div\n      0xffffffff\n      and\n      dup1\n      swap3\n      swap2\n      swap1\n      0x1\n      add\n      swap2\n      swap1\n      0x100\n      exp\n      dup2\n      sload\n      dup2\n      0xffffffff\n      mul\n      not\n      and\n      swap1\n      dup4\n      0xffffffff\n      and\n      mul\n      or\n      swap1\n      sstore\n      pop\n      pop\n        /* \"contracts/zombieattack.sol\":619:630  enemyZombie */\n      dup3\n        /* \"contracts/zombieattack.sol\":619:640  enemyZombie.lossCount */\n      0x2\n      add\n      0xa\n        /* \"contracts/zombieattack.sol\":619:642  enemyZombie.lossCount++ */\n      dup2\n      dup2\n      swap1\n      sload\n      swap1\n      0x100\n      exp\n      swap1\n      div\n      0xffff\n      and\n      dup1\n      swap3\n      swap2\n      swap1\n      0x1\n      add\n      swap2\n      swap1\n      0x100\n      exp\n      dup2\n      sload\n      dup2\n      0xffff\n      mul\n      not\n      and\n      swap1\n      dup4\n      0xffff\n      and\n      mul\n      or\n      swap1\n      sstore\n      pop\n      pop\n        /* \"contracts/zombieattack.sol\":650:703  feedAndMultiply(_zombieId, enemyZombie.dna, \"zombie\") */\n      tag_125\n        /* \"contracts/zombieattack.sol\":666:675  _zombieId */\n      dup7\n        /* \"contracts/zombieattack.sol\":677:688  enemyZombie */\n      dup5\n        /* \"contracts/zombieattack.sol\":677:692  enemyZombie.dna */\n      0x1\n      add\n      sload\n        /* \"contracts/zombieattack.sol\":650:703  feedAndMultiply(_zombieId, enemyZombie.dna, \"zombie\") */\n      0x40\n      dup1\n      mload\n      swap1\n      dup2\n      add\n      0x40\n      mstore\n      dup1\n      0x6\n      dup2\n      mstore\n      0x20\n      add\n      0x7a6f6d6269650000000000000000000000000000000000000000000000000000\n      dup2\n      mstore\n      pop\n        /* \"contracts/zombieattack.sol\":650:665  feedAndMultiply */\n      tag_64\n        /* \"contracts/zombieattack.sol\":650:703  feedAndMultiply(_zombieId, enemyZombie.dna, \"zombie\") */\n      jump\t// in\n    tag_125:\n        /* \"contracts/zombieattack.sol\":522:781  if (rand <= attackVictoryProbability) {... */\n      jump(tag_126)\n    tag_124:\n        /* \"contracts/zombieattack.sol\":724:732  myZombie */\n      dup4\n        /* \"contracts/zombieattack.sol\":724:742  myZombie.lossCount */\n      0x2\n      add\n      0xa\n        /* \"contracts/zombieattack.sol\":724:744  myZombie.lossCount++ */\n      dup2\n      dup2\n      swap1\n      sload\n      swap1\n      0x100\n      exp\n      swap1\n      div\n      0xffff\n      and\n      dup1\n      swap3\n      swap2\n      swap1\n      0x1\n      add\n      swap2\n      swap1\n      0x100\n      exp\n      dup2\n      sload\n      dup2\n      0xffff\n      mul\n      not\n      and\n      swap1\n      dup4\n      0xffff\n      and\n      mul\n      or\n      swap1\n      sstore\n      pop\n      pop\n        /* \"contracts/zombieattack.sol\":752:763  enemyZombie */\n      dup3\n        /* \"contracts/zombieattack.sol\":752:772  enemyZombie.winCount */\n      0x2\n      add\n      0x8\n        /* \"contracts/zombieattack.sol\":752:774  enemyZombie.winCount++ */\n      dup2\n      dup2\n      swap1\n      sload\n      swap1\n      0x100\n      exp\n      swap1\n      div\n      0xffff\n      and\n      dup1\n      swap3\n      swap2\n      swap1\n      0x1\n      add\n      swap2\n      swap1\n      0x100\n      exp\n      dup2\n      sload\n      dup2\n      0xffff\n      mul\n      not\n      and\n      swap1\n      dup4\n      0xffff\n      and\n      mul\n      or\n      swap1\n      sstore\n      pop\n      pop\n        /* \"contracts/zombieattack.sol\":522:781  if (rand <= attackVictoryProbability) {... */\n    tag_126:\n        /* \"contracts/zombieattack.sol\":786:812  _triggerCooldown(myZombie) */\n      tag_127\n        /* \"contracts/zombieattack.sol\":803:811  myZombie */\n      dup5\n        /* \"contracts/zombieattack.sol\":786:802  _triggerCooldown */\n      tag_128\n        /* \"contracts/zombieattack.sol\":786:812  _triggerCooldown(myZombie) */\n      jump\t// in\n    tag_127:\n        /* \"contracts/zombieattack.sol\":307:817  function attack(uint _zombieId, uint _targetId) external ownerOf(_zombieId) {... */\n      pop\n      pop\n      pop\n      pop\n      pop\n      pop\n      jump\t// out\n        /* \"contracts/ownable.sol\":831:1000  function transferOwnership(address newOwner) public onlyOwner {... */\n    tag_59:\n        /* \"contracts/ownable.sol\":651:656  owner */\n      0x0\n      dup1\n      swap1\n      sload\n      swap1\n      0x100\n      exp\n      swap1\n      div\n      0xffffffffffffffffffffffffffffffffffffffff\n      and\n        /* \"contracts/ownable.sol\":637:656  msg.sender == owner */\n      0xffffffffffffffffffffffffffffffffffffffff\n      and\n        /* \"contracts/ownable.sol\":637:647  msg.sender */\n      caller\n        /* \"contracts/ownable.sol\":637:656  msg.sender == owner */\n      0xffffffffffffffffffffffffffffffffffffffff\n      and\n      eq\n        /* \"contracts/ownable.sol\":629:657  require(msg.sender == owner) */\n      iszero\n      iszero\n      tag_130\n      jumpi\n      0x0\n      dup1\n      revert\n    tag_130:\n        /* \"contracts/ownable.sol\":927:928  0 */\n      0x0\n        /* \"contracts/ownable.sol\":907:929  newOwner != address(0) */\n      0xffffffffffffffffffffffffffffffffffffffff\n      and\n        /* \"contracts/ownable.sol\":907:915  newOwner */\n      dup2\n        /* \"contracts/ownable.sol\":907:929  newOwner != address(0) */\n      0xffffffffffffffffffffffffffffffffffffffff\n      and\n      eq\n      iszero\n        /* \"contracts/ownable.sol\":899:930  require(newOwner != address(0)) */\n      iszero\n      iszero\n      tag_132\n      jumpi\n      0x0\n      dup1\n      revert\n    tag_132:\n        /* \"contracts/ownable.sol\":964:972  newOwner */\n      dup1\n        /* \"contracts/ownable.sol\":936:973  OwnershipTransferred(owner, newOwner) */\n      0xffffffffffffffffffffffffffffffffffffffff\n      and\n        /* \"contracts/ownable.sol\":957:962  owner */\n      0x0\n      dup1\n      swap1\n      sload\n      swap1\n      0x100\n      exp\n      swap1\n      div\n      0xffffffffffffffffffffffffffffffffffffffff\n      and\n        /* \"contracts/ownable.sol\":936:973  OwnershipTransferred(owner, newOwner) */\n      0xffffffffffffffffffffffffffffffffffffffff\n      and\n      0x8be0079c531659141344cd1fd0a4f28419497f9722a3daafe3b4186f6b6457e0\n      mload(0x40)\n      mload(0x40)\n      dup1\n      swap2\n      sub\n      swap1\n      log3\n        /* \"contracts/ownable.sol\":987:995  newOwner */\n      dup1\n        /* \"contracts/ownable.sol\":979:984  owner */\n      0x0\n      dup1\n        /* \"contracts/ownable.sol\":979:995  owner = newOwner */\n      0x100\n      exp\n      dup2\n      sload\n      dup2\n      0xffffffffffffffffffffffffffffffffffffffff\n      mul\n      not\n      and\n      swap1\n      dup4\n      0xffffffffffffffffffffffffffffffffffffffff\n      and\n      mul\n      or\n      swap1\n      sstore\n      pop\n        /* \"contracts/ownable.sol\":831:1000  function transferOwnership(address newOwner) public onlyOwner {... */\n      pop\n      jump\t// out\n        /* \"contracts/zombiefeeding.sol\":920:1375  function feedAndMultiply(uint _zombieId, uint _targetDna, string _species) internal ownerOf(_zombieId) {... */\n    tag_64:\n        /* \"contracts/zombiefeeding.sol\":1029:1052  Zombie storage myZombie */\n      0x0\n        /* \"contracts/zombiefeeding.sol\":1154:1165  uint newDna */\n      dup1\n        /* \"contracts/zombiefeeding.sol\":1012:1021  _zombieId */\n      dup5\n        /* \"contracts/zombiefeeding.sol\":513:526  zombieToOwner */\n      0x5\n        /* \"contracts/zombiefeeding.sol\":513:537  zombieToOwner[_zombieId] */\n      0x0\n        /* \"contracts/zombiefeeding.sol\":527:536  _zombieId */\n      dup3\n        /* \"contracts/zombiefeeding.sol\":513:537  zombieToOwner[_zombieId] */\n      dup2\n      mstore\n      0x20\n      add\n      swap1\n      dup2\n      mstore\n      0x20\n      add\n      0x0\n      keccak256\n      0x0\n      swap1\n      sload\n      swap1\n      0x100\n      exp\n      swap1\n      div\n      0xffffffffffffffffffffffffffffffffffffffff\n      and\n        /* \"contracts/zombiefeeding.sol\":499:537  msg.sender == zombieToOwner[_zombieId] */\n      0xffffffffffffffffffffffffffffffffffffffff\n      and\n        /* \"contracts/zombiefeeding.sol\":499:509  msg.sender */\n      caller\n        /* \"contracts/zombiefeeding.sol\":499:537  msg.sender == zombieToOwner[_zombieId] */\n      0xffffffffffffffffffffffffffffffffffffffff\n      and\n      eq\n        /* \"contracts/zombiefeeding.sol\":491:538  require(msg.sender == zombieToOwner[_zombieId]) */\n      iszero\n      iszero\n      tag_134\n      jumpi\n      0x0\n      dup1\n      revert\n    tag_134:\n        /* \"contracts/zombiefeeding.sol\":1055:1062  zombies */\n      0x4\n        /* \"contracts/zombiefeeding.sol\":1063:1072  _zombieId */\n      dup7\n        /* \"contracts/zombiefeeding.sol\":1055:1073  zombies[_zombieId] */\n      dup2\n      sload\n      dup2\n      lt\n      iszero\n      iszero\n      tag_136\n      jumpi\n      invalid\n    tag_136:\n      swap1\n      0x0\n      mstore\n      keccak256(0x0, 0x20)\n      swap1\n      0x3\n      mul\n      add\n        /* \"contracts/zombiefeeding.sol\":1029:1073  Zombie storage myZombie = zombies[_zombieId] */\n      swap3\n      pop\n        /* \"contracts/zombiefeeding.sol\":1087:1105  _isReady(myZombie) */\n      tag_138\n        /* \"contracts/zombiefeeding.sol\":1096:1104  myZombie */\n      dup4\n        /* \"contracts/zombiefeeding.sol\":1087:1095  _isReady */\n      tag_139\n        /* \"contracts/zombiefeeding.sol\":1087:1105  _isReady(myZombie) */\n      jump\t// in\n    tag_138:\n        /* \"contracts/zombiefeeding.sol\":1079:1106  require(_isReady(myZombie)) */\n      iszero\n      iszero\n      tag_140\n      jumpi\n      0x0\n      dup1\n      revert\n    tag_140:\n        /* \"contracts/zombiefeeding.sol\":1138:1148  dnaModulus */\n      sload(0x2)\n        /* \"contracts/zombiefeeding.sol\":1125:1135  _targetDna */\n      dup6\n        /* \"contracts/zombiefeeding.sol\":1125:1148  _targetDna % dnaModulus */\n      dup2\n      iszero\n      iszero\n      tag_141\n      jumpi\n      invalid\n    tag_141:\n      mod\n        /* \"contracts/zombiefeeding.sol\":1112:1148  _targetDna = _targetDna % dnaModulus */\n      swap5\n      pop\n        /* \"contracts/zombiefeeding.sol\":1198:1199  2 */\n      0x2\n        /* \"contracts/zombiefeeding.sol\":1184:1194  _targetDna */\n      dup6\n        /* \"contracts/zombiefeeding.sol\":1169:1177  myZombie */\n      dup5\n        /* \"contracts/zombiefeeding.sol\":1169:1181  myZombie.dna */\n      0x1\n      add\n      sload\n        /* \"contracts/zombiefeeding.sol\":1169:1194  myZombie.dna + _targetDna */\n      add\n        /* \"contracts/zombiefeeding.sol\":1168:1199  (myZombie.dna + _targetDna) / 2 */\n      dup2\n      iszero\n      iszero\n      tag_142\n      jumpi\n      invalid\n    tag_142:\n      div\n        /* \"contracts/zombiefeeding.sol\":1154:1199  uint newDna = (myZombie.dna + _targetDna) / 2 */\n      swap2\n      pop\n        /* \"contracts/zombiefeeding.sol\":1232:1250  keccak256(\"kitty\") */\n      mload(0x40)\n      dup1\n      dup1\n      0x6b69747479000000000000000000000000000000000000000000000000000000\n      dup2\n      mstore\n      pop\n      0x5\n      add\n      swap1\n      pop\n      mload(0x40)\n      dup1\n      swap2\n      sub\n      swap1\n      keccak256\n        /* \"contracts/zombiefeeding.sol\":1209:1250  keccak256(_species) == keccak256(\"kitty\") */\n      not(0x0)\n      and\n        /* \"contracts/zombiefeeding.sol\":1219:1227  _species */\n      dup5\n        /* \"contracts/zombiefeeding.sol\":1209:1228  keccak256(_species) */\n      mload(0x40)\n      dup1\n      dup3\n      dup1\n      mload\n      swap1\n      0x20\n      add\n      swap1\n      dup1\n      dup4\n      dup4\n        /* \"--CODEGEN--\":36:189   */\n    tag_143:\n        /* \"--CODEGEN--\":66:68   */\n      0x20\n        /* \"--CODEGEN--\":61:64   */\n      dup4\n        /* \"--CODEGEN--\":58:60   */\n      lt\n        /* \"--CODEGEN--\":51:57   */\n      iszero\n        /* \"--CODEGEN--\":36:189   */\n      iszero\n      tag_144\n      jumpi\n        /* \"--CODEGEN--\":182:185   */\n      dup1\n        /* \"--CODEGEN--\":176:181   */\n      mload\n        /* \"--CODEGEN--\":171:174   */\n      dup3\n        /* \"--CODEGEN--\":164:170   */\n      mstore\n        /* \"--CODEGEN--\":98:100   */\n      0x20\n        /* \"--CODEGEN--\":93:96   */\n      dup3\n        /* \"--CODEGEN--\":89:92   */\n      add\n        /* \"--CODEGEN--\":82:101   */\n      swap2\n      pop\n        /* \"--CODEGEN--\":123:125   */\n      0x20\n        /* \"--CODEGEN--\":118:121   */\n      dup2\n        /* \"--CODEGEN--\":114:117   */\n      add\n        /* \"--CODEGEN--\":107:126   */\n      swap1\n      pop\n        /* \"--CODEGEN--\":148:150   */\n      0x20\n        /* \"--CODEGEN--\":143:146   */\n      dup4\n        /* \"--CODEGEN--\":139:142   */\n      sub\n        /* \"--CODEGEN--\":132:151   */\n      swap3\n      pop\n        /* \"--CODEGEN--\":36:189   */\n      jump(tag_143)\n    tag_144:\n        /* \"--CODEGEN--\":274:275   */\n      0x1\n        /* \"--CODEGEN--\":267:270   */\n      dup4\n        /* \"--CODEGEN--\":263:265   */\n      0x20\n        /* \"--CODEGEN--\":259:262   */\n      sub\n        /* \"--CODEGEN--\":254:257   */\n      0x100\n        /* \"--CODEGEN--\":250:253   */\n      exp\n        /* \"--CODEGEN--\":246:249   */\n      sub\n        /* \"--CODEGEN--\":315:319   */\n      dup1\n        /* \"--CODEGEN--\":311:314   */\n      not\n        /* \"--CODEGEN--\":305:308   */\n      dup3\n        /* \"--CODEGEN--\":299:304   */\n      mload\n        /* \"--CODEGEN--\":295:298   */\n      and\n        /* \"--CODEGEN--\":356:360   */\n      dup2\n        /* \"--CODEGEN--\":350:353   */\n      dup5\n        /* \"--CODEGEN--\":344:349   */\n      mload\n        /* \"--CODEGEN--\":340:343   */\n      and\n        /* \"--CODEGEN--\":389:396   */\n      dup1\n        /* \"--CODEGEN--\":380:387   */\n      dup3\n        /* \"--CODEGEN--\":377:379   */\n      or\n        /* \"--CODEGEN--\":372:375   */\n      dup6\n        /* \"--CODEGEN--\":365:371   */\n      mstore\n        /* \"--CODEGEN--\":3:402   */\n      pop\n      pop\n      pop\n      pop\n      pop\n      pop\n      swap1\n      pop\n      add\n      swap2\n      pop\n      pop\n      mload(0x40)\n      dup1\n      swap2\n      sub\n      swap1\n      keccak256\n        /* \"contracts/zombiefeeding.sol\":1209:1250  keccak256(_species) == keccak256(\"kitty\") */\n      not(0x0)\n      and\n      eq\n        /* \"contracts/zombiefeeding.sol\":1205:1302  if (keccak256(_species) == keccak256(\"kitty\")) {... */\n      iszero\n      tag_146\n      jumpi\n        /* \"contracts/zombiefeeding.sol\":1293:1295  99 */\n      0x63\n        /* \"contracts/zombiefeeding.sol\":1287:1290  100 */\n      0x64\n        /* \"contracts/zombiefeeding.sol\":1278:1284  newDna */\n      dup4\n        /* \"contracts/zombiefeeding.sol\":1278:1290  newDna % 100 */\n      dup2\n      iszero\n      iszero\n      tag_147\n      jumpi\n      invalid\n    tag_147:\n      mod\n        /* \"contracts/zombiefeeding.sol\":1269:1275  newDna */\n      dup4\n        /* \"contracts/zombiefeeding.sol\":1269:1290  newDna - newDna % 100 */\n      sub\n        /* \"contracts/zombiefeeding.sol\":1269:1295  newDna - newDna % 100 + 99 */\n      add\n        /* \"contracts/zombiefeeding.sol\":1260:1295  newDna = newDna - newDna % 100 + 99 */\n      swap2\n      pop\n        /* \"contracts/zombiefeeding.sol\":1205:1302  if (keccak256(_species) == keccak256(\"kitty\")) {... */\n    tag_146:\n        /* \"contracts/zombiefeeding.sol\":1307:1338  _createZombie(\"NoName\", newDna) */\n      tag_148\n      0x40\n      dup1\n      mload\n      swap1\n      dup2\n      add\n      0x40\n      mstore\n      dup1\n      0x6\n      dup2\n      mstore\n      0x20\n      add\n      0x4e6f4e616d650000000000000000000000000000000000000000000000000000\n      dup2\n      mstore\n      pop\n        /* \"contracts/zombiefeeding.sol\":1331:1337  newDna */\n      dup4\n        /* \"contracts/zombiefeeding.sol\":1307:1320  _createZombie */\n      tag_100\n        /* \"contracts/zombiefeeding.sol\":1307:1338  _createZombie(\"NoName\", newDna) */\n      jump\t// in\n    tag_148:\n        /* \"contracts/zombiefeeding.sol\":1344:1370  _triggerCooldown(myZombie) */\n      tag_149\n        /* \"contracts/zombiefeeding.sol\":1361:1369  myZombie */\n      dup4\n        /* \"contracts/zombiefeeding.sol\":1344:1360  _triggerCooldown */\n      tag_128\n        /* \"contracts/zombiefeeding.sol\":1344:1370  _triggerCooldown(myZombie) */\n      jump\t// in\n    tag_149:\n        /* \"contracts/zombiefeeding.sol\":920:1375  function feedAndMultiply(uint _zombieId, uint _targetDna, string _species) internal ownerOf(_zombieId) {... */\n      pop\n      pop\n      pop\n      pop\n      pop\n      pop\n      jump\t// out\n        /* \"contracts/zombiefactory.sol\":813:966  function _generateRandomDna(string _str) private view returns (uint) {... */\n    tag_97:\n        /* \"contracts/zombiefactory.sol\":876:880  uint */\n      0x0\n        /* \"contracts/zombiefactory.sol\":892:901  uint rand */\n      dup1\n        /* \"contracts/zombiefactory.sol\":919:923  _str */\n      dup3\n        /* \"contracts/zombiefactory.sol\":909:924  keccak256(_str) */\n      mload(0x40)\n      dup1\n      dup3\n      dup1\n      mload\n      swap1\n      0x20\n      add\n      swap1\n      dup1\n      dup4\n      dup4\n        /* \"--CODEGEN--\":36:189   */\n    tag_151:\n        /* \"--CODEGEN--\":66:68   */\n      0x20\n        /* \"--CODEGEN--\":61:64   */\n      dup4\n        /* \"--CODEGEN--\":58:60   */\n      lt\n        /* \"--CODEGEN--\":51:57   */\n      iszero\n        /* \"--CODEGEN--\":36:189   */\n      iszero\n      tag_152\n      jumpi\n        /* \"--CODEGEN--\":182:185   */\n      dup1\n        /* \"--CODEGEN--\":176:181   */\n      mload\n        /* \"--CODEGEN--\":171:174   */\n      dup3\n        /* \"--CODEGEN--\":164:170   */\n      mstore\n        /* \"--CODEGEN--\":98:100   */\n      0x20\n        /* \"--CODEGEN--\":93:96   */\n      dup3\n        /* \"--CODEGEN--\":89:92   */\n      add\n        /* \"--CODEGEN--\":82:101   */\n      swap2\n      pop\n        /* \"--CODEGEN--\":123:125   */\n      0x20\n        /* \"--CODEGEN--\":118:121   */\n      dup2\n        /* \"--CODEGEN--\":114:117   */\n      add\n        /* \"--CODEGEN--\":107:126   */\n      swap1\n      pop\n        /* \"--CODEGEN--\":148:150   */\n      0x20\n        /* \"--CODEGEN--\":143:146   */\n      dup4\n        /* \"--CODEGEN--\":139:142   */\n      sub\n        /* \"--CODEGEN--\":132:151   */\n      swap3\n      pop\n        /* \"--CODEGEN--\":36:189   */\n      jump(tag_151)\n    tag_152:\n        /* \"--CODEGEN--\":274:275   */\n      0x1\n        /* \"--CODEGEN--\":267:270   */\n      dup4\n        /* \"--CODEGEN--\":263:265   */\n      0x20\n        /* \"--CODEGEN--\":259:262   */\n      sub\n        /* \"--CODEGEN--\":254:257   */\n      0x100\n        /* \"--CODEGEN--\":250:253   */\n      exp\n        /* \"--CODEGEN--\":246:249   */\n      sub\n        /* \"--CODEGEN--\":315:319   */\n      dup1\n        /* \"--CODEGEN--\":311:314   */\n      not\n        /* \"--CODEGEN--\":305:308   */\n      dup3\n        /* \"--CODEGEN--\":299:304   */\n      mload\n        /* \"--CODEGEN--\":295:298   */\n      and\n        /* \"--CODEGEN--\":356:360   */\n      dup2\n        /* \"--CODEGEN--\":350:353   */\n      dup5\n        /* \"--CODEGEN--\":344:349   */\n      mload\n        /* \"--CODEGEN--\":340:343   */\n      and\n        /* \"--CODEGEN--\":389:396   */\n      dup1\n        /* \"--CODEGEN--\":380:387   */\n      dup3\n        /* \"--CODEGEN--\":377:379   */\n      or\n        /* \"--CODEGEN--\":372:375   */\n      dup6\n        /* \"--CODEGEN--\":365:371   */\n      mstore\n        /* \"--CODEGEN--\":3:402   */\n      pop\n      pop\n      pop\n      pop\n      pop\n      pop\n      swap1\n      pop\n      add\n      swap2\n      pop\n      pop\n      mload(0x40)\n      dup1\n      swap2\n      sub\n      swap1\n      keccak256\n        /* \"contracts/zombiefactory.sol\":904:925  uint(keccak256(_str)) */\n      0x1\n      swap1\n      div\n        /* \"contracts/zombiefactory.sol\":892:925  uint rand = uint(keccak256(_str)) */\n      swap1\n      pop\n        /* \"contracts/zombiefactory.sol\":949:959  dnaModulus */\n      sload(0x2)\n        /* \"contracts/zombiefactory.sol\":942:946  rand */\n      dup2\n        /* \"contracts/zombiefactory.sol\":942:959  rand % dnaModulus */\n      dup2\n      iszero\n      iszero\n      tag_154\n      jumpi\n      invalid\n    tag_154:\n      mod\n        /* \"contracts/zombiefactory.sol\":935:959  return rand % dnaModulus */\n      swap2\n      pop\n        /* \"contracts/zombiefactory.sol\":813:966  function _generateRandomDna(string _str) private view returns (uint) {... */\n      pop\n      swap2\n      swap1\n      pop\n      jump\t// out\n        /* \"contracts/zombiefactory.sol\":533:807  function _createZombie(string _name, uint _dna) internal {... */\n    tag_100:\n        /* \"contracts/zombiefactory.sol\":600:607  uint id */\n      0x0\n        /* \"contracts/zombiefactory.sol\":683:684  1 */\n      0x1\n        /* \"contracts/zombiefactory.sol\":610:617  zombies */\n      0x4\n        /* \"contracts/zombiefactory.sol\":610:680  zombies.push(Zombie(_name, _dna, 1, uint32(now + cooldownTime), 0, 0)) */\n      dup1\n      sload\n      dup1\n      0x1\n      add\n      dup3\n      dup2\n      tag_156\n      swap2\n      swap1\n      jump\t// in(tag_157)\n    tag_156:\n      swap2\n      0x0\n      mstore\n      keccak256(0x0, 0x20)\n      swap1\n      0x3\n      mul\n      add\n      0x0\n        /* \"contracts/zombiefactory.sol\":623:679  Zombie(_name, _dna, 1, uint32(now + cooldownTime), 0, 0) */\n      0xc0\n      mload(0x40)\n      swap1\n      dup2\n      add\n      0x40\n      mstore\n      dup1\n        /* \"contracts/zombiefactory.sol\":630:635  _name */\n      dup9\n        /* \"contracts/zombiefactory.sol\":623:679  Zombie(_name, _dna, 1, uint32(now + cooldownTime), 0, 0) */\n      dup2\n      mstore\n      0x20\n      add\n        /* \"contracts/zombiefactory.sol\":637:641  _dna */\n      dup8\n        /* \"contracts/zombiefactory.sol\":623:679  Zombie(_name, _dna, 1, uint32(now + cooldownTime), 0, 0) */\n      dup2\n      mstore\n      0x20\n      add\n        /* \"contracts/zombiefactory.sol\":643:644  1 */\n      0x1\n        /* \"contracts/zombiefactory.sol\":623:679  Zombie(_name, _dna, 1, uint32(now + cooldownTime), 0, 0) */\n      0xffffffff\n      and\n      dup2\n      mstore\n      0x20\n      add\n        /* \"contracts/zombiefactory.sol\":659:671  cooldownTime */\n      sload(0x3)\n        /* \"contracts/zombiefactory.sol\":653:656  now */\n      timestamp\n        /* \"contracts/zombiefactory.sol\":653:671  now + cooldownTime */\n      add\n        /* \"contracts/zombiefactory.sol\":623:679  Zombie(_name, _dna, 1, uint32(now + cooldownTime), 0, 0) */\n      0xffffffff\n      and\n      dup2\n      mstore\n      0x20\n      add\n        /* \"contracts/zombiefactory.sol\":674:675  0 */\n      0x0\n        /* \"contracts/zombiefactory.sol\":623:679  Zombie(_name, _dna, 1, uint32(now + cooldownTime), 0, 0) */\n      0xffff\n      and\n      dup2\n      mstore\n      0x20\n      add\n        /* \"contracts/zombiefactory.sol\":677:678  0 */\n      0x0\n        /* \"contracts/zombiefactory.sol\":623:679  Zombie(_name, _dna, 1, uint32(now + cooldownTime), 0, 0) */\n      0xffff\n      and\n      dup2\n      mstore\n      pop\n        /* \"contracts/zombiefactory.sol\":610:680  zombies.push(Zombie(_name, _dna, 1, uint32(now + cooldownTime), 0, 0)) */\n      swap1\n      swap2\n      swap1\n      swap2\n      pop\n      0x0\n      dup3\n      add\n      mload\n      dup2\n      0x0\n      add\n      swap1\n      dup1\n      mload\n      swap1\n      0x20\n      add\n      swap1\n      tag_159\n      swap3\n      swap2\n      swap1\n      jump\t// in(tag_160)\n    tag_159:\n      pop\n      0x20\n      dup3\n      add\n      mload\n      dup2\n      0x1\n      add\n      sstore\n      0x40\n      dup3\n      add\n      mload\n      dup2\n      0x2\n      add\n      exp(0x100, 0x0)\n      dup2\n      sload\n      dup2\n      0xffffffff\n      mul\n      not\n      and\n      swap1\n      dup4\n      0xffffffff\n      and\n      mul\n      or\n      swap1\n      sstore\n      pop\n      0x60\n      dup3\n      add\n      mload\n      dup2\n      0x2\n      add\n      exp(0x100, 0x4)\n      dup2\n      sload\n      dup2\n      0xffffffff\n      mul\n      not\n      and\n      swap1\n      dup4\n      0xffffffff\n      and\n      mul\n      or\n      swap1\n      sstore\n      pop\n      0x80\n      dup3\n      add\n      mload\n      dup2\n      0x2\n      add\n      exp(0x100, 0x8)\n      dup2\n      sload\n      dup2\n      0xffff\n      mul\n      not\n      and\n      swap1\n      dup4\n      0xffff\n      and\n      mul\n      or\n      swap1\n      sstore\n      pop\n      0xa0\n      dup3\n      add\n      mload\n      dup2\n      0x2\n      add\n      exp(0x100, 0xa)\n      dup2\n      sload\n      dup2\n      0xffff\n      mul\n      not\n      and\n      swap1\n      dup4\n      0xffff\n      and\n      mul\n      or\n      swap1\n      sstore\n      pop\n      pop\n      pop\n        /* \"contracts/zombiefactory.sol\":610:684  zombies.push(Zombie(_name, _dna, 1, uint32(now + cooldownTime), 0, 0)) - 1 */\n      sub\n        /* \"contracts/zombiefactory.sol\":600:684  uint id = zombies.push(Zombie(_name, _dna, 1, uint32(now + cooldownTime), 0, 0)) - 1 */\n      swap1\n      pop\n        /* \"contracts/zombiefactory.sol\":714:724  msg.sender */\n      caller\n        /* \"contracts/zombiefactory.sol\":694:707  zombieToOwner */\n      0x5\n        /* \"contracts/zombiefactory.sol\":694:711  zombieToOwner[id] */\n      0x0\n        /* \"contracts/zombiefactory.sol\":708:710  id */\n      dup4\n        /* \"contracts/zombiefactory.sol\":694:711  zombieToOwner[id] */\n      dup2\n      mstore\n      0x20\n      add\n      swap1\n      dup2\n      mstore\n      0x20\n      add\n      0x0\n      keccak256\n      0x0\n        /* \"contracts/zombiefactory.sol\":694:724  zombieToOwner[id] = msg.sender */\n      0x100\n      exp\n      dup2\n      sload\n      dup2\n      0xffffffffffffffffffffffffffffffffffffffff\n      mul\n      not\n      and\n      swap1\n      dup4\n      0xffffffffffffffffffffffffffffffffffffffff\n      and\n      mul\n      or\n      swap1\n      sstore\n      pop\n        /* \"contracts/zombiefactory.sol\":734:750  ownerZombieCount */\n      0x6\n        /* \"contracts/zombiefactory.sol\":734:762  ownerZombieCount[msg.sender] */\n      0x0\n        /* \"contracts/zombiefactory.sol\":751:761  msg.sender */\n      caller\n        /* \"contracts/zombiefactory.sol\":734:762  ownerZombieCount[msg.sender] */\n      0xffffffffffffffffffffffffffffffffffffffff\n      and\n      0xffffffffffffffffffffffffffffffffffffffff\n      and\n      dup2\n      mstore\n      0x20\n      add\n      swap1\n      dup2\n      mstore\n      0x20\n      add\n      0x0\n      keccak256\n      0x0\n        /* \"contracts/zombiefactory.sol\":734:764  ownerZombieCount[msg.sender]++ */\n      dup2\n      sload\n      dup1\n      swap3\n      swap2\n      swap1\n      0x1\n      add\n      swap2\n      swap1\n      pop\n      sstore\n      pop\n        /* \"contracts/zombiefactory.sol\":774:800  NewZombie(id, _name, _dna) */\n      0x88f026aacbbecc90c18411df4b1185fd8d9be2470f1962f192bf84a27d0704b7\n        /* \"contracts/zombiefactory.sol\":784:786  id */\n      dup2\n        /* \"contracts/zombiefactory.sol\":788:793  _name */\n      dup5\n        /* \"contracts/zombiefactory.sol\":795:799  _dna */\n      dup5\n        /* \"contracts/zombiefactory.sol\":774:800  NewZombie(id, _name, _dna) */\n      mload(0x40)\n      dup1\n      dup5\n      dup2\n      mstore\n      0x20\n      add\n      dup1\n      0x20\n      add\n      dup4\n      dup2\n      mstore\n      0x20\n      add\n      dup3\n      dup2\n      sub\n      dup3\n      mstore\n      dup5\n      dup2\n      dup2\n      mload\n      dup2\n      mstore\n      0x20\n      add\n      swap2\n      pop\n      dup1\n      mload\n      swap1\n      0x20\n      add\n      swap1\n      dup1\n      dup4\n      dup4\n        /* \"--CODEGEN--\":23:24   */\n      0x0\n        /* \"--CODEGEN--\":8:108   */\n    tag_161:\n        /* \"--CODEGEN--\":33:36   */\n      dup4\n        /* \"--CODEGEN--\":30:31   */\n      dup2\n        /* \"--CODEGEN--\":27:29   */\n      lt\n        /* \"--CODEGEN--\":8:108   */\n      iszero\n      tag_162\n      jumpi\n        /* \"--CODEGEN--\":99:100   */\n      dup1\n        /* \"--CODEGEN--\":94:97   */\n      dup3\n        /* \"--CODEGEN--\":90:93   */\n      add\n        /* \"--CODEGEN--\":84:89   */\n      mload\n        /* \"--CODEGEN--\":80:81   */\n      dup2\n        /* \"--CODEGEN--\":75:78   */\n      dup5\n        /* \"--CODEGEN--\":71:74   */\n      add\n        /* \"--CODEGEN--\":64:70   */\n      mstore\n        /* \"--CODEGEN--\":52:54   */\n      0x20\n        /* \"--CODEGEN--\":49:50   */\n      dup2\n        /* \"--CODEGEN--\":45:48   */\n      add\n        /* \"--CODEGEN--\":40:55   */\n      swap1\n      pop\n        /* \"--CODEGEN--\":8:108   */\n      jump(tag_161)\n    tag_162:\n        /* \"--CODEGEN--\":12:26   */\n      pop\n        /* \"--CODEGEN--\":3:112   */\n      pop\n      pop\n      pop\n      swap1\n      pop\n      swap1\n      dup2\n      add\n      swap1\n      0x1f\n      and\n      dup1\n      iszero\n      tag_164\n      jumpi\n      dup1\n      dup3\n      sub\n      dup1\n      mload\n      0x1\n      dup4\n      0x20\n      sub\n      0x100\n      exp\n      sub\n      not\n      and\n      dup2\n      mstore\n      0x20\n      add\n      swap2\n      pop\n    tag_164:\n      pop\n      swap5\n      pop\n      pop\n      pop\n      pop\n      pop\n      mload(0x40)\n      dup1\n      swap2\n      sub\n      swap1\n      log1\n        /* \"contracts/zombiefactory.sol\":533:807  function _createZombie(string _name, uint _dna) internal {... */\n      pop\n      pop\n      pop\n      jump\t// out\n        /* \"contracts/zombieattack.sol\":159:303  function randMod(uint _modulus) internal returns(uint) {... */\n    tag_123:\n        /* \"contracts/zombieattack.sol\":208:212  uint */\n      0x0\n        /* \"contracts/zombieattack.sol\":220:229  randNonce */\n      0x9\n      0x0\n        /* \"contracts/zombieattack.sol\":220:231  randNonce++ */\n      dup2\n      sload\n      dup1\n      swap3\n      swap2\n      swap1\n      0x1\n      add\n      swap2\n      swap1\n      pop\n      sstore\n      pop\n        /* \"contracts/zombieattack.sol\":290:298  _modulus */\n      dup2\n        /* \"contracts/zombieattack.sol\":259:262  now */\n      timestamp\n        /* \"contracts/zombieattack.sol\":264:274  msg.sender */\n      caller\n        /* \"contracts/zombieattack.sol\":276:285  randNonce */\n      sload(0x9)\n        /* \"contracts/zombieattack.sol\":249:286  keccak256(now, msg.sender, randNonce) */\n      mload(0x40)\n      dup1\n      dup5\n      dup2\n      mstore\n      0x20\n      add\n      dup4\n      0xffffffffffffffffffffffffffffffffffffffff\n      and\n      0xffffffffffffffffffffffffffffffffffffffff\n      and\n      0x1000000000000000000000000\n      mul\n      dup2\n      mstore\n      0x14\n      add\n      dup3\n      dup2\n      mstore\n      0x20\n      add\n      swap4\n      pop\n      pop\n      pop\n      pop\n      mload(0x40)\n      dup1\n      swap2\n      sub\n      swap1\n      keccak256\n        /* \"contracts/zombieattack.sol\":244:287  uint(keccak256(now, msg.sender, randNonce)) */\n      0x1\n      swap1\n      div\n        /* \"contracts/zombieattack.sol\":244:298  uint(keccak256(now, msg.sender, randNonce)) % _modulus */\n      dup2\n      iszero\n      iszero\n      tag_166\n      jumpi\n      invalid\n    tag_166:\n      mod\n        /* \"contracts/zombieattack.sol\":237:298  return uint(keccak256(now, msg.sender, randNonce)) % _modulus */\n      swap1\n      pop\n        /* \"contracts/zombieattack.sol\":159:303  function randMod(uint _modulus) internal returns(uint) {... */\n      swap2\n      swap1\n      pop\n      jump\t// out\n        /* \"contracts/zombiefeeding.sol\":679:795  function _triggerCooldown(Zombie storage _zombie) internal {... */\n    tag_128:\n        /* \"contracts/zombiefeeding.sol\":777:789  cooldownTime */\n      sload(0x3)\n        /* \"contracts/zombiefeeding.sol\":771:774  now */\n      timestamp\n        /* \"contracts/zombiefeeding.sol\":771:789  now + cooldownTime */\n      add\n        /* \"contracts/zombiefeeding.sol\":744:751  _zombie */\n      dup2\n        /* \"contracts/zombiefeeding.sol\":744:761  _zombie.readyTime */\n      0x2\n      add\n      0x4\n        /* \"contracts/zombiefeeding.sol\":744:790  _zombie.readyTime = uint32(now + cooldownTime) */\n      0x100\n      exp\n      dup2\n      sload\n      dup2\n      0xffffffff\n      mul\n      not\n      and\n      swap1\n      dup4\n      0xffffffff\n      and\n      mul\n      or\n      swap1\n      sstore\n      pop\n        /* \"contracts/zombiefeeding.sol\":679:795  function _triggerCooldown(Zombie storage _zombie) internal {... */\n      pop\n      jump\t// out\n        /* \"contracts/zombiefeeding.sol\":799:916  function _isReady(Zombie storage _zombie) internal view returns (bool) {... */\n    tag_139:\n        /* \"contracts/zombiefeeding.sol\":864:868  bool */\n      0x0\n        /* \"contracts/zombiefeeding.sol\":907:910  now */\n      timestamp\n        /* \"contracts/zombiefeeding.sol\":886:893  _zombie */\n      dup3\n        /* \"contracts/zombiefeeding.sol\":886:903  _zombie.readyTime */\n      0x2\n      add\n      0x4\n      swap1\n      sload\n      swap1\n      0x100\n      exp\n      swap1\n      div\n      0xffffffff\n      and\n        /* \"contracts/zombiefeeding.sol\":886:910  _zombie.readyTime <= now */\n      0xffffffff\n      and\n      gt\n      iszero\n        /* \"contracts/zombiefeeding.sol\":878:911  return (_zombie.readyTime <= now) */\n      swap1\n      pop\n        /* \"contracts/zombiefeeding.sol\":799:916  function _isReady(Zombie storage _zombie) internal view returns (bool) {... */\n      swap2\n      swap1\n      pop\n      jump\t// out\n        /* \"contracts/zombieattack.sol\":56:819  contract ZombieBattle is ZombieHelper {... */\n    tag_72:\n      0x20\n      mload(0x40)\n      swap1\n      dup2\n      add\n      0x40\n      mstore\n      dup1\n      0x0\n      dup2\n      mstore\n      pop\n      swap1\n      jump\t// out\n    tag_111:\n      dup3\n      dup1\n      sload\n      0x1\n      dup2\n      0x1\n      and\n      iszero\n      0x100\n      mul\n      sub\n      and\n      0x2\n      swap1\n      div\n      swap1\n      0x0\n      mstore\n      keccak256(0x0, 0x20)\n      swap1\n      0x1f\n      add\n      0x20\n      swap1\n      div\n      dup2\n      add\n      swap3\n      dup3\n      0x1f\n      lt\n      tag_170\n      jumpi\n      dup1\n      calldataload\n      not(0xff)\n      and\n      dup4\n      dup1\n      add\n      or\n      dup6\n      sstore\n      jump(tag_169)\n    tag_170:\n      dup3\n      dup1\n      add\n      0x1\n      add\n      dup6\n      sstore\n      dup3\n      iszero\n      tag_169\n      jumpi\n      swap2\n      dup3\n      add\n    tag_171:\n      dup3\n      dup2\n      gt\n      iszero\n      tag_172\n      jumpi\n      dup3\n      calldataload\n      dup3\n      sstore\n      swap2\n      0x20\n      add\n      swap2\n      swap1\n      0x1\n      add\n      swap1\n      jump(tag_171)\n    tag_172:\n    tag_169:\n      pop\n      swap1\n      pop\n      tag_173\n      swap2\n      swap1\n      jump\t// in(tag_174)\n    tag_173:\n      pop\n      swap1\n      jump\t// out\n    tag_157:\n      dup2\n      sload\n      dup2\n      dup4\n      sstore\n      dup2\n      dup2\n      iszero\n      gt\n      tag_175\n      jumpi\n      0x3\n      mul\n      dup2\n      0x3\n      mul\n      dup4\n      0x0\n      mstore\n      keccak256(0x0, 0x20)\n      swap2\n      dup3\n      add\n      swap2\n      add\n      tag_176\n      swap2\n      swap1\n      jump\t// in(tag_177)\n    tag_176:\n    tag_175:\n      pop\n      pop\n      pop\n      jump\t// out\n    tag_160:\n      dup3\n      dup1\n      sload\n      0x1\n      dup2\n      0x1\n      and\n      iszero\n      0x100\n      mul\n      sub\n      and\n      0x2\n      swap1\n      div\n      swap1\n      0x0\n      mstore\n      keccak256(0x0, 0x20)\n      swap1\n      0x1f\n      add\n      0x20\n      swap1\n      div\n      dup2\n      add\n      swap3\n      dup3\n      0x1f\n      lt\n      tag_179\n      jumpi\n      dup1\n      mload\n      not(0xff)\n      and\n      dup4\n      dup1\n      add\n      or\n      dup6\n      sstore\n      jump(tag_178)\n    tag_179:\n      dup3\n      dup1\n      add\n      0x1\n      add\n      dup6\n      sstore\n      dup3\n      iszero\n      tag_178\n      jumpi\n      swap2\n      dup3\n      add\n    tag_180:\n      dup3\n      dup2\n      gt\n      iszero\n      tag_181\n      jumpi\n      dup3\n      mload\n      dup3\n      sstore\n      swap2\n      0x20\n      add\n      swap2\n      swap1\n      0x1\n      add\n      swap1\n      jump(tag_180)\n    tag_181:\n    tag_178:\n      pop\n      swap1\n      pop\n      tag_182\n      swap2\n      swap1\n      jump\t// in(tag_174)\n    tag_182:\n      pop\n      swap1\n      jump\t// out\n    tag_174:\n      tag_183\n      swap2\n      swap1\n    tag_184:\n      dup1\n      dup3\n      gt\n      iszero\n      tag_185\n      jumpi\n      0x0\n      dup2\n      0x0\n      swap1\n      sstore\n      pop\n      0x1\n      add\n      jump(tag_184)\n    tag_185:\n      pop\n      swap1\n      jump\n    tag_183:\n      swap1\n      jump\t// out\n    tag_177:\n      tag_186\n      swap2\n      swap1\n    tag_187:\n      dup1\n      dup3\n      gt\n      iszero\n      tag_188\n      jumpi\n      0x0\n      dup1\n      dup3\n      add\n      0x0\n      tag_189\n      swap2\n      swap1\n      jump\t// in(tag_190)\n    tag_189:\n      0x1\n      dup3\n      add\n      0x0\n      swap1\n      sstore\n      0x2\n      dup3\n      add\n      exp(0x100, 0x0)\n      dup2\n      sload\n      swap1\n      0xffffffff\n      mul\n      not\n      and\n      swap1\n      sstore\n      0x2\n      dup3\n      add\n      exp(0x100, 0x4)\n      dup2\n      sload\n      swap1\n      0xffffffff\n      mul\n      not\n      and\n      swap1\n      sstore\n      0x2\n      dup3\n      add\n      exp(0x100, 0x8)\n      dup2\n      sload\n      swap1\n      0xffff\n      mul\n      not\n      and\n      swap1\n      sstore\n      0x2\n      dup3\n      add\n      exp(0x100, 0xa)\n      dup2\n      sload\n      swap1\n      0xffff\n      mul\n      not\n      and\n      swap1\n      sstore\n      pop\n      0x3\n      add\n      jump(tag_187)\n    tag_188:\n      pop\n      swap1\n      jump\n    tag_186:\n      swap1\n      jump\t// out\n    tag_190:\n      pop\n      dup1\n      sload\n      0x1\n      dup2\n      0x1\n      and\n      iszero\n      0x100\n      mul\n      sub\n      and\n      0x2\n      swap1\n      div\n      0x0\n      dup3\n      sstore\n      dup1\n      0x1f\n      lt\n      tag_192\n      jumpi\n      pop\n      jump(tag_191)\n    tag_192:\n      0x1f\n      add\n      0x20\n      swap1\n      div\n      swap1\n      0x0\n      mstore\n      keccak256(0x0, 0x20)\n      swap1\n      dup2\n      add\n      swap1\n      tag_193\n      swap2\n      swap1\n      jump\t// in(tag_174)\n    tag_193:\n    tag_191:\n      pop\n      jump\t// out\n\n    auxdata: 0xa165627a7a7230582060f59585309b6aca57d0a23f6583bf682dd24f95a1533e7259861fc1cc4b12e60029\n}\n",
				"bytecode": {
					"linkReferences": {},
					"object": "60606040526010600155600154600a0a6002556201518060035566038d7ea4c6800060085560006009556046600a55336000806101000a81548173ffffffffffffffffffffffffffffffffffffffff021916908373ffffffffffffffffffffffffffffffffffffffff16021790555061182d8061007d6000396000f3006060604052600436106100c5576000357c0100000000000000000000000000000000000000000000000000000000900463ffffffff16806317a7f4cc146100ca5780632052465e146100f65780633ccfd60b146101fa5780634412e1041461020f578063528b7b8f1461029d5780635f4623f1146103005780635faf2880146103395780637bff0a01146103655780638da5cb5b146103c2578063c39cbef114610417578063ccf670f81461044e578063e1fa763814610471578063f2fde38b1461049d575b600080fd5b34156100d557600080fd5b6100f460048080359060200190919080359060200190919050506104d6565b005b341561010157600080fd5b6101176004808035906020019091905050610643565b60405180806020018781526020018663ffffffff1663ffffffff1681526020018563ffffffff1663ffffffff1681526020018461ffff1661ffff1681526020018361ffff1661ffff1681526020018281038252888181546001816001161561010002031660029004815260200191508054600181600116156101000203166002900480156101e65780601f106101bb576101008083540402835291602001916101e6565b820191906000526020600020905b8154815290600101906020018083116101c957829003601f168201915b505097505050505050505060405180910390f35b341561020557600080fd5b61020d6106c9565b005b341561021a57600080fd5b610246600480803573ffffffffffffffffffffffffffffffffffffffff1690602001909190505061079e565b6040518080602001828103825283818151815260200191508051906020019060200280838360005b8381101561028957808201518184015260208101905061026e565b505050509050019250505060405180910390f35b34156102a857600080fd5b6102be60048080359060200190919050506108cc565b604051808273ffffffffffffffffffffffffffffffffffffffff1673ffffffffffffffffffffffffffffffffffffffff16815260200191505060405180910390f35b341561030b57600080fd5b610337600480803573ffffffffffffffffffffffffffffffffffffffff169060200190919050506108ff565b005b341561034457600080fd5b610363600480803590602001909190803590602001909190505061099e565b005b341561037057600080fd5b6103c0600480803590602001908201803590602001908080601f01602080910402602001604051908101604052809392919081815260200183838082843782019150505050505091905050610a80565b005b34156103cd57600080fd5b6103d5610af9565b604051808273ffffffffffffffffffffffffffffffffffffffff1673ffffffffffffffffffffffffffffffffffffffff16815260200191505060405180910390f35b341561042257600080fd5b61044c60048080359060200190919080359060200190820180359060200191909192905050610b1e565b005b341561045957600080fd5b61046f6004808035906020019091905050610c0c565b005b341561047c57600080fd5b61049b6004808035906020019091908035906020019091905050610c71565b005b34156104a857600080fd5b6104d4600480803573ffffffffffffffffffffffffffffffffffffffff16906020019091905050610ead565b005b6000600760009054906101000a900473ffffffffffffffffffffffffffffffffffffffff1673ffffffffffffffffffffffffffffffffffffffff1663e98b7f4d83600060405161014001526040518263ffffffff167c01000000000000000000000000000000000000000000000000000000000281526004018082815260200191505061014060405180830381600087803b151561057357600080fd5b6102c65a03f1151561058457600080fd5b505050604051805190602001805190602001805190602001805190602001805190602001805190602001805190602001805190602001805190602001805190509091929394959697985090919293949596975090919293949596509091929394955090919293945090919293509091925090915090508091505061063e83826040805190810160405280600581526020017f6b69747479000000000000000000000000000000000000000000000000000000815250611002565b505050565b60048181548110151561065257fe5b906000526020600020906003020160009150905080600001908060010154908060020160009054906101000a900463ffffffff16908060020160049054906101000a900463ffffffff16908060020160089054906101000a900461ffff169080600201600a9054906101000a900461ffff16905086565b6000809054906101000a900473ffffffffffffffffffffffffffffffffffffffff1673ffffffffffffffffffffffffffffffffffffffff163373ffffffffffffffffffffffffffffffffffffffff1614151561072457600080fd5b6000809054906101000a900473ffffffffffffffffffffffffffffffffffffffff1673ffffffffffffffffffffffffffffffffffffffff166108fc3073ffffffffffffffffffffffffffffffffffffffff16319081150290604051600060405180830381858888f19350505050151561079c57600080fd5b565b6107a66115bf565b6107ae6115bf565b600080600660008673ffffffffffffffffffffffffffffffffffffffff1673ffffffffffffffffffffffffffffffffffffffff168152602001908152602001600020546040518059106107fe5750595b9080825280602002602001820160405250925060009150600090505b6004805490508110156108c1578473ffffffffffffffffffffffffffffffffffffffff166005600083815260200190815260200160002060009054906101000a900473ffffffffffffffffffffffffffffffffffffffff1673ffffffffffffffffffffffffffffffffffffffff1614156108b45780838381518110151561089d57fe5b906020019060200201818152505081806001019250505b808060010191505061081a565b829350505050919050565b60056020528060005260406000206000915054906101000a900473ffffffffffffffffffffffffffffffffffffffff1681565b6000809054906101000a900473ffffffffffffffffffffffffffffffffffffffff1673ffffffffffffffffffffffffffffffffffffffff163373ffffffffffffffffffffffffffffffffffffffff1614151561095a57600080fd5b80600760006101000a81548173ffffffffffffffffffffffffffffffffffffffff021916908373ffffffffffffffffffffffffffffffffffffffff16021790555050565b601482816004828154811015156109b157fe5b906000526020600020906003020160020160009054906101000a900463ffffffff1663ffffffff16101515156109e657600080fd5b836005600082815260200190815260200160002060009054906101000a900473ffffffffffffffffffffffffffffffffffffffff1673ffffffffffffffffffffffffffffffffffffffff163373ffffffffffffffffffffffffffffffffffffffff16141515610a5457600080fd5b83600486815481101515610a6457fe5b9060005260206000209060030201600101819055505050505050565b600080600660003373ffffffffffffffffffffffffffffffffffffffff1673ffffffffffffffffffffffffffffffffffffffff16815260200190815260200160002054141515610acf57600080fd5b610ad8826111d7565b9050606481811515610ae657fe5b0681039050610af58282611259565b5050565b6000809054906101000a900473ffffffffffffffffffffffffffffffffffffffff1681565b60028381600482815481101515610b3157fe5b906000526020600020906003020160020160009054906101000a900463ffffffff1663ffffffff1610151515610b6657600080fd5b846005600082815260200190815260200160002060009054906101000a900473ffffffffffffffffffffffffffffffffffffffff1673ffffffffffffffffffffffffffffffffffffffff163373ffffffffffffffffffffffffffffffffffffffff16141515610bd457600080fd5b8484600488815481101515610be557fe5b90600052602060002090600302016000019190610c039291906115d3565b50505050505050565b6000809054906101000a900473ffffffffffffffffffffffffffffffffffffffff1673ffffffffffffffffffffffffffffffffffffffff163373ffffffffffffffffffffffffffffffffffffffff16141515610c6757600080fd5b8060088190555050565b6000806000846005600082815260200190815260200160002060009054906101000a900473ffffffffffffffffffffffffffffffffffffffff1673ffffffffffffffffffffffffffffffffffffffff163373ffffffffffffffffffffffffffffffffffffffff16141515610ce457600080fd5b600486815481101515610cf357fe5b90600052602060002090600302019350600485815481101515610d1257fe5b90600052602060002090600302019250610d2c60646114e1565b9150600a5482111515610e2d5783600201600881819054906101000a900461ffff168092919060010191906101000a81548161ffff021916908361ffff1602179055505083600201600081819054906101000a900463ffffffff168092919060010191906101000a81548163ffffffff021916908363ffffffff1602179055505082600201600a81819054906101000a900461ffff168092919060010191906101000a81548161ffff021916908361ffff16021790555050610e288684600101546040805190810160405280600681526020017f7a6f6d6269650000000000000000000000000000000000000000000000000000815250611002565b610e9c565b83600201600a81819054906101000a900461ffff168092919060010191906101000a81548161ffff021916908361ffff1602179055505082600201600881819054906101000a900461ffff168092919060010191906101000a81548161ffff021916908361ffff160217905550505b610ea58461156e565b505050505050565b6000809054906101000a900473ffffffffffffffffffffffffffffffffffffffff1673ffffffffffffffffffffffffffffffffffffffff163373ffffffffffffffffffffffffffffffffffffffff16141515610f0857600080fd5b600073ffffffffffffffffffffffffffffffffffffffff168173ffffffffffffffffffffffffffffffffffffffff1614151515610f4457600080fd5b8073ffffffffffffffffffffffffffffffffffffffff166000809054906101000a900473ffffffffffffffffffffffffffffffffffffffff1673ffffffffffffffffffffffffffffffffffffffff167f8be0079c531659141344cd1fd0a4f28419497f9722a3daafe3b4186f6b6457e060405160405180910390a3806000806101000a81548173ffffffffffffffffffffffffffffffffffffffff021916908373ffffffffffffffffffffffffffffffffffffffff16021790555050565b600080846005600082815260200190815260200160002060009054906101000a900473ffffffffffffffffffffffffffffffffffffffff1673ffffffffffffffffffffffffffffffffffffffff163373ffffffffffffffffffffffffffffffffffffffff1614151561107357600080fd5b60048681548110151561108257fe5b9060005260206000209060030201925061109b83611598565b15156110a657600080fd5b600254858115156110b357fe5b0694506002858460010154018115156110c857fe5b04915060405180807f6b697474790000000000000000000000000000000000000000000000000000008152506005019050604051809103902060001916846040518082805190602001908083835b60208310151561113b5780518252602082019150602081019050602083039250611116565b6001836020036101000a038019825116818451168082178552505050505050905001915050604051809103902060001916141561118757606360648381151561118057fe5b0683030191505b6111c66040805190810160405280600681526020017f4e6f4e616d65000000000000000000000000000000000000000000000000000081525083611259565b6111cf8361156e565b505050505050565b600080826040518082805190602001908083835b60208310151561121057805182526020820191506020810190506020830392506111eb565b6001836020036101000a03801982511681845116808217855250505050505090500191505060405180910390206001900490506002548181151561125057fe5b06915050919050565b60006001600480548060010182816112719190611653565b9160005260206000209060030201600060c060405190810160405280888152602001878152602001600163ffffffff168152602001600354420163ffffffff168152602001600061ffff168152602001600061ffff16815250909190915060008201518160000190805190602001906112eb929190611685565b506020820151816001015560408201518160020160006101000a81548163ffffffff021916908363ffffffff16021790555060608201518160020160046101000a81548163ffffffff021916908363ffffffff16021790555060808201518160020160086101000a81548161ffff021916908361ffff16021790555060a082015181600201600a6101000a81548161ffff021916908361ffff1602179055505050039050336005600083815260200190815260200160002060006101000a81548173ffffffffffffffffffffffffffffffffffffffff021916908373ffffffffffffffffffffffffffffffffffffffff160217905550600660003373ffffffffffffffffffffffffffffffffffffffff1673ffffffffffffffffffffffffffffffffffffffff168152602001908152602001600020600081548092919060010191905055507f88f026aacbbecc90c18411df4b1185fd8d9be2470f1962f192bf84a27d0704b78184846040518084815260200180602001838152602001828103825284818151815260200191508051906020019080838360005b838110156114a0578082015181840152602081019050611485565b50505050905090810190601f1680156114cd5780820380516001836020036101000a031916815260200191505b5094505050505060405180910390a1505050565b6000600960008154809291906001019190505550814233600954604051808481526020018373ffffffffffffffffffffffffffffffffffffffff1673ffffffffffffffffffffffffffffffffffffffff166c01000000000000000000000000028152601401828152602001935050505060405180910390206001900481151561156657fe5b069050919050565b60035442018160020160046101000a81548163ffffffff021916908363ffffffff16021790555050565b6000428260020160049054906101000a900463ffffffff1663ffffffff1611159050919050565b602060405190810160405280600081525090565b828054600181600116156101000203166002900490600052602060002090601f016020900481019282601f1061161457803560ff1916838001178555611642565b82800160010185558215611642579182015b82811115611641578235825591602001919060010190611626565b5b50905061164f9190611705565b5090565b8154818355818115116116805760030281600302836000526020600020918201910161167f919061172a565b5b505050565b828054600181600116156101000203166002900490600052602060002090601f016020900481019282601f106116c657805160ff19168380011785556116f4565b828001600101855582156116f4579182015b828111156116f35782518255916020019190600101906116d8565b5b5090506117019190611705565b5090565b61172791905b8082111561172357600081600090555060010161170b565b5090565b90565b6117b691905b808211156117b2576000808201600061174991906117b9565b60018201600090556002820160006101000a81549063ffffffff02191690556002820160046101000a81549063ffffffff02191690556002820160086101000a81549061ffff021916905560028201600a6101000a81549061ffff021916905550600301611730565b5090565b90565b50805460018160011615610100020316600290046000825580601f106117df57506117fe565b601f0160209004906000526020600020908101906117fd9190611705565b5b505600a165627a7a7230582060f59585309b6aca57d0a23f6583bf682dd24f95a1533e7259861fc1cc4b12e60029",
					"opcodes": "PUSH1 0x60 PUSH1 0x40 MSTORE PUSH1 0x10 PUSH1 0x1 SSTORE PUSH1 0x1 SLOAD PUSH1 0xA EXP PUSH1 0x2 SSTORE PUSH3 0x15180 PUSH1 0x3 SSTORE PUSH7 0x38D7EA4C68000 PUSH1 0x8 SSTORE PUSH1 0x0 PUSH1 0x9 SSTORE PUSH1 0x46 PUSH1 0xA SSTORE CALLER PUSH1 0x0 DUP1 PUSH2 0x100 EXP DUP2 SLOAD DUP2 PUSH20 0xFFFFFFFFFFFFFFFFFFFFFFFFFFFFFFFFFFFFFFFF MUL NOT AND SWAP1 DUP4 PUSH20 0xFFFFFFFFFFFFFFFFFFFFFFFFFFFFFFFFFFFFFFFF AND MUL OR SWAP1 SSTORE POP PUSH2 0x182D DUP1 PUSH2 0x7D PUSH1 0x0 CODECOPY PUSH1 0x0 RETURN STOP PUSH1 0x60 PUSH1 0x40 MSTORE PUSH1 0x4 CALLDATASIZE LT PUSH2 0xC5 JUMPI PUSH1 0x0 CALLDATALOAD PUSH29 0x100000000000000000000000000000000000000000000000000000000 SWAP1 DIV PUSH4 0xFFFFFFFF AND DUP1 PUSH4 0x17A7F4CC EQ PUSH2 0xCA JUMPI DUP1 PUSH4 0x2052465E EQ PUSH2 0xF6 JUMPI DUP1 PUSH4 0x3CCFD60B EQ PUSH2 0x1FA JUMPI DUP1 PUSH4 0x4412E104 EQ PUSH2 0x20F JUMPI DUP1 PUSH4 0x528B7B8F EQ PUSH2 0x29D JUMPI DUP1 PUSH4 0x5F4623F1 EQ PUSH2 0x300 JUMPI DUP1 PUSH4 0x5FAF2880 EQ PUSH2 0x339 JUMPI DUP1 PUSH4 0x7BFF0A01 EQ PUSH2 0x365 JUMPI DUP1 PUSH4 0x8DA5CB5B EQ PUSH2 0x3C2 JUMPI DUP1 PUSH4 0xC39CBEF1 EQ PUSH2 0x417 JUMPI DUP1 PUSH4 0xCCF670F8 EQ PUSH2 0x44E JUMPI DUP1 PUSH4 0xE1FA7638 EQ PUSH2 0x471 JUMPI DUP1 PUSH4 0xF2FDE38B EQ PUSH2 0x49D JUMPI JUMPDEST PUSH1 0x0 DUP1 REVERT JUMPDEST CALLVALUE ISZERO PUSH2 0xD5 JUMPI PUSH1 0x0 DUP1 REVERT JUMPDEST PUSH2 0xF4 PUSH1 0x4 DUP1 DUP1 CALLDATALOAD SWAP1 PUSH1 0x20 ADD SWAP1 SWAP2 SWAP1 DUP1 CALLDATALOAD SWAP1 PUSH1 0x20 ADD SWAP1 SWAP2 SWAP1 POP POP PUSH2 0x4D6 JUMP JUMPDEST STOP JUMPDEST CALLVALUE ISZERO PUSH2 0x101 JUMPI PUSH1 0x0 DUP1 REVERT JUMPDEST PUSH2 0x117 PUSH1 0x4 DUP1 DUP1 CALLDATALOAD SWAP1 PUSH1 0x20 ADD SWAP1 SWAP2 SWAP1 POP POP PUSH2 0x643 JUMP JUMPDEST PUSH1 0x40 MLOAD DUP1 DUP1 PUSH1 0x20 ADD DUP8 DUP2 MSTORE PUSH1 0x20 ADD DUP7 PUSH4 0xFFFFFFFF AND PUSH4 0xFFFFFFFF AND DUP2 MSTORE PUSH1 0x20 ADD DUP6 PUSH4 0xFFFFFFFF AND PUSH4 0xFFFFFFFF AND DUP2 MSTORE PUSH1 0x20 ADD DUP5 PUSH2 0xFFFF AND PUSH2 0xFFFF AND DUP2 MSTORE PUSH1 0x20 ADD DUP4 PUSH2 0xFFFF AND PUSH2 0xFFFF AND DUP2 MSTORE PUSH1 0x20 ADD DUP3 DUP2 SUB DUP3 MSTORE DUP9 DUP2 DUP2 SLOAD PUSH1 0x1 DUP2 PUSH1 0x1 AND ISZERO PUSH2 0x100 MUL SUB AND PUSH1 0x2 SWAP1 DIV DUP2 MSTORE PUSH1 0x20 ADD SWAP2 POP DUP1 SLOAD PUSH1 0x1 DUP2 PUSH1 0x1 AND ISZERO PUSH2 0x100 MUL SUB AND PUSH1 0x2 SWAP1 DIV DUP1 ISZERO PUSH2 0x1E6 JUMPI DUP1 PUSH1 0x1F LT PUSH2 0x1BB JUMPI PUSH2 0x100 DUP1 DUP4 SLOAD DIV MUL DUP4 MSTORE SWAP2 PUSH1 0x20 ADD SWAP2 PUSH2 0x1E6 JUMP JUMPDEST DUP3 ADD SWAP2 SWAP1 PUSH1 0x0 MSTORE PUSH1 0x20 PUSH1 0x0 KECCAK256 SWAP1 JUMPDEST DUP2 SLOAD DUP2 MSTORE SWAP1 PUSH1 0x1 ADD SWAP1 PUSH1 0x20 ADD DUP1 DUP4 GT PUSH2 0x1C9 JUMPI DUP3 SWAP1 SUB PUSH1 0x1F AND DUP3 ADD SWAP2 JUMPDEST POP POP SWAP8 POP POP POP POP POP POP POP POP PUSH1 0x40 MLOAD DUP1 SWAP2 SUB SWAP1 RETURN JUMPDEST CALLVALUE ISZERO PUSH2 0x205 JUMPI PUSH1 0x0 DUP1 REVERT JUMPDEST PUSH2 0x20D PUSH2 0x6C9 JUMP JUMPDEST STOP JUMPDEST CALLVALUE ISZERO PUSH2 0x21A JUMPI PUSH1 0x0 DUP1 REVERT JUMPDEST PUSH2 0x246 PUSH1 0x4 DUP1 DUP1 CALLDATALOAD PUSH20 0xFFFFFFFFFFFFFFFFFFFFFFFFFFFFFFFFFFFFFFFF AND SWAP1 PUSH1 0x20 ADD SWAP1 SWAP2 SWAP1 POP POP PUSH2 0x79E JUMP JUMPDEST PUSH1 0x40 MLOAD DUP1 DUP1 PUSH1 0x20 ADD DUP3 DUP2 SUB DUP3 MSTORE DUP4 DUP2 DUP2 MLOAD DUP2 MSTORE PUSH1 0x20 ADD SWAP2 POP DUP1 MLOAD SWAP1 PUSH1 0x20 ADD SWAP1 PUSH1 0x20 MUL DUP1 DUP4 DUP4 PUSH1 0x0 JUMPDEST DUP4 DUP2 LT ISZERO PUSH2 0x289 JUMPI DUP1 DUP3 ADD MLOAD DUP2 DUP5 ADD MSTORE PUSH1 0x20 DUP2 ADD SWAP1 POP PUSH2 0x26E JUMP JUMPDEST POP POP POP POP SWAP1 POP ADD SWAP3 POP POP POP PUSH1 0x40 MLOAD DUP1 SWAP2 SUB SWAP1 RETURN JUMPDEST CALLVALUE ISZERO PUSH2 0x2A8 JUMPI PUSH1 0x0 DUP1 REVERT JUMPDEST PUSH2 0x2BE PUSH1 0x4 DUP1 DUP1 CALLDATALOAD SWAP1 PUSH1 0x20 ADD SWAP1 SWAP2 SWAP1 POP POP PUSH2 0x8CC JUMP JUMPDEST PUSH1 0x40 MLOAD DUP1 DUP3 PUSH20 0xFFFFFFFFFFFFFFFFFFFFFFFFFFFFFFFFFFFFFFFF AND PUSH20 0xFFFFFFFFFFFFFFFFFFFFFFFFFFFFFFFFFFFFFFFF AND DUP2 MSTORE PUSH1 0x20 ADD SWAP2 POP POP PUSH1 0x40 MLOAD DUP1 SWAP2 SUB SWAP1 RETURN JUMPDEST CALLVALUE ISZERO PUSH2 0x30B JUMPI PUSH1 0x0 DUP1 REVERT JUMPDEST PUSH2 0x337 PUSH1 0x4 DUP1 DUP1 CALLDATALOAD PUSH20 0xFFFFFFFFFFFFFFFFFFFFFFFFFFFFFFFFFFFFFFFF AND SWAP1 PUSH1 0x20 ADD SWAP1 SWAP2 SWAP1 POP POP PUSH2 0x8FF JUMP JUMPDEST STOP JUMPDEST CALLVALUE ISZERO PUSH2 0x344 JUMPI PUSH1 0x0 DUP1 REVERT JUMPDEST PUSH2 0x363 PUSH1 0x4 DUP1 DUP1 CALLDATALOAD SWAP1 PUSH1 0x20 ADD SWAP1 SWAP2 SWAP1 DUP1 CALLDATALOAD SWAP1 PUSH1 0x20 ADD SWAP1 SWAP2 SWAP1 POP POP PUSH2 0x99E JUMP JUMPDEST STOP JUMPDEST CALLVALUE ISZERO PUSH2 0x370 JUMPI PUSH1 0x0 DUP1 REVERT JUMPDEST PUSH2 0x3C0 PUSH1 0x4 DUP1 DUP1 CALLDATALOAD SWAP1 PUSH1 0x20 ADD SWAP1 DUP3 ADD DUP1 CALLDATALOAD SWAP1 PUSH1 0x20 ADD SWAP1 DUP1 DUP1 PUSH1 0x1F ADD PUSH1 0x20 DUP1 SWAP2 DIV MUL PUSH1 0x20 ADD PUSH1 0x40 MLOAD SWAP1 DUP2 ADD PUSH1 0x40 MSTORE DUP1 SWAP4 SWAP3 SWAP2 SWAP1 DUP2 DUP2 MSTORE PUSH1 0x20 ADD DUP4 DUP4 DUP1 DUP3 DUP5 CALLDATACOPY DUP3 ADD SWAP2 POP POP POP POP POP POP SWAP2 SWAP1 POP POP PUSH2 0xA80 JUMP JUMPDEST STOP JUMPDEST CALLVALUE ISZERO PUSH2 0x3CD JUMPI PUSH1 0x0 DUP1 REVERT JUMPDEST PUSH2 0x3D5 PUSH2 0xAF9 JUMP JUMPDEST PUSH1 0x40 MLOAD DUP1 DUP3 PUSH20 0xFFFFFFFFFFFFFFFFFFFFFFFFFFFFFFFFFFFFFFFF AND PUSH20 0xFFFFFFFFFFFFFFFFFFFFFFFFFFFFFFFFFFFFFFFF AND DUP2 MSTORE PUSH1 0x20 ADD SWAP2 POP POP PUSH1 0x40 MLOAD DUP1 SWAP2 SUB SWAP1 RETURN JUMPDEST CALLVALUE ISZERO PUSH2 0x422 JUMPI PUSH1 0x0 DUP1 REVERT JUMPDEST PUSH2 0x44C PUSH1 0x4 DUP1 DUP1 CALLDATALOAD SWAP1 PUSH1 0x20 ADD SWAP1 SWAP2 SWAP1 DUP1 CALLDATALOAD SWAP1 PUSH1 0x20 ADD SWAP1 DUP3 ADD DUP1 CALLDATALOAD SWAP1 PUSH1 0x20 ADD SWAP2 SWAP1 SWAP2 SWAP3 SWAP1 POP POP PUSH2 0xB1E JUMP JUMPDEST STOP JUMPDEST CALLVALUE ISZERO PUSH2 0x459 JUMPI PUSH1 0x0 DUP1 REVERT JUMPDEST PUSH2 0x46F PUSH1 0x4 DUP1 DUP1 CALLDATALOAD SWAP1 PUSH1 0x20 ADD SWAP1 SWAP2 SWAP1 POP POP PUSH2 0xC0C JUMP JUMPDEST STOP JUMPDEST CALLVALUE ISZERO PUSH2 0x47C JUMPI PUSH1 0x0 DUP1 REVERT JUMPDEST PUSH2 0x49B PUSH1 0x4 DUP1 DUP1 CALLDATALOAD SWAP1 PUSH1 0x20 ADD SWAP1 SWAP2 SWAP1 DUP1 CALLDATALOAD SWAP1 PUSH1 0x20 ADD SWAP1 SWAP2 SWAP1 POP POP PUSH2 0xC71 JUMP JUMPDEST STOP JUMPDEST CALLVALUE ISZERO PUSH2 0x4A8 JUMPI PUSH1 0x0 DUP1 REVERT JUMPDEST PUSH2 0x4D4 PUSH1 0x4 DUP1 DUP1 CALLDATALOAD PUSH20 0xFFFFFFFFFFFFFFFFFFFFFFFFFFFFFFFFFFFFFFFF AND SWAP1 PUSH1 0x20 ADD SWAP1 SWAP2 SWAP1 POP POP PUSH2 0xEAD JUMP JUMPDEST STOP JUMPDEST PUSH1 0x0 PUSH1 0x7 PUSH1 0x0 SWAP1 SLOAD SWAP1 PUSH2 0x100 EXP SWAP1 DIV PUSH20 0xFFFFFFFFFFFFFFFFFFFFFFFFFFFFFFFFFFFFFFFF AND PUSH20 0xFFFFFFFFFFFFFFFFFFFFFFFFFFFFFFFFFFFFFFFF AND PUSH4 0xE98B7F4D DUP4 PUSH1 0x0 PUSH1 0x40 MLOAD PUSH2 0x140 ADD MSTORE PUSH1 0x40 MLOAD DUP3 PUSH4 0xFFFFFFFF AND PUSH29 0x100000000000000000000000000000000000000000000000000000000 MUL DUP2 MSTORE PUSH1 0x4 ADD DUP1 DUP3 DUP2 MSTORE PUSH1 0x20 ADD SWAP2 POP POP PUSH2 0x140 PUSH1 0x40 MLOAD DUP1 DUP4 SUB DUP2 PUSH1 0x0 DUP8 DUP1 EXTCODESIZE ISZERO ISZERO PUSH2 0x573 JUMPI PUSH1 0x0 DUP1 REVERT JUMPDEST PUSH2 0x2C6 GAS SUB CALL ISZERO ISZERO PUSH2 0x584 JUMPI PUSH1 0x0 DUP1 REVERT JUMPDEST POP POP POP PUSH1 0x40 MLOAD DUP1 MLOAD SWAP1 PUSH1 0x20 ADD DUP1 MLOAD SWAP1 PUSH1 0x20 ADD DUP1 MLOAD SWAP1 PUSH1 0x20 ADD DUP1 MLOAD SWAP1 PUSH1 0x20 ADD DUP1 MLOAD SWAP1 PUSH1 0x20 ADD DUP1 MLOAD SWAP1 PUSH1 0x20 ADD DUP1 MLOAD SWAP1 PUSH1 0x20 ADD DUP1 MLOAD SWAP1 PUSH1 0x20 ADD DUP1 MLOAD SWAP1 PUSH1 0x20 ADD DUP1 MLOAD SWAP1 POP SWAP1 SWAP2 SWAP3 SWAP4 SWAP5 SWAP6 SWAP7 SWAP8 SWAP9 POP SWAP1 SWAP2 SWAP3 SWAP4 SWAP5 SWAP6 SWAP7 SWAP8 POP SWAP1 SWAP2 SWAP3 SWAP4 SWAP5 SWAP6 SWAP7 POP SWAP1 SWAP2 SWAP3 SWAP4 SWAP5 SWAP6 POP SWAP1 SWAP2 SWAP3 SWAP4 SWAP5 POP SWAP1 SWAP2 SWAP3 SWAP4 POP SWAP1 SWAP2 SWAP3 POP SWAP1 SWAP2 POP SWAP1 POP DUP1 SWAP2 POP POP PUSH2 0x63E DUP4 DUP3 PUSH1 0x40 DUP1 MLOAD SWAP1 DUP2 ADD PUSH1 0x40 MSTORE DUP1 PUSH1 0x5 DUP2 MSTORE PUSH1 0x20 ADD PUSH32 0x6B69747479000000000000000000000000000000000000000000000000000000 DUP2 MSTORE POP PUSH2 0x1002 JUMP JUMPDEST POP POP POP JUMP JUMPDEST PUSH1 0x4 DUP2 DUP2 SLOAD DUP2 LT ISZERO ISZERO PUSH2 0x652 JUMPI INVALID JUMPDEST SWAP1 PUSH1 0x0 MSTORE PUSH1 0x20 PUSH1 0x0 KECCAK256 SWAP1 PUSH1 0x3 MUL ADD PUSH1 0x0 SWAP2 POP SWAP1 POP DUP1 PUSH1 0x0 ADD SWAP1 DUP1 PUSH1 0x1 ADD SLOAD SWAP1 DUP1 PUSH1 0x2 ADD PUSH1 0x0 SWAP1 SLOAD SWAP1 PUSH2 0x100 EXP SWAP1 DIV PUSH4 0xFFFFFFFF AND SWAP1 DUP1 PUSH1 0x2 ADD PUSH1 0x4 SWAP1 SLOAD SWAP1 PUSH2 0x100 EXP SWAP1 DIV PUSH4 0xFFFFFFFF AND SWAP1 DUP1 PUSH1 0x2 ADD PUSH1 0x8 SWAP1 SLOAD SWAP1 PUSH2 0x100 EXP SWAP1 DIV PUSH2 0xFFFF AND SWAP1 DUP1 PUSH1 0x2 ADD PUSH1 0xA SWAP1 SLOAD SWAP1 PUSH2 0x100 EXP SWAP1 DIV PUSH2 0xFFFF AND SWAP1 POP DUP7 JUMP JUMPDEST PUSH1 0x0 DUP1 SWAP1 SLOAD SWAP1 PUSH2 0x100 EXP SWAP1 DIV PUSH20 0xFFFFFFFFFFFFFFFFFFFFFFFFFFFFFFFFFFFFFFFF AND PUSH20 0xFFFFFFFFFFFFFFFFFFFFFFFFFFFFFFFFFFFFFFFF AND CALLER PUSH20 0xFFFFFFFFFFFFFFFFFFFFFFFFFFFFFFFFFFFFFFFF AND EQ ISZERO ISZERO PUSH2 0x724 JUMPI PUSH1 0x0 DUP1 REVERT JUMPDEST PUSH1 0x0 DUP1 SWAP1 SLOAD SWAP1 PUSH2 0x100 EXP SWAP1 DIV PUSH20 0xFFFFFFFFFFFFFFFFFFFFFFFFFFFFFFFFFFFFFFFF AND PUSH20 0xFFFFFFFFFFFFFFFFFFFFFFFFFFFFFFFFFFFFFFFF AND PUSH2 0x8FC ADDRESS PUSH20 0xFFFFFFFFFFFFFFFFFFFFFFFFFFFFFFFFFFFFFFFF AND BALANCE SWAP1 DUP2 ISZERO MUL SWAP1 PUSH1 0x40 MLOAD PUSH1 0x0 PUSH1 0x40 MLOAD DUP1 DUP4 SUB DUP2 DUP6 DUP9 DUP9 CALL SWAP4 POP POP POP POP ISZERO ISZERO PUSH2 0x79C JUMPI PUSH1 0x0 DUP1 REVERT JUMPDEST JUMP JUMPDEST PUSH2 0x7A6 PUSH2 0x15BF JUMP JUMPDEST PUSH2 0x7AE PUSH2 0x15BF JUMP JUMPDEST PUSH1 0x0 DUP1 PUSH1 0x6 PUSH1 0x0 DUP7 PUSH20 0xFFFFFFFFFFFFFFFFFFFFFFFFFFFFFFFFFFFFFFFF AND PUSH20 0xFFFFFFFFFFFFFFFFFFFFFFFFFFFFFFFFFFFFFFFF AND DUP2 MSTORE PUSH1 0x20 ADD SWAP1 DUP2 MSTORE PUSH1 0x20 ADD PUSH1 0x0 KECCAK256 SLOAD PUSH1 0x40 MLOAD DUP1 MSIZE LT PUSH2 0x7FE JUMPI POP MSIZE JUMPDEST SWAP1 DUP1 DUP3 MSTORE DUP1 PUSH1 0x20 MUL PUSH1 0x20 ADD DUP3 ADD PUSH1 0x40 MSTORE POP SWAP3 POP PUSH1 0x0 SWAP2 POP PUSH1 0x0 SWAP1 POP JUMPDEST PUSH1 0x4 DUP1 SLOAD SWAP1 POP DUP2 LT ISZERO PUSH2 0x8C1 JUMPI DUP5 PUSH20 0xFFFFFFFFFFFFFFFFFFFFFFFFFFFFFFFFFFFFFFFF AND PUSH1 0x5 PUSH1 0x0 DUP4 DUP2 MSTORE PUSH1 0x20 ADD SWAP1 DUP2 MSTORE PUSH1 0x20 ADD PUSH1 0x0 KECCAK256 PUSH1 0x0 SWAP1 SLOAD SWAP1 PUSH2 0x100 EXP SWAP1 DIV PUSH20 0xFFFFFFFFFFFFFFFFFFFFFFFFFFFFFFFFFFFFFFFF AND PUSH20 0xFFFFFFFFFFFFFFFFFFFFFFFFFFFFFFFFFFFFFFFF AND EQ ISZERO PUSH2 0x8B4 JUMPI DUP1 DUP4 DUP4 DUP2 MLOAD DUP2 LT ISZERO ISZERO PUSH2 0x89D JUMPI INVALID JUMPDEST SWAP1 PUSH1 0x20 ADD SWAP1 PUSH1 0x20 MUL ADD DUP2 DUP2 MSTORE POP POP DUP2 DUP1 PUSH1 0x1 ADD SWAP3 POP POP JUMPDEST DUP1 DUP1 PUSH1 0x1 ADD SWAP2 POP POP PUSH2 0x81A JUMP JUMPDEST DUP3 SWAP4 POP POP POP POP SWAP2 SWAP1 POP JUMP JUMPDEST PUSH1 0x5 PUSH1 0x20 MSTORE DUP1 PUSH1 0x0 MSTORE PUSH1 0x40 PUSH1 0x0 KECCAK256 PUSH1 0x0 SWAP2 POP SLOAD SWAP1 PUSH2 0x100 EXP SWAP1 DIV PUSH20 0xFFFFFFFFFFFFFFFFFFFFFFFFFFFFFFFFFFFFFFFF AND DUP2 JUMP JUMPDEST PUSH1 0x0 DUP1 SWAP1 SLOAD SWAP1 PUSH2 0x100 EXP SWAP1 DIV PUSH20 0xFFFFFFFFFFFFFFFFFFFFFFFFFFFFFFFFFFFFFFFF AND PUSH20 0xFFFFFFFFFFFFFFFFFFFFFFFFFFFFFFFFFFFFFFFF AND CALLER PUSH20 0xFFFFFFFFFFFFFFFFFFFFFFFFFFFFFFFFFFFFFFFF AND EQ ISZERO ISZERO PUSH2 0x95A JUMPI PUSH1 0x0 DUP1 REVERT JUMPDEST DUP1 PUSH1 0x7 PUSH1 0x0 PUSH2 0x100 EXP DUP2 SLOAD DUP2 PUSH20 0xFFFFFFFFFFFFFFFFFFFFFFFFFFFFFFFFFFFFFFFF MUL NOT AND SWAP1 DUP4 PUSH20 0xFFFFFFFFFFFFFFFFFFFFFFFFFFFFFFFFFFFFFFFF AND MUL OR SWAP1 SSTORE POP POP JUMP JUMPDEST PUSH1 0x14 DUP3 DUP2 PUSH1 0x4 DUP3 DUP2 SLOAD DUP2 LT ISZERO ISZERO PUSH2 0x9B1 JUMPI INVALID JUMPDEST SWAP1 PUSH1 0x0 MSTORE PUSH1 0x20 PUSH1 0x0 KECCAK256 SWAP1 PUSH1 0x3 MUL ADD PUSH1 0x2 ADD PUSH1 0x0 SWAP1 SLOAD SWAP1 PUSH2 0x100 EXP SWAP1 DIV PUSH4 0xFFFFFFFF AND PUSH4 0xFFFFFFFF AND LT ISZERO ISZERO ISZERO PUSH2 0x9E6 JUMPI PUSH1 0x0 DUP1 REVERT JUMPDEST DUP4 PUSH1 0x5 PUSH1 0x0 DUP3 DUP2 MSTORE PUSH1 0x20 ADD SWAP1 DUP2 MSTORE PUSH1 0x20 ADD PUSH1 0x0 KECCAK256 PUSH1 0x0 SWAP1 SLOAD SWAP1 PUSH2 0x100 EXP SWAP1 DIV PUSH20 0xFFFFFFFFFFFFFFFFFFFFFFFFFFFFFFFFFFFFFFFF AND PUSH20 0xFFFFFFFFFFFFFFFFFFFFFFFFFFFFFFFFFFFFFFFF AND CALLER PUSH20 0xFFFFFFFFFFFFFFFFFFFFFFFFFFFFFFFFFFFFFFFF AND EQ ISZERO ISZERO PUSH2 0xA54 JUMPI PUSH1 0x0 DUP1 REVERT JUMPDEST DUP4 PUSH1 0x4 DUP7 DUP2 SLOAD DUP2 LT ISZERO ISZERO PUSH2 0xA64 JUMPI INVALID JUMPDEST SWAP1 PUSH1 0x0 MSTORE PUSH1 0x20 PUSH1 0x0 KECCAK256 SWAP1 PUSH1 0x3 MUL ADD PUSH1 0x1 ADD DUP2 SWAP1 SSTORE POP POP POP POP POP POP JUMP JUMPDEST PUSH1 0x0 DUP1 PUSH1 0x6 PUSH1 0x0 CALLER PUSH20 0xFFFFFFFFFFFFFFFFFFFFFFFFFFFFFFFFFFFFFFFF AND PUSH20 0xFFFFFFFFFFFFFFFFFFFFFFFFFFFFFFFFFFFFFFFF AND DUP2 MSTORE PUSH1 0x20 ADD SWAP1 DUP2 MSTORE PUSH1 0x20 ADD PUSH1 0x0 KECCAK256 SLOAD EQ ISZERO ISZERO PUSH2 0xACF JUMPI PUSH1 0x0 DUP1 REVERT JUMPDEST PUSH2 0xAD8 DUP3 PUSH2 0x11D7 JUMP JUMPDEST SWAP1 POP PUSH1 0x64 DUP2 DUP2 ISZERO ISZERO PUSH2 0xAE6 JUMPI INVALID JUMPDEST MOD DUP2 SUB SWAP1 POP PUSH2 0xAF5 DUP3 DUP3 PUSH2 0x1259 JUMP JUMPDEST POP POP JUMP JUMPDEST PUSH1 0x0 DUP1 SWAP1 SLOAD SWAP1 PUSH2 0x100 EXP SWAP1 DIV PUSH20 0xFFFFFFFFFFFFFFFFFFFFFFFFFFFFFFFFFFFFFFFF AND DUP2 JUMP JUMPDEST PUSH1 0x2 DUP4 DUP2 PUSH1 0x4 DUP3 DUP2 SLOAD DUP2 LT ISZERO ISZERO PUSH2 0xB31 JUMPI INVALID JUMPDEST SWAP1 PUSH1 0x0 MSTORE PUSH1 0x20 PUSH1 0x0 KECCAK256 SWAP1 PUSH1 0x3 MUL ADD PUSH1 0x2 ADD PUSH1 0x0 SWAP1 SLOAD SWAP1 PUSH2 0x100 EXP SWAP1 DIV PUSH4 0xFFFFFFFF AND PUSH4 0xFFFFFFFF AND LT ISZERO ISZERO ISZERO PUSH2 0xB66 JUMPI PUSH1 0x0 DUP1 REVERT JUMPDEST DUP5 PUSH1 0x5 PUSH1 0x0 DUP3 DUP2 MSTORE PUSH1 0x20 ADD SWAP1 DUP2 MSTORE PUSH1 0x20 ADD PUSH1 0x0 KECCAK256 PUSH1 0x0 SWAP1 SLOAD SWAP1 PUSH2 0x100 EXP SWAP1 DIV PUSH20 0xFFFFFFFFFFFFFFFFFFFFFFFFFFFFFFFFFFFFFFFF AND PUSH20 0xFFFFFFFFFFFFFFFFFFFFFFFFFFFFFFFFFFFFFFFF AND CALLER PUSH20 0xFFFFFFFFFFFFFFFFFFFFFFFFFFFFFFFFFFFFFFFF AND EQ ISZERO ISZERO PUSH2 0xBD4 JUMPI PUSH1 0x0 DUP1 REVERT JUMPDEST DUP5 DUP5 PUSH1 0x4 DUP9 DUP2 SLOAD DUP2 LT ISZERO ISZERO PUSH2 0xBE5 JUMPI INVALID JUMPDEST SWAP1 PUSH1 0x0 MSTORE PUSH1 0x20 PUSH1 0x0 KECCAK256 SWAP1 PUSH1 0x3 MUL ADD PUSH1 0x0 ADD SWAP2 SWAP1 PUSH2 0xC03 SWAP3 SWAP2 SWAP1 PUSH2 0x15D3 JUMP JUMPDEST POP POP POP POP POP POP POP JUMP JUMPDEST PUSH1 0x0 DUP1 SWAP1 SLOAD SWAP1 PUSH2 0x100 EXP SWAP1 DIV PUSH20 0xFFFFFFFFFFFFFFFFFFFFFFFFFFFFFFFFFFFFFFFF AND PUSH20 0xFFFFFFFFFFFFFFFFFFFFFFFFFFFFFFFFFFFFFFFF AND CALLER PUSH20 0xFFFFFFFFFFFFFFFFFFFFFFFFFFFFFFFFFFFFFFFF AND EQ ISZERO ISZERO PUSH2 0xC67 JUMPI PUSH1 0x0 DUP1 REVERT JUMPDEST DUP1 PUSH1 0x8 DUP2 SWAP1 SSTORE POP POP JUMP JUMPDEST PUSH1 0x0 DUP1 PUSH1 0x0 DUP5 PUSH1 0x5 PUSH1 0x0 DUP3 DUP2 MSTORE PUSH1 0x20 ADD SWAP1 DUP2 MSTORE PUSH1 0x20 ADD PUSH1 0x0 KECCAK256 PUSH1 0x0 SWAP1 SLOAD SWAP1 PUSH2 0x100 EXP SWAP1 DIV PUSH20 0xFFFFFFFFFFFFFFFFFFFFFFFFFFFFFFFFFFFFFFFF AND PUSH20 0xFFFFFFFFFFFFFFFFFFFFFFFFFFFFFFFFFFFFFFFF AND CALLER PUSH20 0xFFFFFFFFFFFFFFFFFFFFFFFFFFFFFFFFFFFFFFFF AND EQ ISZERO ISZERO PUSH2 0xCE4 JUMPI PUSH1 0x0 DUP1 REVERT JUMPDEST PUSH1 0x4 DUP7 DUP2 SLOAD DUP2 LT ISZERO ISZERO PUSH2 0xCF3 JUMPI INVALID JUMPDEST SWAP1 PUSH1 0x0 MSTORE PUSH1 0x20 PUSH1 0x0 KECCAK256 SWAP1 PUSH1 0x3 MUL ADD SWAP4 POP PUSH1 0x4 DUP6 DUP2 SLOAD DUP2 LT ISZERO ISZERO PUSH2 0xD12 JUMPI INVALID JUMPDEST SWAP1 PUSH1 0x0 MSTORE PUSH1 0x20 PUSH1 0x0 KECCAK256 SWAP1 PUSH1 0x3 MUL ADD SWAP3 POP PUSH2 0xD2C PUSH1 0x64 PUSH2 0x14E1 JUMP JUMPDEST SWAP2 POP PUSH1 0xA SLOAD DUP3 GT ISZERO ISZERO PUSH2 0xE2D JUMPI DUP4 PUSH1 0x2 ADD PUSH1 0x8 DUP2 DUP2 SWAP1 SLOAD SWAP1 PUSH2 0x100 EXP SWAP1 DIV PUSH2 0xFFFF AND DUP1 SWAP3 SWAP2 SWAP1 PUSH1 0x1 ADD SWAP2 SWAP1 PUSH2 0x100 EXP DUP2 SLOAD DUP2 PUSH2 0xFFFF MUL NOT AND SWAP1 DUP4 PUSH2 0xFFFF AND MUL OR SWAP1 SSTORE POP POP DUP4 PUSH1 0x2 ADD PUSH1 0x0 DUP2 DUP2 SWAP1 SLOAD SWAP1 PUSH2 0x100 EXP SWAP1 DIV PUSH4 0xFFFFFFFF AND DUP1 SWAP3 SWAP2 SWAP1 PUSH1 0x1 ADD SWAP2 SWAP1 PUSH2 0x100 EXP DUP2 SLOAD DUP2 PUSH4 0xFFFFFFFF MUL NOT AND SWAP1 DUP4 PUSH4 0xFFFFFFFF AND MUL OR SWAP1 SSTORE POP POP DUP3 PUSH1 0x2 ADD PUSH1 0xA DUP2 DUP2 SWAP1 SLOAD SWAP1 PUSH2 0x100 EXP SWAP1 DIV PUSH2 0xFFFF AND DUP1 SWAP3 SWAP2 SWAP1 PUSH1 0x1 ADD SWAP2 SWAP1 PUSH2 0x100 EXP DUP2 SLOAD DUP2 PUSH2 0xFFFF MUL NOT AND SWAP1 DUP4 PUSH2 0xFFFF AND MUL OR SWAP1 SSTORE POP POP PUSH2 0xE28 DUP7 DUP5 PUSH1 0x1 ADD SLOAD PUSH1 0x40 DUP1 MLOAD SWAP1 DUP2 ADD PUSH1 0x40 MSTORE DUP1 PUSH1 0x6 DUP2 MSTORE PUSH1 0x20 ADD PUSH32 0x7A6F6D6269650000000000000000000000000000000000000000000000000000 DUP2 MSTORE POP PUSH2 0x1002 JUMP JUMPDEST PUSH2 0xE9C JUMP JUMPDEST DUP4 PUSH1 0x2 ADD PUSH1 0xA DUP2 DUP2 SWAP1 SLOAD SWAP1 PUSH2 0x100 EXP SWAP1 DIV PUSH2 0xFFFF AND DUP1 SWAP3 SWAP2 SWAP1 PUSH1 0x1 ADD SWAP2 SWAP1 PUSH2 0x100 EXP DUP2 SLOAD DUP2 PUSH2 0xFFFF MUL NOT AND SWAP1 DUP4 PUSH2 0xFFFF AND MUL OR SWAP1 SSTORE POP POP DUP3 PUSH1 0x2 ADD PUSH1 0x8 DUP2 DUP2 SWAP1 SLOAD SWAP1 PUSH2 0x100 EXP SWAP1 DIV PUSH2 0xFFFF AND DUP1 SWAP3 SWAP2 SWAP1 PUSH1 0x1 ADD SWAP2 SWAP1 PUSH2 0x100 EXP DUP2 SLOAD DUP2 PUSH2 0xFFFF MUL NOT AND SWAP1 DUP4 PUSH2 0xFFFF AND MUL OR SWAP1 SSTORE POP POP JUMPDEST PUSH2 0xEA5 DUP5 PUSH2 0x156E JUMP JUMPDEST POP POP POP POP POP POP JUMP JUMPDEST PUSH1 0x0 DUP1 SWAP1 SLOAD SWAP1 PUSH2 0x100 EXP SWAP1 DIV PUSH20 0xFFFFFFFFFFFFFFFFFFFFFFFFFFFFFFFFFFFFFFFF AND PUSH20 0xFFFFFFFFFFFFFFFFFFFFFFFFFFFFFFFFFFFFFFFF AND CALLER PUSH20 0xFFFFFFFFFFFFFFFFFFFFFFFFFFFFFFFFFFFFFFFF AND EQ ISZERO ISZERO PUSH2 0xF08 JUMPI PUSH1 0x0 DUP1 REVERT JUMPDEST PUSH1 0x0 PUSH20 0xFFFFFFFFFFFFFFFFFFFFFFFFFFFFFFFFFFFFFFFF AND DUP2 PUSH20 0xFFFFFFFFFFFFFFFFFFFFFFFFFFFFFFFFFFFFFFFF AND EQ ISZERO ISZERO ISZERO PUSH2 0xF44 JUMPI PUSH1 0x0 DUP1 REVERT JUMPDEST DUP1 PUSH20 0xFFFFFFFFFFFFFFFFFFFFFFFFFFFFFFFFFFFFFFFF AND PUSH1 0x0 DUP1 SWAP1 SLOAD SWAP1 PUSH2 0x100 EXP SWAP1 DIV PUSH20 0xFFFFFFFFFFFFFFFFFFFFFFFFFFFFFFFFFFFFFFFF AND PUSH20 0xFFFFFFFFFFFFFFFFFFFFFFFFFFFFFFFFFFFFFFFF AND PUSH32 0x8BE0079C531659141344CD1FD0A4F28419497F9722A3DAAFE3B4186F6B6457E0 PUSH1 0x40 MLOAD PUSH1 0x40 MLOAD DUP1 SWAP2 SUB SWAP1 LOG3 DUP1 PUSH1 0x0 DUP1 PUSH2 0x100 EXP DUP2 SLOAD DUP2 PUSH20 0xFFFFFFFFFFFFFFFFFFFFFFFFFFFFFFFFFFFFFFFF MUL NOT AND SWAP1 DUP4 PUSH20 0xFFFFFFFFFFFFFFFFFFFFFFFFFFFFFFFFFFFFFFFF AND MUL OR SWAP1 SSTORE POP POP JUMP JUMPDEST PUSH1 0x0 DUP1 DUP5 PUSH1 0x5 PUSH1 0x0 DUP3 DUP2 MSTORE PUSH1 0x20 ADD SWAP1 DUP2 MSTORE PUSH1 0x20 ADD PUSH1 0x0 KECCAK256 PUSH1 0x0 SWAP1 SLOAD SWAP1 PUSH2 0x100 EXP SWAP1 DIV PUSH20 0xFFFFFFFFFFFFFFFFFFFFFFFFFFFFFFFFFFFFFFFF AND PUSH20 0xFFFFFFFFFFFFFFFFFFFFFFFFFFFFFFFFFFFFFFFF AND CALLER PUSH20 0xFFFFFFFFFFFFFFFFFFFFFFFFFFFFFFFFFFFFFFFF AND EQ ISZERO ISZERO PUSH2 0x1073 JUMPI PUSH1 0x0 DUP1 REVERT JUMPDEST PUSH1 0x4 DUP7 DUP2 SLOAD DUP2 LT ISZERO ISZERO PUSH2 0x1082 JUMPI INVALID JUMPDEST SWAP1 PUSH1 0x0 MSTORE PUSH1 0x20 PUSH1 0x0 KECCAK256 SWAP1 PUSH1 0x3 MUL ADD SWAP3 POP PUSH2 0x109B DUP4 PUSH2 0x1598 JUMP JUMPDEST ISZERO ISZERO PUSH2 0x10A6 JUMPI PUSH1 0x0 DUP1 REVERT JUMPDEST PUSH1 0x2 SLOAD DUP6 DUP2 ISZERO ISZERO PUSH2 0x10B3 JUMPI INVALID JUMPDEST MOD SWAP5 POP PUSH1 0x2 DUP6 DUP5 PUSH1 0x1 ADD SLOAD ADD DUP2 ISZERO ISZERO PUSH2 0x10C8 JUMPI INVALID JUMPDEST DIV SWAP2 POP PUSH1 0x40 MLOAD DUP1 DUP1 PUSH32 0x6B69747479000000000000000000000000000000000000000000000000000000 DUP2 MSTORE POP PUSH1 0x5 ADD SWAP1 POP PUSH1 0x40 MLOAD DUP1 SWAP2 SUB SWAP1 KECCAK256 PUSH1 0x0 NOT AND DUP5 PUSH1 0x40 MLOAD DUP1 DUP3 DUP1 MLOAD SWAP1 PUSH1 0x20 ADD SWAP1 DUP1 DUP4 DUP4 JUMPDEST PUSH1 0x20 DUP4 LT ISZERO ISZERO PUSH2 0x113B JUMPI DUP1 MLOAD DUP3 MSTORE PUSH1 0x20 DUP3 ADD SWAP2 POP PUSH1 0x20 DUP2 ADD SWAP1 POP PUSH1 0x20 DUP4 SUB SWAP3 POP PUSH2 0x1116 JUMP JUMPDEST PUSH1 0x1 DUP4 PUSH1 0x20 SUB PUSH2 0x100 EXP SUB DUP1 NOT DUP3 MLOAD AND DUP2 DUP5 MLOAD AND DUP1 DUP3 OR DUP6 MSTORE POP POP POP POP POP POP SWAP1 POP ADD SWAP2 POP POP PUSH1 0x40 MLOAD DUP1 SWAP2 SUB SWAP1 KECCAK256 PUSH1 0x0 NOT AND EQ ISZERO PUSH2 0x1187 JUMPI PUSH1 0x63 PUSH1 0x64 DUP4 DUP2 ISZERO ISZERO PUSH2 0x1180 JUMPI INVALID JUMPDEST MOD DUP4 SUB ADD SWAP2 POP JUMPDEST PUSH2 0x11C6 PUSH1 0x40 DUP1 MLOAD SWAP1 DUP2 ADD PUSH1 0x40 MSTORE DUP1 PUSH1 0x6 DUP2 MSTORE PUSH1 0x20 ADD PUSH32 0x4E6F4E616D650000000000000000000000000000000000000000000000000000 DUP2 MSTORE POP DUP4 PUSH2 0x1259 JUMP JUMPDEST PUSH2 0x11CF DUP4 PUSH2 0x156E JUMP JUMPDEST POP POP POP POP POP POP JUMP JUMPDEST PUSH1 0x0 DUP1 DUP3 PUSH1 0x40 MLOAD DUP1 DUP3 DUP1 MLOAD SWAP1 PUSH1 0x20 ADD SWAP1 DUP1 DUP4 DUP4 JUMPDEST PUSH1 0x20 DUP4 LT ISZERO ISZERO PUSH2 0x1210 JUMPI DUP1 MLOAD DUP3 MSTORE PUSH1 0x20 DUP3 ADD SWAP2 POP PUSH1 0x20 DUP2 ADD SWAP1 POP PUSH1 0x20 DUP4 SUB SWAP3 POP PUSH2 0x11EB JUMP JUMPDEST PUSH1 0x1 DUP4 PUSH1 0x20 SUB PUSH2 0x100 EXP SUB DUP1 NOT DUP3 MLOAD AND DUP2 DUP5 MLOAD AND DUP1 DUP3 OR DUP6 MSTORE POP POP POP POP POP POP SWAP1 POP ADD SWAP2 POP POP PUSH1 0x40 MLOAD DUP1 SWAP2 SUB SWAP1 KECCAK256 PUSH1 0x1 SWAP1 DIV SWAP1 POP PUSH1 0x2 SLOAD DUP2 DUP2 ISZERO ISZERO PUSH2 0x1250 JUMPI INVALID JUMPDEST MOD SWAP2 POP POP SWAP2 SWAP1 POP JUMP JUMPDEST PUSH1 0x0 PUSH1 0x1 PUSH1 0x4 DUP1 SLOAD DUP1 PUSH1 0x1 ADD DUP3 DUP2 PUSH2 0x1271 SWAP2 SWAP1 PUSH2 0x1653 JUMP JUMPDEST SWAP2 PUSH1 0x0 MSTORE PUSH1 0x20 PUSH1 0x0 KECCAK256 SWAP1 PUSH1 0x3 MUL ADD PUSH1 0x0 PUSH1 0xC0 PUSH1 0x40 MLOAD SWAP1 DUP2 ADD PUSH1 0x40 MSTORE DUP1 DUP9 DUP2 MSTORE PUSH1 0x20 ADD DUP8 DUP2 MSTORE PUSH1 0x20 ADD PUSH1 0x1 PUSH4 0xFFFFFFFF AND DUP2 MSTORE PUSH1 0x20 ADD PUSH1 0x3 SLOAD TIMESTAMP ADD PUSH4 0xFFFFFFFF AND DUP2 MSTORE PUSH1 0x20 ADD PUSH1 0x0 PUSH2 0xFFFF AND DUP2 MSTORE PUSH1 0x20 ADD PUSH1 0x0 PUSH2 0xFFFF AND DUP2 MSTORE POP SWAP1 SWAP2 SWAP1 SWAP2 POP PUSH1 0x0 DUP3 ADD MLOAD DUP2 PUSH1 0x0 ADD SWAP1 DUP1 MLOAD SWAP1 PUSH1 0x20 ADD SWAP1 PUSH2 0x12EB SWAP3 SWAP2 SWAP1 PUSH2 0x1685 JUMP JUMPDEST POP PUSH1 0x20 DUP3 ADD MLOAD DUP2 PUSH1 0x1 ADD SSTORE PUSH1 0x40 DUP3 ADD MLOAD DUP2 PUSH1 0x2 ADD PUSH1 0x0 PUSH2 0x100 EXP DUP2 SLOAD DUP2 PUSH4 0xFFFFFFFF MUL NOT AND SWAP1 DUP4 PUSH4 0xFFFFFFFF AND MUL OR SWAP1 SSTORE POP PUSH1 0x60 DUP3 ADD MLOAD DUP2 PUSH1 0x2 ADD PUSH1 0x4 PUSH2 0x100 EXP DUP2 SLOAD DUP2 PUSH4 0xFFFFFFFF MUL NOT AND SWAP1 DUP4 PUSH4 0xFFFFFFFF AND MUL OR SWAP1 SSTORE POP PUSH1 0x80 DUP3 ADD MLOAD DUP2 PUSH1 0x2 ADD PUSH1 0x8 PUSH2 0x100 EXP DUP2 SLOAD DUP2 PUSH2 0xFFFF MUL NOT AND SWAP1 DUP4 PUSH2 0xFFFF AND MUL OR SWAP1 SSTORE POP PUSH1 0xA0 DUP3 ADD MLOAD DUP2 PUSH1 0x2 ADD PUSH1 0xA PUSH2 0x100 EXP DUP2 SLOAD DUP2 PUSH2 0xFFFF MUL NOT AND SWAP1 DUP4 PUSH2 0xFFFF AND MUL OR SWAP1 SSTORE POP POP POP SUB SWAP1 POP CALLER PUSH1 0x5 PUSH1 0x0 DUP4 DUP2 MSTORE PUSH1 0x20 ADD SWAP1 DUP2 MSTORE PUSH1 0x20 ADD PUSH1 0x0 KECCAK256 PUSH1 0x0 PUSH2 0x100 EXP DUP2 SLOAD DUP2 PUSH20 0xFFFFFFFFFFFFFFFFFFFFFFFFFFFFFFFFFFFFFFFF MUL NOT AND SWAP1 DUP4 PUSH20 0xFFFFFFFFFFFFFFFFFFFFFFFFFFFFFFFFFFFFFFFF AND MUL OR SWAP1 SSTORE POP PUSH1 0x6 PUSH1 0x0 CALLER PUSH20 0xFFFFFFFFFFFFFFFFFFFFFFFFFFFFFFFFFFFFFFFF AND PUSH20 0xFFFFFFFFFFFFFFFFFFFFFFFFFFFFFFFFFFFFFFFF AND DUP2 MSTORE PUSH1 0x20 ADD SWAP1 DUP2 MSTORE PUSH1 0x20 ADD PUSH1 0x0 KECCAK256 PUSH1 0x0 DUP2 SLOAD DUP1 SWAP3 SWAP2 SWAP1 PUSH1 0x1 ADD SWAP2 SWAP1 POP SSTORE POP PUSH32 0x88F026AACBBECC90C18411DF4B1185FD8D9BE2470F1962F192BF84A27D0704B7 DUP2 DUP5 DUP5 PUSH1 0x40 MLOAD DUP1 DUP5 DUP2 MSTORE PUSH1 0x20 ADD DUP1 PUSH1 0x20 ADD DUP4 DUP2 MSTORE PUSH1 0x20 ADD DUP3 DUP2 SUB DUP3 MSTORE DUP5 DUP2 DUP2 MLOAD DUP2 MSTORE PUSH1 0x20 ADD SWAP2 POP DUP1 MLOAD SWAP1 PUSH1 0x20 ADD SWAP1 DUP1 DUP4 DUP4 PUSH1 0x0 JUMPDEST DUP4 DUP2 LT ISZERO PUSH2 0x14A0 JUMPI DUP1 DUP3 ADD MLOAD DUP2 DUP5 ADD MSTORE PUSH1 0x20 DUP2 ADD SWAP1 POP PUSH2 0x1485 JUMP JUMPDEST POP POP POP POP SWAP1 POP SWAP1 DUP2 ADD SWAP1 PUSH1 0x1F AND DUP1 ISZERO PUSH2 0x14CD JUMPI DUP1 DUP3 SUB DUP1 MLOAD PUSH1 0x1 DUP4 PUSH1 0x20 SUB PUSH2 0x100 EXP SUB NOT AND DUP2 MSTORE PUSH1 0x20 ADD SWAP2 POP JUMPDEST POP SWAP5 POP POP POP POP POP PUSH1 0x40 MLOAD DUP1 SWAP2 SUB SWAP1 LOG1 POP POP POP JUMP JUMPDEST PUSH1 0x0 PUSH1 0x9 PUSH1 0x0 DUP2 SLOAD DUP1 SWAP3 SWAP2 SWAP1 PUSH1 0x1 ADD SWAP2 SWAP1 POP SSTORE POP DUP2 TIMESTAMP CALLER PUSH1 0x9 SLOAD PUSH1 0x40 MLOAD DUP1 DUP5 DUP2 MSTORE PUSH1 0x20 ADD DUP4 PUSH20 0xFFFFFFFFFFFFFFFFFFFFFFFFFFFFFFFFFFFFFFFF AND PUSH20 0xFFFFFFFFFFFFFFFFFFFFFFFFFFFFFFFFFFFFFFFF AND PUSH13 0x1000000000000000000000000 MUL DUP2 MSTORE PUSH1 0x14 ADD DUP3 DUP2 MSTORE PUSH1 0x20 ADD SWAP4 POP POP POP POP PUSH1 0x40 MLOAD DUP1 SWAP2 SUB SWAP1 KECCAK256 PUSH1 0x1 SWAP1 DIV DUP2 ISZERO ISZERO PUSH2 0x1566 JUMPI INVALID JUMPDEST MOD SWAP1 POP SWAP2 SWAP1 POP JUMP JUMPDEST PUSH1 0x3 SLOAD TIMESTAMP ADD DUP2 PUSH1 0x2 ADD PUSH1 0x4 PUSH2 0x100 EXP DUP2 SLOAD DUP2 PUSH4 0xFFFFFFFF MUL NOT AND SWAP1 DUP4 PUSH4 0xFFFFFFFF AND MUL OR SWAP1 SSTORE POP POP JUMP JUMPDEST PUSH1 0x0 TIMESTAMP DUP3 PUSH1 0x2 ADD PUSH1 0x4 SWAP1 SLOAD SWAP1 PUSH2 0x100 EXP SWAP1 DIV PUSH4 0xFFFFFFFF AND PUSH4 0xFFFFFFFF AND GT ISZERO SWAP1 POP SWAP2 SWAP1 POP JUMP JUMPDEST PUSH1 0x20 PUSH1 0x40 MLOAD SWAP1 DUP2 ADD PUSH1 0x40 MSTORE DUP1 PUSH1 0x0 DUP2 MSTORE POP SWAP1 JUMP JUMPDEST DUP3 DUP1 SLOAD PUSH1 0x1 DUP2 PUSH1 0x1 AND ISZERO PUSH2 0x100 MUL SUB AND PUSH1 0x2 SWAP1 DIV SWAP1 PUSH1 0x0 MSTORE PUSH1 0x20 PUSH1 0x0 KECCAK256 SWAP1 PUSH1 0x1F ADD PUSH1 0x20 SWAP1 DIV DUP2 ADD SWAP3 DUP3 PUSH1 0x1F LT PUSH2 0x1614 JUMPI DUP1 CALLDATALOAD PUSH1 0xFF NOT AND DUP4 DUP1 ADD OR DUP6 SSTORE PUSH2 0x1642 JUMP JUMPDEST DUP3 DUP1 ADD PUSH1 0x1 ADD DUP6 SSTORE DUP3 ISZERO PUSH2 0x1642 JUMPI SWAP2 DUP3 ADD JUMPDEST DUP3 DUP2 GT ISZERO PUSH2 0x1641 JUMPI DUP3 CALLDATALOAD DUP3 SSTORE SWAP2 PUSH1 0x20 ADD SWAP2 SWAP1 PUSH1 0x1 ADD SWAP1 PUSH2 0x1626 JUMP JUMPDEST JUMPDEST POP SWAP1 POP PUSH2 0x164F SWAP2 SWAP1 PUSH2 0x1705 JUMP JUMPDEST POP SWAP1 JUMP JUMPDEST DUP2 SLOAD DUP2 DUP4 SSTORE DUP2 DUP2 ISZERO GT PUSH2 0x1680 JUMPI PUSH1 0x3 MUL DUP2 PUSH1 0x3 MUL DUP4 PUSH1 0x0 MSTORE PUSH1 0x20 PUSH1 0x0 KECCAK256 SWAP2 DUP3 ADD SWAP2 ADD PUSH2 0x167F SWAP2 SWAP1 PUSH2 0x172A JUMP JUMPDEST JUMPDEST POP POP POP JUMP JUMPDEST DUP3 DUP1 SLOAD PUSH1 0x1 DUP2 PUSH1 0x1 AND ISZERO PUSH2 0x100 MUL SUB AND PUSH1 0x2 SWAP1 DIV SWAP1 PUSH1 0x0 MSTORE PUSH1 0x20 PUSH1 0x0 KECCAK256 SWAP1 PUSH1 0x1F ADD PUSH1 0x20 SWAP1 DIV DUP2 ADD SWAP3 DUP3 PUSH1 0x1F LT PUSH2 0x16C6 JUMPI DUP1 MLOAD PUSH1 0xFF NOT AND DUP4 DUP1 ADD OR DUP6 SSTORE PUSH2 0x16F4 JUMP JUMPDEST DUP3 DUP1 ADD PUSH1 0x1 ADD DUP6 SSTORE DUP3 ISZERO PUSH2 0x16F4 JUMPI SWAP2 DUP3 ADD JUMPDEST DUP3 DUP2 GT ISZERO PUSH2 0x16F3 JUMPI DUP3 MLOAD DUP3 SSTORE SWAP2 PUSH1 0x20 ADD SWAP2 SWAP1 PUSH1 0x1 ADD SWAP1 PUSH2 0x16D8 JUMP JUMPDEST JUMPDEST POP SWAP1 POP PUSH2 0x1701 SWAP2 SWAP1 PUSH2 0x1705 JUMP JUMPDEST POP SWAP1 JUMP JUMPDEST PUSH2 0x1727 SWAP2 SWAP1 JUMPDEST DUP1 DUP3 GT ISZERO PUSH2 0x1723 JUMPI PUSH1 0x0 DUP2 PUSH1 0x0 SWAP1 SSTORE POP PUSH1 0x1 ADD PUSH2 0x170B JUMP JUMPDEST POP SWAP1 JUMP JUMPDEST SWAP1 JUMP JUMPDEST PUSH2 0x17B6 SWAP2 SWAP1 JUMPDEST DUP1 DUP3 GT ISZERO PUSH2 0x17B2 JUMPI PUSH1 0x0 DUP1 DUP3 ADD PUSH1 0x0 PUSH2 0x1749 SWAP2 SWAP1 PUSH2 0x17B9 JUMP JUMPDEST PUSH1 0x1 DUP3 ADD PUSH1 0x0 SWAP1 SSTORE PUSH1 0x2 DUP3 ADD PUSH1 0x0 PUSH2 0x100 EXP DUP2 SLOAD SWAP1 PUSH4 0xFFFFFFFF MUL NOT AND SWAP1 SSTORE PUSH1 0x2 DUP3 ADD PUSH1 0x4 PUSH2 0x100 EXP DUP2 SLOAD SWAP1 PUSH4 0xFFFFFFFF MUL NOT AND SWAP1 SSTORE PUSH1 0x2 DUP3 ADD PUSH1 0x8 PUSH2 0x100 EXP DUP2 SLOAD SWAP1 PUSH2 0xFFFF MUL NOT AND SWAP1 SSTORE PUSH1 0x2 DUP3 ADD PUSH1 0xA PUSH2 0x100 EXP DUP2 SLOAD SWAP1 PUSH2 0xFFFF MUL NOT AND SWAP1 SSTORE POP PUSH1 0x3 ADD PUSH2 0x1730 JUMP JUMPDEST POP SWAP1 JUMP JUMPDEST SWAP1 JUMP JUMPDEST POP DUP1 SLOAD PUSH1 0x1 DUP2 PUSH1 0x1 AND ISZERO PUSH2 0x100 MUL SUB AND PUSH1 0x2 SWAP1 DIV PUSH1 0x0 DUP3 SSTORE DUP1 PUSH1 0x1F LT PUSH2 0x17DF JUMPI POP PUSH2 0x17FE JUMP JUMPDEST PUSH1 0x1F ADD PUSH1 0x20 SWAP1 DIV SWAP1 PUSH1 0x0 MSTORE PUSH1 0x20 PUSH1 0x0 KECCAK256 SWAP1 DUP2 ADD SWAP1 PUSH2 0x17FD SWAP2 SWAP1 PUSH2 0x1705 JUMP JUMPDEST JUMPDEST POP JUMP STOP LOG1 PUSH6 0x627A7A723058 KECCAK256 PUSH1 0xF5 SWAP6 DUP6 ADDRESS SWAP12 PUSH11 0xCA57D0A23F6583BF682DD2 0x4f SWAP6 LOG1 MSTORE8 RETURNDATACOPY PUSH19 0x59861FC1CC4B12E60029000000000000000000 "
				},
				"gasEstimates": {
					"creation": {
						"codeDepositCost": "1237800",
						"executionCost": "126829",
						"totalCost": "1364629"
					},
					"external": {
						"attack(uint256,uint256)": "infinite",
						"changeDna(uint256,uint256)": "21585",
						"changeName(uint256,string)": "infinite",
						"createRandomZombie(string)": "infinite",
						"feedOnKitty(uint256,uint256)": "infinite",
						"getZombiesByOwner(address)": "infinite",
						"owner()": "610",
						"setKittyContractAddress(address)": "20823",
						"setLevelUpFee(uint256)": "20674",
						"transferOwnership(address)": "22802",
						"withdraw()": "infinite",
						"zombieToOwner(uint256)": "621",
						"zombies(uint256)": "infinite"
					},
					"internal": {
						"randMod(uint256)": "infinite"
					}
				},
				"methodIdentifiers": {
					"attack(uint256,uint256)": "e1fa7638",
					"changeDna(uint256,uint256)": "5faf2880",
					"changeName(uint256,string)": "c39cbef1",
					"createRandomZombie(string)": "7bff0a01",
					"feedOnKitty(uint256,uint256)": "17a7f4cc",
					"getZombiesByOwner(address)": "4412e104",
					"owner()": "8da5cb5b",
					"setKittyContractAddress(address)": "5f4623f1",
					"setLevelUpFee(uint256)": "ccf670f8",
					"transferOwnership(address)": "f2fde38b",
					"withdraw()": "3ccfd60b",
					"zombieToOwner(uint256)": "528b7b8f",
					"zombies(uint256)": "2052465e"
				}
			},
			"userdoc": {
				"methods": {}
			}
		}
	}
}