{
	"contracts/zombiehelper.sol": {
		"ZombieHelper": {
			"abi": [
				{
					"constant": false,
					"inputs": [
						{
							"name": "_zombieId",
							"type": "uint256"
						},
						{
							"name": "_kittyId",
							"type": "uint256"
						}
					],
					"name": "feedOnKitty",
					"outputs": [],
					"payable": false,
					"stateMutability": "nonpayable",
					"type": "function"
				},
				{
					"constant": true,
					"inputs": [
						{
							"name": "",
							"type": "uint256"
						}
					],
					"name": "zombies",
					"outputs": [
						{
							"name": "name",
							"type": "string"
						},
						{
							"name": "dna",
							"type": "uint256"
						},
						{
							"name": "level",
							"type": "uint32"
						},
						{
							"name": "readyTime",
							"type": "uint32"
						}
					],
					"payable": false,
					"stateMutability": "view",
					"type": "function"
				},
				{
					"constant": true,
					"inputs": [
						{
							"name": "_owner",
							"type": "address"
						}
					],
					"name": "getZombiesByOwner",
					"outputs": [
						{
							"name": "",
							"type": "uint256[]"
						}
					],
					"payable": false,
					"stateMutability": "view",
					"type": "function"
				},
				{
					"constant": true,
					"inputs": [
						{
							"name": "",
							"type": "uint256"
						}
					],
					"name": "zombieToOwner",
					"outputs": [
						{
							"name": "",
							"type": "address"
						}
					],
					"payable": false,
					"stateMutability": "view",
					"type": "function"
				},
				{
					"constant": false,
					"inputs": [
						{
							"name": "_address",
							"type": "address"
						}
					],
					"name": "setKittyContractAddress",
					"outputs": [],
					"payable": false,
					"stateMutability": "nonpayable",
					"type": "function"
				},
				{
					"constant": false,
					"inputs": [
						{
							"name": "_zombieId",
							"type": "uint256"
						},
						{
							"name": "_newDna",
							"type": "uint256"
						}
					],
					"name": "changeDna",
					"outputs": [],
					"payable": false,
					"stateMutability": "nonpayable",
					"type": "function"
				},
				{
					"constant": false,
					"inputs": [
						{
							"name": "_zombieId",
							"type": "uint256"
						},
						{
							"name": "_targetDna",
							"type": "uint256"
						},
						{
							"name": "_species",
							"type": "string"
						}
					],
					"name": "feedAndMultiply",
					"outputs": [],
					"payable": false,
					"stateMutability": "nonpayable",
					"type": "function"
				},
				{
					"constant": false,
					"inputs": [
						{
							"name": "_name",
							"type": "string"
						}
					],
					"name": "createRandomZombie",
					"outputs": [],
					"payable": false,
					"stateMutability": "nonpayable",
					"type": "function"
				},
				{
					"constant": true,
					"inputs": [],
					"name": "owner",
					"outputs": [
						{
							"name": "",
							"type": "address"
						}
					],
					"payable": false,
					"stateMutability": "view",
					"type": "function"
				},
				{
					"constant": false,
					"inputs": [
						{
							"name": "_zombieId",
							"type": "uint256"
						},
						{
							"name": "_newName",
							"type": "string"
						}
					],
					"name": "changeName",
					"outputs": [],
					"payable": false,
					"stateMutability": "nonpayable",
					"type": "function"
				},
				{
					"constant": false,
					"inputs": [
						{
							"name": "newOwner",
							"type": "address"
						}
					],
					"name": "transferOwnership",
					"outputs": [],
					"payable": false,
					"stateMutability": "nonpayable",
					"type": "function"
				},
				{
					"anonymous": false,
					"inputs": [
						{
							"indexed": false,
							"name": "zombieId",
							"type": "uint256"
						},
						{
							"indexed": false,
							"name": "name",
							"type": "string"
						},
						{
							"indexed": false,
							"name": "dna",
							"type": "uint256"
						}
					],
					"name": "NewZombie",
					"type": "event"
				},
				{
					"anonymous": false,
					"inputs": [
						{
							"indexed": true,
							"name": "previousOwner",
							"type": "address"
						},
						{
							"indexed": true,
							"name": "newOwner",
							"type": "address"
						}
					],
					"name": "OwnershipTransferred",
					"type": "event"
				}
			],
			"devdoc": {
				"methods": {
					"transferOwnership(address)": {
						"details": "Allows the current owner to transfer control of the contract to a newOwner.",
						"params": {
							"newOwner": "The address to transfer ownership to."
						}
					}
				}
			},
			"evm": {
				"assembly": "    /* \"contracts/zombiehelper.sol\":57:957  contract ZombieHelper is ZombieFeeding {... */\n  mstore(0x40, 0x60)\n    /* \"contracts/zombiefactory.sol\":169:171  16 */\n  0x10\n    /* \"contracts/zombiefactory.sol\":152:171  uint dnaDigits = 16 */\n  0x1\n  sstore\n    /* \"contracts/zombiefactory.sol\":201:210  dnaDigits */\n  sload(0x1)\n    /* \"contracts/zombiefactory.sol\":195:197  10 */\n  0xa\n    /* \"contracts/zombiefactory.sol\":195:210  10 ** dnaDigits */\n  exp\n    /* \"contracts/zombiefactory.sol\":177:210  uint dnaModulus = 10 ** dnaDigits */\n  0x2\n  sstore\n    /* \"contracts/zombiefactory.sol\":236:242  1 days */\n  0x15180\n    /* \"contracts/zombiefactory.sol\":216:242  uint cooldownTime = 1 days */\n  0x3\n  sstore\n    /* \"contracts/ownable.sol\":506:516  msg.sender */\n  caller\n    /* \"contracts/ownable.sol\":498:503  owner */\n  0x0\n  dup1\n    /* \"contracts/ownable.sol\":498:516  owner = msg.sender */\n  0x100\n  exp\n  dup2\n  sload\n  dup2\n  0xffffffffffffffffffffffffffffffffffffffff\n  mul\n  not\n  and\n  swap1\n  dup4\n  0xffffffffffffffffffffffffffffffffffffffff\n  and\n  mul\n  or\n  swap1\n  sstore\n  pop\n    /* \"contracts/zombiehelper.sol\":57:957  contract ZombieHelper is ZombieFeeding {... */\n  dataSize(sub_0)\n  dup1\n  dataOffset(sub_0)\n  0x0\n  codecopy\n  0x0\n  return\nstop\n\nsub_0: assembly {\n        /* \"contracts/zombiehelper.sol\":57:957  contract ZombieHelper is ZombieFeeding {... */\n      mstore(0x40, 0x60)\n      jumpi(tag_1, lt(calldatasize, 0x4))\n      calldataload(0x0)\n      0x100000000000000000000000000000000000000000000000000000000\n      swap1\n      div\n      0xffffffff\n      and\n      dup1\n      0x17a7f4cc\n      eq\n      tag_2\n      jumpi\n      dup1\n      0x2052465e\n      eq\n      tag_3\n      jumpi\n      dup1\n      0x4412e104\n      eq\n      tag_4\n      jumpi\n      dup1\n      0x528b7b8f\n      eq\n      tag_5\n      jumpi\n      dup1\n      0x5f4623f1\n      eq\n      tag_6\n      jumpi\n      dup1\n      0x5faf2880\n      eq\n      tag_7\n      jumpi\n      dup1\n      0x6b0bfc80\n      eq\n      tag_8\n      jumpi\n      dup1\n      0x7bff0a01\n      eq\n      tag_9\n      jumpi\n      dup1\n      0x8da5cb5b\n      eq\n      tag_10\n      jumpi\n      dup1\n      0xc39cbef1\n      eq\n      tag_11\n      jumpi\n      dup1\n      0xf2fde38b\n      eq\n      tag_12\n      jumpi\n    tag_1:\n      0x0\n      dup1\n      revert\n        /* \"contracts/zombiefeeding.sol\":1003:1197  function feedOnKitty(uint _zombieId, uint _kittyId) public {... */\n    tag_2:\n      jumpi(tag_13, iszero(callvalue))\n      0x0\n      dup1\n      revert\n    tag_13:\n      tag_14\n      0x4\n      dup1\n      dup1\n      calldataload\n      swap1\n      0x20\n      add\n      swap1\n      swap2\n      swap1\n      dup1\n      calldataload\n      swap1\n      0x20\n      add\n      swap1\n      swap2\n      swap1\n      pop\n      pop\n      jump(tag_15)\n    tag_14:\n      stop\n        /* \"contracts/zombiefactory.sol\":355:378  Zombie[] public zombies */\n    tag_3:\n      jumpi(tag_16, iszero(callvalue))\n      0x0\n      dup1\n      revert\n    tag_16:\n      tag_17\n      0x4\n      dup1\n      dup1\n      calldataload\n      swap1\n      0x20\n      add\n      swap1\n      swap2\n      swap1\n      pop\n      pop\n      jump(tag_18)\n    tag_17:\n      mload(0x40)\n      dup1\n      dup1\n      0x20\n      add\n      dup6\n      dup2\n      mstore\n      0x20\n      add\n      dup5\n      0xffffffff\n      and\n      0xffffffff\n      and\n      dup2\n      mstore\n      0x20\n      add\n      dup4\n      0xffffffff\n      and\n      0xffffffff\n      and\n      dup2\n      mstore\n      0x20\n      add\n      dup3\n      dup2\n      sub\n      dup3\n      mstore\n      dup7\n      dup2\n      dup2\n      sload\n      0x1\n      dup2\n      0x1\n      and\n      iszero\n      0x100\n      mul\n      sub\n      and\n      0x2\n      swap1\n      div\n      dup2\n      mstore\n      0x20\n      add\n      swap2\n      pop\n      dup1\n      sload\n      0x1\n      dup2\n      0x1\n      and\n      iszero\n      0x100\n      mul\n      sub\n      and\n      0x2\n      swap1\n      div\n      dup1\n      iszero\n      tag_19\n      jumpi\n      dup1\n      0x1f\n      lt\n      tag_20\n      jumpi\n      0x100\n      dup1\n      dup4\n      sload\n      div\n      mul\n      dup4\n      mstore\n      swap2\n      0x20\n      add\n      swap2\n      jump(tag_19)\n    tag_20:\n      dup3\n      add\n      swap2\n      swap1\n      0x0\n      mstore\n      keccak256(0x0, 0x20)\n      swap1\n    tag_21:\n      dup2\n      sload\n      dup2\n      mstore\n      swap1\n      0x1\n      add\n      swap1\n      0x20\n      add\n      dup1\n      dup4\n      gt\n      tag_21\n      jumpi\n      dup3\n      swap1\n      sub\n      0x1f\n      and\n      dup3\n      add\n      swap2\n    tag_19:\n      pop\n      pop\n      swap6\n      pop\n      pop\n      pop\n      pop\n      pop\n      pop\n      mload(0x40)\n      dup1\n      swap2\n      sub\n      swap1\n      return\n        /* \"contracts/zombiehelper.sol\":588:954  function getZombiesByOwner(address _owner) external view returns(uint[]) {... */\n    tag_4:\n      jumpi(tag_22, iszero(callvalue))\n      0x0\n      dup1\n      revert\n    tag_22:\n      tag_23\n      0x4\n      dup1\n      dup1\n      calldataload\n      0xffffffffffffffffffffffffffffffffffffffff\n      and\n      swap1\n      0x20\n      add\n      swap1\n      swap2\n      swap1\n      pop\n      pop\n      jump(tag_24)\n    tag_23:\n      mload(0x40)\n      dup1\n      dup1\n      0x20\n      add\n      dup3\n      dup2\n      sub\n      dup3\n      mstore\n      dup4\n      dup2\n      dup2\n      mload\n      dup2\n      mstore\n      0x20\n      add\n      swap2\n      pop\n      dup1\n      mload\n      swap1\n      0x20\n      add\n      swap1\n      0x20\n      mul\n      dup1\n      dup4\n      dup4\n        /* \"--CODEGEN--\":23:24   */\n      0x0\n        /* \"--CODEGEN--\":8:108   */\n    tag_25:\n        /* \"--CODEGEN--\":33:36   */\n      dup4\n        /* \"--CODEGEN--\":30:31   */\n      dup2\n        /* \"--CODEGEN--\":27:29   */\n      lt\n        /* \"--CODEGEN--\":8:108   */\n      iszero\n      tag_26\n      jumpi\n        /* \"--CODEGEN--\":99:100   */\n      dup1\n        /* \"--CODEGEN--\":94:97   */\n      dup3\n        /* \"--CODEGEN--\":90:93   */\n      add\n        /* \"--CODEGEN--\":84:89   */\n      mload\n        /* \"--CODEGEN--\":80:81   */\n      dup2\n        /* \"--CODEGEN--\":75:78   */\n      dup5\n        /* \"--CODEGEN--\":71:74   */\n      add\n        /* \"--CODEGEN--\":64:70   */\n      mstore\n        /* \"--CODEGEN--\":52:54   */\n      0x20\n        /* \"--CODEGEN--\":49:50   */\n      dup2\n        /* \"--CODEGEN--\":45:48   */\n      add\n        /* \"--CODEGEN--\":40:55   */\n      swap1\n      pop\n        /* \"--CODEGEN--\":8:108   */\n      jump(tag_25)\n    tag_26:\n        /* \"--CODEGEN--\":12:26   */\n      pop\n        /* \"--CODEGEN--\":3:112   */\n      pop\n      pop\n      pop\n      swap1\n      pop\n      add\n      swap3\n      pop\n      pop\n      pop\n      mload(0x40)\n      dup1\n      swap2\n      sub\n      swap1\n      return\n        /* \"contracts/zombiefactory.sol\":385:431  mapping (uint => address) public zombieToOwner */\n    tag_5:\n      jumpi(tag_28, iszero(callvalue))\n      0x0\n      dup1\n      revert\n    tag_28:\n      tag_29\n      0x4\n      dup1\n      dup1\n      calldataload\n      swap1\n      0x20\n      add\n      swap1\n      swap2\n      swap1\n      pop\n      pop\n      jump(tag_30)\n    tag_29:\n      mload(0x40)\n      dup1\n      dup3\n      0xffffffffffffffffffffffffffffffffffffffff\n      and\n      0xffffffffffffffffffffffffffffffffffffffff\n      and\n      dup2\n      mstore\n      0x20\n      add\n      swap2\n      pop\n      pop\n      mload(0x40)\n      dup1\n      swap2\n      sub\n      swap1\n      return\n        /* \"contracts/zombiefeeding.sol\":452:573  function setKittyContractAddress(address _address) external onlyOwner {... */\n    tag_6:\n      jumpi(tag_31, iszero(callvalue))\n      0x0\n      dup1\n      revert\n    tag_31:\n      tag_32\n      0x4\n      dup1\n      dup1\n      calldataload\n      0xffffffffffffffffffffffffffffffffffffffff\n      and\n      swap1\n      0x20\n      add\n      swap1\n      swap2\n      swap1\n      pop\n      pop\n      jump(tag_33)\n    tag_32:\n      stop\n        /* \"contracts/zombiehelper.sol\":404:584  function changeDna(uint _zombieId, uint _newDna) external aboveLevel(20, _zombieId) {... */\n    tag_7:\n      jumpi(tag_34, iszero(callvalue))\n      0x0\n      dup1\n      revert\n    tag_34:\n      tag_35\n      0x4\n      dup1\n      dup1\n      calldataload\n      swap1\n      0x20\n      add\n      swap1\n      swap2\n      swap1\n      dup1\n      calldataload\n      swap1\n      0x20\n      add\n      swap1\n      swap2\n      swap1\n      pop\n      pop\n      jump(tag_36)\n    tag_35:\n      stop\n        /* \"contracts/zombiefeeding.sol\":577:999  function feedAndMultiply(uint _zombieId, uint _targetDna, string _species) public {... */\n    tag_8:\n      jumpi(tag_37, iszero(callvalue))\n      0x0\n      dup1\n      revert\n    tag_37:\n      tag_38\n      0x4\n      dup1\n      dup1\n      calldataload\n      swap1\n      0x20\n      add\n      swap1\n      swap2\n      swap1\n      dup1\n      calldataload\n      swap1\n      0x20\n      add\n      swap1\n      swap2\n      swap1\n      dup1\n      calldataload\n      swap1\n      0x20\n      add\n      swap1\n      dup3\n      add\n      dup1\n      calldataload\n      swap1\n      0x20\n      add\n      swap1\n      dup1\n      dup1\n      0x1f\n      add\n      0x20\n      dup1\n      swap2\n      div\n      mul\n      0x20\n      add\n      mload(0x40)\n      swap1\n      dup2\n      add\n      0x40\n      mstore\n      dup1\n      swap4\n      swap3\n      swap2\n      swap1\n      dup2\n      dup2\n      mstore\n      0x20\n      add\n      dup4\n      dup4\n      dup1\n      dup3\n      dup5\n      calldatacopy\n      dup3\n      add\n      swap2\n      pop\n      pop\n      pop\n      pop\n      pop\n      pop\n      swap2\n      swap1\n      pop\n      pop\n      jump(tag_39)\n    tag_38:\n      stop\n        /* \"contracts/zombiefactory.sol\":919:1159  function createRandomZombie(string _name) public {... */\n    tag_9:\n      jumpi(tag_40, iszero(callvalue))\n      0x0\n      dup1\n      revert\n    tag_40:\n      tag_41\n      0x4\n      dup1\n      dup1\n      calldataload\n      swap1\n      0x20\n      add\n      swap1\n      dup3\n      add\n      dup1\n      calldataload\n      swap1\n      0x20\n      add\n      swap1\n      dup1\n      dup1\n      0x1f\n      add\n      0x20\n      dup1\n      swap2\n      div\n      mul\n      0x20\n      add\n      mload(0x40)\n      swap1\n      dup2\n      add\n      0x40\n      mstore\n      dup1\n      swap4\n      swap3\n      swap2\n      swap1\n      dup2\n      dup2\n      mstore\n      0x20\n      add\n      dup4\n      dup4\n      dup1\n      dup3\n      dup5\n      calldatacopy\n      dup3\n      add\n      swap2\n      pop\n      pop\n      pop\n      pop\n      pop\n      pop\n      swap2\n      swap1\n      pop\n      pop\n      jump(tag_42)\n    tag_41:\n      stop\n        /* \"contracts/ownable.sol\":237:257  address public owner */\n    tag_10:\n      jumpi(tag_43, iszero(callvalue))\n      0x0\n      dup1\n      revert\n    tag_43:\n      tag_44\n      jump(tag_45)\n    tag_44:\n      mload(0x40)\n      dup1\n      dup3\n      0xffffffffffffffffffffffffffffffffffffffff\n      and\n      0xffffffffffffffffffffffffffffffffffffffff\n      and\n      dup2\n      mstore\n      0x20\n      add\n      swap2\n      pop\n      pop\n      mload(0x40)\n      dup1\n      swap2\n      sub\n      swap1\n      return\n        /* \"contracts/zombiehelper.sol\":215:400  function changeName(uint _zombieId, string _newName) external aboveLevel(2, _zombieId) {... */\n    tag_11:\n      jumpi(tag_46, iszero(callvalue))\n      0x0\n      dup1\n      revert\n    tag_46:\n      tag_47\n      0x4\n      dup1\n      dup1\n      calldataload\n      swap1\n      0x20\n      add\n      swap1\n      swap2\n      swap1\n      dup1\n      calldataload\n      swap1\n      0x20\n      add\n      swap1\n      dup3\n      add\n      dup1\n      calldataload\n      swap1\n      0x20\n      add\n      swap2\n      swap1\n      swap2\n      swap3\n      swap1\n      pop\n      pop\n      jump(tag_48)\n    tag_47:\n      stop\n        /* \"contracts/ownable.sol\":831:1000  function transferOwnership(address newOwner) public onlyOwner {... */\n    tag_12:\n      jumpi(tag_49, iszero(callvalue))\n      0x0\n      dup1\n      revert\n    tag_49:\n      tag_50\n      0x4\n      dup1\n      dup1\n      calldataload\n      0xffffffffffffffffffffffffffffffffffffffff\n      and\n      swap1\n      0x20\n      add\n      swap1\n      swap2\n      swap1\n      pop\n      pop\n      jump(tag_51)\n    tag_50:\n      stop\n        /* \"contracts/zombiefeeding.sol\":1003:1197  function feedOnKitty(uint _zombieId, uint _kittyId) public {... */\n    tag_15:\n        /* \"contracts/zombiefeeding.sol\":1068:1081  uint kittyDna */\n      0x0\n        /* \"contracts/zombiefeeding.sol\":1109:1122  kittyContract */\n      0x7\n      0x0\n      swap1\n      sload\n      swap1\n      0x100\n      exp\n      swap1\n      div\n      0xffffffffffffffffffffffffffffffffffffffff\n      and\n        /* \"contracts/zombiefeeding.sol\":1109:1131  kittyContract.getKitty */\n      0xffffffffffffffffffffffffffffffffffffffff\n      and\n      0xe98b7f4d\n        /* \"contracts/zombiefeeding.sol\":1132:1140  _kittyId */\n      dup4\n        /* \"contracts/zombiefeeding.sol\":1109:1141  kittyContract.getKitty(_kittyId) */\n      mstore(add(0x140, mload(0x40)), 0x0)\n      mload(0x40)\n      dup3\n      0xffffffff\n      and\n      0x100000000000000000000000000000000000000000000000000000000\n      mul\n      dup2\n      mstore\n      0x4\n      add\n      dup1\n      dup3\n      dup2\n      mstore\n      0x20\n      add\n      swap2\n      pop\n      pop\n      0x140\n      mload(0x40)\n      dup1\n      dup4\n      sub\n      dup2\n      0x0\n      dup8\n      dup1\n      extcodesize\n      iszero\n      iszero\n      tag_53\n      jumpi\n      0x0\n      dup1\n      revert\n    tag_53:\n      sub(gas, 0x2c6)\n      call\n      iszero\n      iszero\n      tag_54\n      jumpi\n      0x0\n      dup1\n      revert\n    tag_54:\n      pop\n      pop\n      pop\n      mload(0x40)\n      dup1\n      mload\n      swap1\n      0x20\n      add\n      dup1\n      mload\n      swap1\n      0x20\n      add\n      dup1\n      mload\n      swap1\n      0x20\n      add\n      dup1\n      mload\n      swap1\n      0x20\n      add\n      dup1\n      mload\n      swap1\n      0x20\n      add\n      dup1\n      mload\n      swap1\n      0x20\n      add\n      dup1\n      mload\n      swap1\n      0x20\n      add\n      dup1\n      mload\n      swap1\n      0x20\n      add\n      dup1\n      mload\n      swap1\n      0x20\n      add\n      dup1\n      mload\n      swap1\n      pop\n        /* \"contracts/zombiefeeding.sol\":1087:1141  (,,,,,,,,,kittyDna) = kittyContract.getKitty(_kittyId) */\n      swap1\n      swap2\n      swap3\n      swap4\n      swap5\n      swap6\n      swap7\n      swap8\n      swap9\n      pop\n      swap1\n      swap2\n      swap3\n      swap4\n      swap5\n      swap6\n      swap7\n      swap8\n      pop\n      swap1\n      swap2\n      swap3\n      swap4\n      swap5\n      swap6\n      swap7\n      pop\n      swap1\n      swap2\n      swap3\n      swap4\n      swap5\n      swap6\n      pop\n      swap1\n      swap2\n      swap3\n      swap4\n      swap5\n      pop\n      swap1\n      swap2\n      swap3\n      swap4\n      pop\n      swap1\n      swap2\n      swap3\n      pop\n      swap1\n      swap2\n      pop\n      swap1\n      pop\n      dup1\n      swap2\n      pop\n      pop\n        /* \"contracts/zombiefeeding.sol\":1147:1192  feedAndMultiply(_zombieId, kittyDna, \"kitty\") */\n      tag_55\n        /* \"contracts/zombiefeeding.sol\":1163:1172  _zombieId */\n      dup4\n        /* \"contracts/zombiefeeding.sol\":1174:1182  kittyDna */\n      dup3\n        /* \"contracts/zombiefeeding.sol\":1147:1192  feedAndMultiply(_zombieId, kittyDna, \"kitty\") */\n      0x40\n      dup1\n      mload\n      swap1\n      dup2\n      add\n      0x40\n      mstore\n      dup1\n      0x5\n      dup2\n      mstore\n      0x20\n      add\n      0x6b69747479000000000000000000000000000000000000000000000000000000\n      dup2\n      mstore\n      pop\n        /* \"contracts/zombiefeeding.sol\":1147:1162  feedAndMultiply */\n      tag_39\n        /* \"contracts/zombiefeeding.sol\":1147:1192  feedAndMultiply(_zombieId, kittyDna, \"kitty\") */\n      jump\t// in\n    tag_55:\n        /* \"contracts/zombiefeeding.sol\":1003:1197  function feedOnKitty(uint _zombieId, uint _kittyId) public {... */\n      pop\n      pop\n      pop\n      jump\t// out\n        /* \"contracts/zombiefactory.sol\":355:378  Zombie[] public zombies */\n    tag_18:\n      0x4\n      dup2\n      dup2\n      sload\n      dup2\n      lt\n      iszero\n      iszero\n      tag_56\n      jumpi\n      invalid\n    tag_56:\n      swap1\n      0x0\n      mstore\n      keccak256(0x0, 0x20)\n      swap1\n      0x3\n      mul\n      add\n      0x0\n      swap2\n      pop\n      swap1\n      pop\n      dup1\n      0x0\n      add\n      swap1\n      dup1\n      0x1\n      add\n      sload\n      swap1\n      dup1\n      0x2\n      add\n      0x0\n      swap1\n      sload\n      swap1\n      0x100\n      exp\n      swap1\n      div\n      0xffffffff\n      and\n      swap1\n      dup1\n      0x2\n      add\n      0x4\n      swap1\n      sload\n      swap1\n      0x100\n      exp\n      swap1\n      div\n      0xffffffff\n      and\n      swap1\n      pop\n      dup5\n      jump\t// out\n        /* \"contracts/zombiehelper.sol\":588:954  function getZombiesByOwner(address _owner) external view returns(uint[]) {... */\n    tag_24:\n        /* \"contracts/zombiehelper.sol\":653:659  uint[] */\n      tag_58\n      jump\t// in(tag_59)\n    tag_58:\n        /* \"contracts/zombiehelper.sol\":667:687  uint[] memory result */\n      tag_60\n      jump\t// in(tag_59)\n    tag_60:\n        /* \"contracts/zombiehelper.sol\":764:776  uint counter */\n      0x0\n        /* \"contracts/zombiehelper.sol\":791:797  uint i */\n      dup1\n        /* \"contracts/zombiehelper.sol\":701:717  ownerZombieCount */\n      0x6\n        /* \"contracts/zombiehelper.sol\":701:725  ownerZombieCount[_owner] */\n      0x0\n        /* \"contracts/zombiehelper.sol\":718:724  _owner */\n      dup7\n        /* \"contracts/zombiehelper.sol\":701:725  ownerZombieCount[_owner] */\n      0xffffffffffffffffffffffffffffffffffffffff\n      and\n      0xffffffffffffffffffffffffffffffffffffffff\n      and\n      dup2\n      mstore\n      0x20\n      add\n      swap1\n      dup2\n      mstore\n      0x20\n      add\n      0x0\n      keccak256\n      sload\n        /* \"contracts/zombiehelper.sol\":690:726  new uint[](ownerZombieCount[_owner]) */\n      mload(0x40)\n      dup1\n      msize\n      lt\n      tag_62\n      jumpi\n      pop\n      msize\n    tag_62:\n      swap1\n      dup1\n      dup3\n      mstore\n      dup1\n      0x20\n      mul\n      0x20\n      add\n      dup3\n      add\n      0x40\n      mstore\n      pop\n        /* \"contracts/zombiehelper.sol\":667:726  uint[] memory result = new uint[](ownerZombieCount[_owner]) */\n      swap3\n      pop\n        /* \"contracts/zombiehelper.sol\":779:780  0 */\n      0x0\n        /* \"contracts/zombiehelper.sol\":764:780  uint counter = 0 */\n      swap2\n      pop\n        /* \"contracts/zombiehelper.sol\":800:801  0 */\n      0x0\n        /* \"contracts/zombiehelper.sol\":791:801  uint i = 0 */\n      swap1\n      pop\n        /* \"contracts/zombiehelper.sol\":786:931  for (uint i = 0; i < zombies.length; i++) {... */\n    tag_64:\n        /* \"contracts/zombiehelper.sol\":807:814  zombies */\n      0x4\n        /* \"contracts/zombiehelper.sol\":807:821  zombies.length */\n      dup1\n      sload\n      swap1\n      pop\n        /* \"contracts/zombiehelper.sol\":803:804  i */\n      dup2\n        /* \"contracts/zombiehelper.sol\":803:821  i < zombies.length */\n      lt\n        /* \"contracts/zombiehelper.sol\":786:931  for (uint i = 0; i < zombies.length; i++) {... */\n      iszero\n      tag_65\n      jumpi\n        /* \"contracts/zombiehelper.sol\":859:865  _owner */\n      dup5\n        /* \"contracts/zombiehelper.sol\":839:865  zombieToOwner[i] == _owner */\n      0xffffffffffffffffffffffffffffffffffffffff\n      and\n        /* \"contracts/zombiehelper.sol\":839:852  zombieToOwner */\n      0x5\n        /* \"contracts/zombiehelper.sol\":839:855  zombieToOwner[i] */\n      0x0\n        /* \"contracts/zombiehelper.sol\":853:854  i */\n      dup4\n        /* \"contracts/zombiehelper.sol\":839:855  zombieToOwner[i] */\n      dup2\n      mstore\n      0x20\n      add\n      swap1\n      dup2\n      mstore\n      0x20\n      add\n      0x0\n      keccak256\n      0x0\n      swap1\n      sload\n      swap1\n      0x100\n      exp\n      swap1\n      div\n      0xffffffffffffffffffffffffffffffffffffffff\n      and\n        /* \"contracts/zombiehelper.sol\":839:865  zombieToOwner[i] == _owner */\n      0xffffffffffffffffffffffffffffffffffffffff\n      and\n      eq\n        /* \"contracts/zombiehelper.sol\":836:924  if(zombieToOwner[i] == _owner) {... */\n      iszero\n      tag_67\n      jumpi\n        /* \"contracts/zombiehelper.sol\":895:896  i */\n      dup1\n        /* \"contracts/zombiehelper.sol\":877:883  result */\n      dup4\n        /* \"contracts/zombiehelper.sol\":884:891  counter */\n      dup4\n        /* \"contracts/zombiehelper.sol\":877:892  result[counter] */\n      dup2\n      mload\n      dup2\n      lt\n      iszero\n      iszero\n      tag_68\n      jumpi\n      invalid\n    tag_68:\n      swap1\n      0x20\n      add\n      swap1\n      0x20\n      mul\n      add\n        /* \"contracts/zombiehelper.sol\":877:896  result[counter] = i */\n      dup2\n      dup2\n      mstore\n      pop\n      pop\n        /* \"contracts/zombiehelper.sol\":906:915  counter++ */\n      dup2\n      dup1\n      0x1\n      add\n      swap3\n      pop\n      pop\n        /* \"contracts/zombiehelper.sol\":836:924  if(zombieToOwner[i] == _owner) {... */\n    tag_67:\n        /* \"contracts/zombiehelper.sol\":823:826  i++ */\n      dup1\n      dup1\n      0x1\n      add\n      swap2\n      pop\n      pop\n        /* \"contracts/zombiehelper.sol\":786:931  for (uint i = 0; i < zombies.length; i++) {... */\n      jump(tag_64)\n    tag_65:\n        /* \"contracts/zombiehelper.sol\":943:949  result */\n      dup3\n        /* \"contracts/zombiehelper.sol\":936:949  return result */\n      swap4\n      pop\n        /* \"contracts/zombiehelper.sol\":588:954  function getZombiesByOwner(address _owner) external view returns(uint[]) {... */\n      pop\n      pop\n      pop\n      swap2\n      swap1\n      pop\n      jump\t// out\n        /* \"contracts/zombiefactory.sol\":385:431  mapping (uint => address) public zombieToOwner */\n    tag_30:\n      mstore(0x20, 0x5)\n      dup1\n      0x0\n      mstore\n      keccak256(0x0, 0x40)\n      0x0\n      swap2\n      pop\n      sload\n      swap1\n      0x100\n      exp\n      swap1\n      div\n      0xffffffffffffffffffffffffffffffffffffffff\n      and\n      dup2\n      jump\t// out\n        /* \"contracts/zombiefeeding.sol\":452:573  function setKittyContractAddress(address _address) external onlyOwner {... */\n    tag_33:\n        /* \"contracts/ownable.sol\":651:656  owner */\n      0x0\n      dup1\n      swap1\n      sload\n      swap1\n      0x100\n      exp\n      swap1\n      div\n      0xffffffffffffffffffffffffffffffffffffffff\n      and\n        /* \"contracts/ownable.sol\":637:656  msg.sender == owner */\n      0xffffffffffffffffffffffffffffffffffffffff\n      and\n        /* \"contracts/ownable.sol\":637:647  msg.sender */\n      caller\n        /* \"contracts/ownable.sol\":637:656  msg.sender == owner */\n      0xffffffffffffffffffffffffffffffffffffffff\n      and\n      eq\n        /* \"contracts/ownable.sol\":629:657  require(msg.sender == owner) */\n      iszero\n      iszero\n      tag_70\n      jumpi\n      0x0\n      dup1\n      revert\n    tag_70:\n        /* \"contracts/zombiefeeding.sol\":559:567  _address */\n      dup1\n        /* \"contracts/zombiefeeding.sol\":528:541  kittyContract */\n      0x7\n      0x0\n        /* \"contracts/zombiefeeding.sol\":528:568  kittyContract = KittyInterface(_address) */\n      0x100\n      exp\n      dup2\n      sload\n      dup2\n      0xffffffffffffffffffffffffffffffffffffffff\n      mul\n      not\n      and\n      swap1\n      dup4\n      0xffffffffffffffffffffffffffffffffffffffff\n      and\n      mul\n      or\n      swap1\n      sstore\n      pop\n        /* \"contracts/zombiefeeding.sol\":452:573  function setKittyContractAddress(address _address) external onlyOwner {... */\n      pop\n      jump\t// out\n        /* \"contracts/zombiehelper.sol\":404:584  function changeDna(uint _zombieId, uint _newDna) external aboveLevel(20, _zombieId) {... */\n    tag_36:\n        /* \"contracts/zombiehelper.sol\":473:475  20 */\n      0x14\n        /* \"contracts/zombiehelper.sol\":477:486  _zombieId */\n      dup3\n        /* \"contracts/zombiehelper.sol\":192:198  _level */\n      dup2\n        /* \"contracts/zombiehelper.sol\":164:171  zombies */\n      0x4\n        /* \"contracts/zombiehelper.sol\":172:181  _zombieId */\n      dup3\n        /* \"contracts/zombiehelper.sol\":164:182  zombies[_zombieId] */\n      dup2\n      sload\n      dup2\n      lt\n      iszero\n      iszero\n      tag_73\n      jumpi\n      invalid\n    tag_73:\n      swap1\n      0x0\n      mstore\n      keccak256(0x0, 0x20)\n      swap1\n      0x3\n      mul\n      add\n        /* \"contracts/zombiehelper.sol\":164:188  zombies[_zombieId].level */\n      0x2\n      add\n      0x0\n      swap1\n      sload\n      swap1\n      0x100\n      exp\n      swap1\n      div\n      0xffffffff\n      and\n        /* \"contracts/zombiehelper.sol\":164:198  zombies[_zombieId].level >= _level */\n      0xffffffff\n      and\n      lt\n      iszero\n        /* \"contracts/zombiehelper.sol\":156:199  require(zombies[_zombieId].level >= _level) */\n      iszero\n      iszero\n      tag_75\n      jumpi\n      0x0\n      dup1\n      revert\n    tag_75:\n        /* \"contracts/zombiehelper.sol\":516:529  zombieToOwner */\n      0x5\n        /* \"contracts/zombiehelper.sol\":516:540  zombieToOwner[_zombieId] */\n      0x0\n        /* \"contracts/zombiehelper.sol\":530:539  _zombieId */\n      dup6\n        /* \"contracts/zombiehelper.sol\":516:540  zombieToOwner[_zombieId] */\n      dup2\n      mstore\n      0x20\n      add\n      swap1\n      dup2\n      mstore\n      0x20\n      add\n      0x0\n      keccak256\n      0x0\n      swap1\n      sload\n      swap1\n      0x100\n      exp\n      swap1\n      div\n      0xffffffffffffffffffffffffffffffffffffffff\n      and\n        /* \"contracts/zombiehelper.sol\":502:540  msg.sender == zombieToOwner[_zombieId] */\n      0xffffffffffffffffffffffffffffffffffffffff\n      and\n        /* \"contracts/zombiehelper.sol\":502:512  msg.sender */\n      caller\n        /* \"contracts/zombiehelper.sol\":502:540  msg.sender == zombieToOwner[_zombieId] */\n      0xffffffffffffffffffffffffffffffffffffffff\n      and\n      eq\n        /* \"contracts/zombiehelper.sol\":494:541  require(msg.sender == zombieToOwner[_zombieId]) */\n      iszero\n      iszero\n      tag_77\n      jumpi\n      0x0\n      dup1\n      revert\n    tag_77:\n        /* \"contracts/zombiehelper.sol\":572:579  _newDna */\n      dup3\n        /* \"contracts/zombiehelper.sol\":547:554  zombies */\n      0x4\n        /* \"contracts/zombiehelper.sol\":555:564  _zombieId */\n      dup6\n        /* \"contracts/zombiehelper.sol\":547:565  zombies[_zombieId] */\n      dup2\n      sload\n      dup2\n      lt\n      iszero\n      iszero\n      tag_78\n      jumpi\n      invalid\n    tag_78:\n      swap1\n      0x0\n      mstore\n      keccak256(0x0, 0x20)\n      swap1\n      0x3\n      mul\n      add\n        /* \"contracts/zombiehelper.sol\":547:569  zombies[_zombieId].dna */\n      0x1\n      add\n        /* \"contracts/zombiehelper.sol\":547:579  zombies[_zombieId].dna = _newDna */\n      dup2\n      swap1\n      sstore\n      pop\n        /* \"contracts/zombiehelper.sol\":404:584  function changeDna(uint _zombieId, uint _newDna) external aboveLevel(20, _zombieId) {... */\n      pop\n      pop\n      pop\n      pop\n      jump\t// out\n        /* \"contracts/zombiefeeding.sol\":577:999  function feedAndMultiply(uint _zombieId, uint _targetDna, string _species) public {... */\n    tag_39:\n        /* \"contracts/zombiefeeding.sol\":718:741  Zombie storage myZombie */\n      0x0\n        /* \"contracts/zombiefeeding.sol\":810:821  uint newDna */\n      dup1\n        /* \"contracts/zombiefeeding.sol\":687:700  zombieToOwner */\n      0x5\n        /* \"contracts/zombiefeeding.sol\":687:711  zombieToOwner[_zombieId] */\n      0x0\n        /* \"contracts/zombiefeeding.sol\":701:710  _zombieId */\n      dup7\n        /* \"contracts/zombiefeeding.sol\":687:711  zombieToOwner[_zombieId] */\n      dup2\n      mstore\n      0x20\n      add\n      swap1\n      dup2\n      mstore\n      0x20\n      add\n      0x0\n      keccak256\n      0x0\n      swap1\n      sload\n      swap1\n      0x100\n      exp\n      swap1\n      div\n      0xffffffffffffffffffffffffffffffffffffffff\n      and\n        /* \"contracts/zombiefeeding.sol\":673:711  msg.sender == zombieToOwner[_zombieId] */\n      0xffffffffffffffffffffffffffffffffffffffff\n      and\n        /* \"contracts/zombiefeeding.sol\":673:683  msg.sender */\n      caller\n        /* \"contracts/zombiefeeding.sol\":673:711  msg.sender == zombieToOwner[_zombieId] */\n      0xffffffffffffffffffffffffffffffffffffffff\n      and\n      eq\n        /* \"contracts/zombiefeeding.sol\":665:712  require(msg.sender == zombieToOwner[_zombieId]) */\n      iszero\n      iszero\n      tag_81\n      jumpi\n      0x0\n      dup1\n      revert\n    tag_81:\n        /* \"contracts/zombiefeeding.sol\":744:751  zombies */\n      0x4\n        /* \"contracts/zombiefeeding.sol\":752:761  _zombieId */\n      dup6\n        /* \"contracts/zombiefeeding.sol\":744:762  zombies[_zombieId] */\n      dup2\n      sload\n      dup2\n      lt\n      iszero\n      iszero\n      tag_82\n      jumpi\n      invalid\n    tag_82:\n      swap1\n      0x0\n      mstore\n      keccak256(0x0, 0x20)\n      swap1\n      0x3\n      mul\n      add\n        /* \"contracts/zombiefeeding.sol\":718:762  Zombie storage myZombie = zombies[_zombieId] */\n      swap2\n      pop\n        /* \"contracts/zombiefeeding.sol\":794:804  dnaModulus */\n      sload(0x2)\n        /* \"contracts/zombiefeeding.sol\":781:791  _targetDna */\n      dup5\n        /* \"contracts/zombiefeeding.sol\":781:804  _targetDna % dnaModulus */\n      dup2\n      iszero\n      iszero\n      tag_84\n      jumpi\n      invalid\n    tag_84:\n      mod\n        /* \"contracts/zombiefeeding.sol\":768:804  _targetDna = _targetDna % dnaModulus */\n      swap4\n      pop\n        /* \"contracts/zombiefeeding.sol\":854:855  2 */\n      0x2\n        /* \"contracts/zombiefeeding.sol\":840:850  _targetDna */\n      dup5\n        /* \"contracts/zombiefeeding.sol\":825:833  myZombie */\n      dup4\n        /* \"contracts/zombiefeeding.sol\":825:837  myZombie.dna */\n      0x1\n      add\n      sload\n        /* \"contracts/zombiefeeding.sol\":825:850  myZombie.dna + _targetDna */\n      add\n        /* \"contracts/zombiefeeding.sol\":824:855  (myZombie.dna + _targetDna) / 2 */\n      dup2\n      iszero\n      iszero\n      tag_85\n      jumpi\n      invalid\n    tag_85:\n      div\n        /* \"contracts/zombiefeeding.sol\":810:855  uint newDna = (myZombie.dna + _targetDna) / 2 */\n      swap1\n      pop\n        /* \"contracts/zombiefeeding.sol\":888:906  keccak256(\"kitty\") */\n      mload(0x40)\n      dup1\n      dup1\n      0x6b69747479000000000000000000000000000000000000000000000000000000\n      dup2\n      mstore\n      pop\n      0x5\n      add\n      swap1\n      pop\n      mload(0x40)\n      dup1\n      swap2\n      sub\n      swap1\n      keccak256\n        /* \"contracts/zombiefeeding.sol\":865:906  keccak256(_species) == keccak256(\"kitty\") */\n      not(0x0)\n      and\n        /* \"contracts/zombiefeeding.sol\":875:883  _species */\n      dup4\n        /* \"contracts/zombiefeeding.sol\":865:884  keccak256(_species) */\n      mload(0x40)\n      dup1\n      dup3\n      dup1\n      mload\n      swap1\n      0x20\n      add\n      swap1\n      dup1\n      dup4\n      dup4\n        /* \"--CODEGEN--\":36:189   */\n    tag_86:\n        /* \"--CODEGEN--\":66:68   */\n      0x20\n        /* \"--CODEGEN--\":61:64   */\n      dup4\n        /* \"--CODEGEN--\":58:60   */\n      lt\n        /* \"--CODEGEN--\":51:57   */\n      iszero\n        /* \"--CODEGEN--\":36:189   */\n      iszero\n      tag_87\n      jumpi\n        /* \"--CODEGEN--\":182:185   */\n      dup1\n        /* \"--CODEGEN--\":176:181   */\n      mload\n        /* \"--CODEGEN--\":171:174   */\n      dup3\n        /* \"--CODEGEN--\":164:170   */\n      mstore\n        /* \"--CODEGEN--\":98:100   */\n      0x20\n        /* \"--CODEGEN--\":93:96   */\n      dup3\n        /* \"--CODEGEN--\":89:92   */\n      add\n        /* \"--CODEGEN--\":82:101   */\n      swap2\n      pop\n        /* \"--CODEGEN--\":123:125   */\n      0x20\n        /* \"--CODEGEN--\":118:121   */\n      dup2\n        /* \"--CODEGEN--\":114:117   */\n      add\n        /* \"--CODEGEN--\":107:126   */\n      swap1\n      pop\n        /* \"--CODEGEN--\":148:150   */\n      0x20\n        /* \"--CODEGEN--\":143:146   */\n      dup4\n        /* \"--CODEGEN--\":139:142   */\n      sub\n        /* \"--CODEGEN--\":132:151   */\n      swap3\n      pop\n        /* \"--CODEGEN--\":36:189   */\n      jump(tag_86)\n    tag_87:\n        /* \"--CODEGEN--\":274:275   */\n      0x1\n        /* \"--CODEGEN--\":267:270   */\n      dup4\n        /* \"--CODEGEN--\":263:265   */\n      0x20\n        /* \"--CODEGEN--\":259:262   */\n      sub\n        /* \"--CODEGEN--\":254:257   */\n      0x100\n        /* \"--CODEGEN--\":250:253   */\n      exp\n        /* \"--CODEGEN--\":246:249   */\n      sub\n        /* \"--CODEGEN--\":315:319   */\n      dup1\n        /* \"--CODEGEN--\":311:314   */\n      not\n        /* \"--CODEGEN--\":305:308   */\n      dup3\n        /* \"--CODEGEN--\":299:304   */\n      mload\n        /* \"--CODEGEN--\":295:298   */\n      and\n        /* \"--CODEGEN--\":356:360   */\n      dup2\n        /* \"--CODEGEN--\":350:353   */\n      dup5\n        /* \"--CODEGEN--\":344:349   */\n      mload\n        /* \"--CODEGEN--\":340:343   */\n      and\n        /* \"--CODEGEN--\":389:396   */\n      dup1\n        /* \"--CODEGEN--\":380:387   */\n      dup3\n        /* \"--CODEGEN--\":377:379   */\n      or\n        /* \"--CODEGEN--\":372:375   */\n      dup6\n        /* \"--CODEGEN--\":365:371   */\n      mstore\n        /* \"--CODEGEN--\":3:402   */\n      pop\n      pop\n      pop\n      pop\n      pop\n      pop\n      swap1\n      pop\n      add\n      swap2\n      pop\n      pop\n      mload(0x40)\n      dup1\n      swap2\n      sub\n      swap1\n      keccak256\n        /* \"contracts/zombiefeeding.sol\":865:906  keccak256(_species) == keccak256(\"kitty\") */\n      not(0x0)\n      and\n      eq\n        /* \"contracts/zombiefeeding.sol\":861:958  if (keccak256(_species) == keccak256(\"kitty\")) {... */\n      iszero\n      tag_89\n      jumpi\n        /* \"contracts/zombiefeeding.sol\":949:951  99 */\n      0x63\n        /* \"contracts/zombiefeeding.sol\":943:946  100 */\n      0x64\n        /* \"contracts/zombiefeeding.sol\":934:940  newDna */\n      dup3\n        /* \"contracts/zombiefeeding.sol\":934:946  newDna % 100 */\n      dup2\n      iszero\n      iszero\n      tag_90\n      jumpi\n      invalid\n    tag_90:\n      mod\n        /* \"contracts/zombiefeeding.sol\":925:931  newDna */\n      dup3\n        /* \"contracts/zombiefeeding.sol\":925:946  newDna - newDna % 100 */\n      sub\n        /* \"contracts/zombiefeeding.sol\":925:951  newDna - newDna % 100 + 99 */\n      add\n        /* \"contracts/zombiefeeding.sol\":916:951  newDna = newDna - newDna % 100 + 99 */\n      swap1\n      pop\n        /* \"contracts/zombiefeeding.sol\":861:958  if (keccak256(_species) == keccak256(\"kitty\")) {... */\n    tag_89:\n        /* \"contracts/zombiefeeding.sol\":963:994  _createZombie(\"NoName\", newDna) */\n      tag_91\n      0x40\n      dup1\n      mload\n      swap1\n      dup2\n      add\n      0x40\n      mstore\n      dup1\n      0x6\n      dup2\n      mstore\n      0x20\n      add\n      0x4e6f4e616d650000000000000000000000000000000000000000000000000000\n      dup2\n      mstore\n      pop\n        /* \"contracts/zombiefeeding.sol\":987:993  newDna */\n      dup3\n        /* \"contracts/zombiefeeding.sol\":963:976  _createZombie */\n      tag_92\n        /* \"contracts/zombiefeeding.sol\":963:994  _createZombie(\"NoName\", newDna) */\n      jump\t// in\n    tag_91:\n        /* \"contracts/zombiefeeding.sol\":577:999  function feedAndMultiply(uint _zombieId, uint _targetDna, string _species) public {... */\n      pop\n      pop\n      pop\n      pop\n      pop\n      jump\t// out\n        /* \"contracts/zombiefactory.sol\":919:1159  function createRandomZombie(string _name) public {... */\n    tag_42:\n        /* \"contracts/zombiefactory.sol\":1030:1042  uint randDna */\n      0x0\n        /* \"contracts/zombiefactory.sol\":1018:1019  0 */\n      dup1\n        /* \"contracts/zombiefactory.sol\":986:1002  ownerZombieCount */\n      0x6\n        /* \"contracts/zombiefactory.sol\":986:1014  ownerZombieCount[msg.sender] */\n      0x0\n        /* \"contracts/zombiefactory.sol\":1003:1013  msg.sender */\n      caller\n        /* \"contracts/zombiefactory.sol\":986:1014  ownerZombieCount[msg.sender] */\n      0xffffffffffffffffffffffffffffffffffffffff\n      and\n      0xffffffffffffffffffffffffffffffffffffffff\n      and\n      dup2\n      mstore\n      0x20\n      add\n      swap1\n      dup2\n      mstore\n      0x20\n      add\n      0x0\n      keccak256\n      sload\n        /* \"contracts/zombiefactory.sol\":986:1019  ownerZombieCount[msg.sender] == 0 */\n      eq\n        /* \"contracts/zombiefactory.sol\":978:1020  require(ownerZombieCount[msg.sender] == 0) */\n      iszero\n      iszero\n      tag_94\n      jumpi\n      0x0\n      dup1\n      revert\n    tag_94:\n        /* \"contracts/zombiefactory.sol\":1045:1070  _generateRandomDna(_name) */\n      tag_95\n        /* \"contracts/zombiefactory.sol\":1064:1069  _name */\n      dup3\n        /* \"contracts/zombiefactory.sol\":1045:1063  _generateRandomDna */\n      tag_96\n        /* \"contracts/zombiefactory.sol\":1045:1070  _generateRandomDna(_name) */\n      jump\t// in\n    tag_95:\n        /* \"contracts/zombiefactory.sol\":1030:1070  uint randDna = _generateRandomDna(_name) */\n      swap1\n      pop\n        /* \"contracts/zombiefactory.sol\":1110:1113  100 */\n      0x64\n        /* \"contracts/zombiefactory.sol\":1100:1107  randDna */\n      dup2\n        /* \"contracts/zombiefactory.sol\":1100:1113  randDna % 100 */\n      dup2\n      iszero\n      iszero\n      tag_97\n      jumpi\n      invalid\n    tag_97:\n      mod\n        /* \"contracts/zombiefactory.sol\":1090:1097  randDna */\n      dup2\n        /* \"contracts/zombiefactory.sol\":1090:1113  randDna - randDna % 100 */\n      sub\n        /* \"contracts/zombiefactory.sol\":1080:1113  randDna = randDna - randDna % 100 */\n      swap1\n      pop\n        /* \"contracts/zombiefactory.sol\":1123:1152  _createZombie(_name, randDna) */\n      tag_98\n        /* \"contracts/zombiefactory.sol\":1137:1142  _name */\n      dup3\n        /* \"contracts/zombiefactory.sol\":1144:1151  randDna */\n      dup3\n        /* \"contracts/zombiefactory.sol\":1123:1136  _createZombie */\n      tag_92\n        /* \"contracts/zombiefactory.sol\":1123:1152  _createZombie(_name, randDna) */\n      jump\t// in\n    tag_98:\n        /* \"contracts/zombiefactory.sol\":919:1159  function createRandomZombie(string _name) public {... */\n      pop\n      pop\n      jump\t// out\n        /* \"contracts/ownable.sol\":237:257  address public owner */\n    tag_45:\n      0x0\n      dup1\n      swap1\n      sload\n      swap1\n      0x100\n      exp\n      swap1\n      div\n      0xffffffffffffffffffffffffffffffffffffffff\n      and\n      dup2\n      jump\t// out\n        /* \"contracts/zombiehelper.sol\":215:400  function changeName(uint _zombieId, string _newName) external aboveLevel(2, _zombieId) {... */\n    tag_48:\n        /* \"contracts/zombiehelper.sol\":288:289  2 */\n      0x2\n        /* \"contracts/zombiehelper.sol\":291:300  _zombieId */\n      dup4\n        /* \"contracts/zombiehelper.sol\":192:198  _level */\n      dup2\n        /* \"contracts/zombiehelper.sol\":164:171  zombies */\n      0x4\n        /* \"contracts/zombiehelper.sol\":172:181  _zombieId */\n      dup3\n        /* \"contracts/zombiehelper.sol\":164:182  zombies[_zombieId] */\n      dup2\n      sload\n      dup2\n      lt\n      iszero\n      iszero\n      tag_100\n      jumpi\n      invalid\n    tag_100:\n      swap1\n      0x0\n      mstore\n      keccak256(0x0, 0x20)\n      swap1\n      0x3\n      mul\n      add\n        /* \"contracts/zombiehelper.sol\":164:188  zombies[_zombieId].level */\n      0x2\n      add\n      0x0\n      swap1\n      sload\n      swap1\n      0x100\n      exp\n      swap1\n      div\n      0xffffffff\n      and\n        /* \"contracts/zombiehelper.sol\":164:198  zombies[_zombieId].level >= _level */\n      0xffffffff\n      and\n      lt\n      iszero\n        /* \"contracts/zombiehelper.sol\":156:199  require(zombies[_zombieId].level >= _level) */\n      iszero\n      iszero\n      tag_102\n      jumpi\n      0x0\n      dup1\n      revert\n    tag_102:\n        /* \"contracts/zombiehelper.sol\":330:343  zombieToOwner */\n      0x5\n        /* \"contracts/zombiehelper.sol\":330:354  zombieToOwner[_zombieId] */\n      0x0\n        /* \"contracts/zombiehelper.sol\":344:353  _zombieId */\n      dup7\n        /* \"contracts/zombiehelper.sol\":330:354  zombieToOwner[_zombieId] */\n      dup2\n      mstore\n      0x20\n      add\n      swap1\n      dup2\n      mstore\n      0x20\n      add\n      0x0\n      keccak256\n      0x0\n      swap1\n      sload\n      swap1\n      0x100\n      exp\n      swap1\n      div\n      0xffffffffffffffffffffffffffffffffffffffff\n      and\n        /* \"contracts/zombiehelper.sol\":316:354  msg.sender == zombieToOwner[_zombieId] */\n      0xffffffffffffffffffffffffffffffffffffffff\n      and\n        /* \"contracts/zombiehelper.sol\":316:326  msg.sender */\n      caller\n        /* \"contracts/zombiehelper.sol\":316:354  msg.sender == zombieToOwner[_zombieId] */\n      0xffffffffffffffffffffffffffffffffffffffff\n      and\n      eq\n        /* \"contracts/zombiehelper.sol\":308:355  require(msg.sender == zombieToOwner[_zombieId]) */\n      iszero\n      iszero\n      tag_104\n      jumpi\n      0x0\n      dup1\n      revert\n    tag_104:\n        /* \"contracts/zombiehelper.sol\":387:395  _newName */\n      dup4\n      dup4\n        /* \"contracts/zombiehelper.sol\":361:368  zombies */\n      0x4\n        /* \"contracts/zombiehelper.sol\":369:378  _zombieId */\n      dup8\n        /* \"contracts/zombiehelper.sol\":361:379  zombies[_zombieId] */\n      dup2\n      sload\n      dup2\n      lt\n      iszero\n      iszero\n      tag_105\n      jumpi\n      invalid\n    tag_105:\n      swap1\n      0x0\n      mstore\n      keccak256(0x0, 0x20)\n      swap1\n      0x3\n      mul\n      add\n        /* \"contracts/zombiehelper.sol\":361:384  zombies[_zombieId].name */\n      0x0\n      add\n        /* \"contracts/zombiehelper.sol\":361:395  zombies[_zombieId].name = _newName */\n      swap2\n      swap1\n      tag_107\n      swap3\n      swap2\n      swap1\n      jump\t// in(tag_108)\n    tag_107:\n      pop\n        /* \"contracts/zombiehelper.sol\":215:400  function changeName(uint _zombieId, string _newName) external aboveLevel(2, _zombieId) {... */\n      pop\n      pop\n      pop\n      pop\n      pop\n      jump\t// out\n        /* \"contracts/ownable.sol\":831:1000  function transferOwnership(address newOwner) public onlyOwner {... */\n    tag_51:\n        /* \"contracts/ownable.sol\":651:656  owner */\n      0x0\n      dup1\n      swap1\n      sload\n      swap1\n      0x100\n      exp\n      swap1\n      div\n      0xffffffffffffffffffffffffffffffffffffffff\n      and\n        /* \"contracts/ownable.sol\":637:656  msg.sender == owner */\n      0xffffffffffffffffffffffffffffffffffffffff\n      and\n        /* \"contracts/ownable.sol\":637:647  msg.sender */\n      caller\n        /* \"contracts/ownable.sol\":637:656  msg.sender == owner */\n      0xffffffffffffffffffffffffffffffffffffffff\n      and\n      eq\n        /* \"contracts/ownable.sol\":629:657  require(msg.sender == owner) */\n      iszero\n      iszero\n      tag_110\n      jumpi\n      0x0\n      dup1\n      revert\n    tag_110:\n        /* \"contracts/ownable.sol\":927:928  0 */\n      0x0\n        /* \"contracts/ownable.sol\":907:929  newOwner != address(0) */\n      0xffffffffffffffffffffffffffffffffffffffff\n      and\n        /* \"contracts/ownable.sol\":907:915  newOwner */\n      dup2\n        /* \"contracts/ownable.sol\":907:929  newOwner != address(0) */\n      0xffffffffffffffffffffffffffffffffffffffff\n      and\n      eq\n      iszero\n        /* \"contracts/ownable.sol\":899:930  require(newOwner != address(0)) */\n      iszero\n      iszero\n      tag_112\n      jumpi\n      0x0\n      dup1\n      revert\n    tag_112:\n        /* \"contracts/ownable.sol\":964:972  newOwner */\n      dup1\n        /* \"contracts/ownable.sol\":936:973  OwnershipTransferred(owner, newOwner) */\n      0xffffffffffffffffffffffffffffffffffffffff\n      and\n        /* \"contracts/ownable.sol\":957:962  owner */\n      0x0\n      dup1\n      swap1\n      sload\n      swap1\n      0x100\n      exp\n      swap1\n      div\n      0xffffffffffffffffffffffffffffffffffffffff\n      and\n        /* \"contracts/ownable.sol\":936:973  OwnershipTransferred(owner, newOwner) */\n      0xffffffffffffffffffffffffffffffffffffffff\n      and\n      0x8be0079c531659141344cd1fd0a4f28419497f9722a3daafe3b4186f6b6457e0\n      mload(0x40)\n      mload(0x40)\n      dup1\n      swap2\n      sub\n      swap1\n      log3\n        /* \"contracts/ownable.sol\":987:995  newOwner */\n      dup1\n        /* \"contracts/ownable.sol\":979:984  owner */\n      0x0\n      dup1\n        /* \"contracts/ownable.sol\":979:995  owner = newOwner */\n      0x100\n      exp\n      dup2\n      sload\n      dup2\n      0xffffffffffffffffffffffffffffffffffffffff\n      mul\n      not\n      and\n      swap1\n      dup4\n      0xffffffffffffffffffffffffffffffffffffffff\n      and\n      mul\n      or\n      swap1\n      sstore\n      pop\n        /* \"contracts/ownable.sol\":831:1000  function transferOwnership(address newOwner) public onlyOwner {... */\n      pop\n      jump\t// out\n        /* \"contracts/zombiefactory.sol\":486:754  function _createZombie(string _name, uint _dna) internal {... */\n    tag_92:\n        /* \"contracts/zombiefactory.sol\":553:560  uint id */\n      0x0\n        /* \"contracts/zombiefactory.sol\":630:631  1 */\n      0x1\n        /* \"contracts/zombiefactory.sol\":563:570  zombies */\n      0x4\n        /* \"contracts/zombiefactory.sol\":563:627  zombies.push(Zombie(_name, _dna, 1, uint32(now + cooldownTime))) */\n      dup1\n      sload\n      dup1\n      0x1\n      add\n      dup3\n      dup2\n      tag_114\n      swap2\n      swap1\n      jump\t// in(tag_115)\n    tag_114:\n      swap2\n      0x0\n      mstore\n      keccak256(0x0, 0x20)\n      swap1\n      0x3\n      mul\n      add\n      0x0\n        /* \"contracts/zombiefactory.sol\":576:626  Zombie(_name, _dna, 1, uint32(now + cooldownTime)) */\n      0x80\n      mload(0x40)\n      swap1\n      dup2\n      add\n      0x40\n      mstore\n      dup1\n        /* \"contracts/zombiefactory.sol\":583:588  _name */\n      dup9\n        /* \"contracts/zombiefactory.sol\":576:626  Zombie(_name, _dna, 1, uint32(now + cooldownTime)) */\n      dup2\n      mstore\n      0x20\n      add\n        /* \"contracts/zombiefactory.sol\":590:594  _dna */\n      dup8\n        /* \"contracts/zombiefactory.sol\":576:626  Zombie(_name, _dna, 1, uint32(now + cooldownTime)) */\n      dup2\n      mstore\n      0x20\n      add\n        /* \"contracts/zombiefactory.sol\":596:597  1 */\n      0x1\n        /* \"contracts/zombiefactory.sol\":576:626  Zombie(_name, _dna, 1, uint32(now + cooldownTime)) */\n      0xffffffff\n      and\n      dup2\n      mstore\n      0x20\n      add\n        /* \"contracts/zombiefactory.sol\":612:624  cooldownTime */\n      sload(0x3)\n        /* \"contracts/zombiefactory.sol\":606:609  now */\n      timestamp\n        /* \"contracts/zombiefactory.sol\":606:624  now + cooldownTime */\n      add\n        /* \"contracts/zombiefactory.sol\":576:626  Zombie(_name, _dna, 1, uint32(now + cooldownTime)) */\n      0xffffffff\n      and\n      dup2\n      mstore\n      pop\n        /* \"contracts/zombiefactory.sol\":563:627  zombies.push(Zombie(_name, _dna, 1, uint32(now + cooldownTime))) */\n      swap1\n      swap2\n      swap1\n      swap2\n      pop\n      0x0\n      dup3\n      add\n      mload\n      dup2\n      0x0\n      add\n      swap1\n      dup1\n      mload\n      swap1\n      0x20\n      add\n      swap1\n      tag_117\n      swap3\n      swap2\n      swap1\n      jump\t// in(tag_118)\n    tag_117:\n      pop\n      0x20\n      dup3\n      add\n      mload\n      dup2\n      0x1\n      add\n      sstore\n      0x40\n      dup3\n      add\n      mload\n      dup2\n      0x2\n      add\n      exp(0x100, 0x0)\n      dup2\n      sload\n      dup2\n      0xffffffff\n      mul\n      not\n      and\n      swap1\n      dup4\n      0xffffffff\n      and\n      mul\n      or\n      swap1\n      sstore\n      pop\n      0x60\n      dup3\n      add\n      mload\n      dup2\n      0x2\n      add\n      exp(0x100, 0x4)\n      dup2\n      sload\n      dup2\n      0xffffffff\n      mul\n      not\n      and\n      swap1\n      dup4\n      0xffffffff\n      and\n      mul\n      or\n      swap1\n      sstore\n      pop\n      pop\n      pop\n        /* \"contracts/zombiefactory.sol\":563:631  zombies.push(Zombie(_name, _dna, 1, uint32(now + cooldownTime))) - 1 */\n      sub\n        /* \"contracts/zombiefactory.sol\":553:631  uint id = zombies.push(Zombie(_name, _dna, 1, uint32(now + cooldownTime))) - 1 */\n      swap1\n      pop\n        /* \"contracts/zombiefactory.sol\":661:671  msg.sender */\n      caller\n        /* \"contracts/zombiefactory.sol\":641:654  zombieToOwner */\n      0x5\n        /* \"contracts/zombiefactory.sol\":641:658  zombieToOwner[id] */\n      0x0\n        /* \"contracts/zombiefactory.sol\":655:657  id */\n      dup4\n        /* \"contracts/zombiefactory.sol\":641:658  zombieToOwner[id] */\n      dup2\n      mstore\n      0x20\n      add\n      swap1\n      dup2\n      mstore\n      0x20\n      add\n      0x0\n      keccak256\n      0x0\n        /* \"contracts/zombiefactory.sol\":641:671  zombieToOwner[id] = msg.sender */\n      0x100\n      exp\n      dup2\n      sload\n      dup2\n      0xffffffffffffffffffffffffffffffffffffffff\n      mul\n      not\n      and\n      swap1\n      dup4\n      0xffffffffffffffffffffffffffffffffffffffff\n      and\n      mul\n      or\n      swap1\n      sstore\n      pop\n        /* \"contracts/zombiefactory.sol\":681:697  ownerZombieCount */\n      0x6\n        /* \"contracts/zombiefactory.sol\":681:709  ownerZombieCount[msg.sender] */\n      0x0\n        /* \"contracts/zombiefactory.sol\":698:708  msg.sender */\n      caller\n        /* \"contracts/zombiefactory.sol\":681:709  ownerZombieCount[msg.sender] */\n      0xffffffffffffffffffffffffffffffffffffffff\n      and\n      0xffffffffffffffffffffffffffffffffffffffff\n      and\n      dup2\n      mstore\n      0x20\n      add\n      swap1\n      dup2\n      mstore\n      0x20\n      add\n      0x0\n      keccak256\n      0x0\n        /* \"contracts/zombiefactory.sol\":681:711  ownerZombieCount[msg.sender]++ */\n      dup2\n      sload\n      dup1\n      swap3\n      swap2\n      swap1\n      0x1\n      add\n      swap2\n      swap1\n      pop\n      sstore\n      pop\n        /* \"contracts/zombiefactory.sol\":721:747  NewZombie(id, _name, _dna) */\n      0x88f026aacbbecc90c18411df4b1185fd8d9be2470f1962f192bf84a27d0704b7\n        /* \"contracts/zombiefactory.sol\":731:733  id */\n      dup2\n        /* \"contracts/zombiefactory.sol\":735:740  _name */\n      dup5\n        /* \"contracts/zombiefactory.sol\":742:746  _dna */\n      dup5\n        /* \"contracts/zombiefactory.sol\":721:747  NewZombie(id, _name, _dna) */\n      mload(0x40)\n      dup1\n      dup5\n      dup2\n      mstore\n      0x20\n      add\n      dup1\n      0x20\n      add\n      dup4\n      dup2\n      mstore\n      0x20\n      add\n      dup3\n      dup2\n      sub\n      dup3\n      mstore\n      dup5\n      dup2\n      dup2\n      mload\n      dup2\n      mstore\n      0x20\n      add\n      swap2\n      pop\n      dup1\n      mload\n      swap1\n      0x20\n      add\n      swap1\n      dup1\n      dup4\n      dup4\n        /* \"--CODEGEN--\":23:24   */\n      0x0\n        /* \"--CODEGEN--\":8:108   */\n    tag_119:\n        /* \"--CODEGEN--\":33:36   */\n      dup4\n        /* \"--CODEGEN--\":30:31   */\n      dup2\n        /* \"--CODEGEN--\":27:29   */\n      lt\n        /* \"--CODEGEN--\":8:108   */\n      iszero\n      tag_120\n      jumpi\n        /* \"--CODEGEN--\":99:100   */\n      dup1\n        /* \"--CODEGEN--\":94:97   */\n      dup3\n        /* \"--CODEGEN--\":90:93   */\n      add\n        /* \"--CODEGEN--\":84:89   */\n      mload\n        /* \"--CODEGEN--\":80:81   */\n      dup2\n        /* \"--CODEGEN--\":75:78   */\n      dup5\n        /* \"--CODEGEN--\":71:74   */\n      add\n        /* \"--CODEGEN--\":64:70   */\n      mstore\n        /* \"--CODEGEN--\":52:54   */\n      0x20\n        /* \"--CODEGEN--\":49:50   */\n      dup2\n        /* \"--CODEGEN--\":45:48   */\n      add\n        /* \"--CODEGEN--\":40:55   */\n      swap1\n      pop\n        /* \"--CODEGEN--\":8:108   */\n      jump(tag_119)\n    tag_120:\n        /* \"--CODEGEN--\":12:26   */\n      pop\n        /* \"--CODEGEN--\":3:112   */\n      pop\n      pop\n      pop\n      swap1\n      pop\n      swap1\n      dup2\n      add\n      swap1\n      0x1f\n      and\n      dup1\n      iszero\n      tag_122\n      jumpi\n      dup1\n      dup3\n      sub\n      dup1\n      mload\n      0x1\n      dup4\n      0x20\n      sub\n      0x100\n      exp\n      sub\n      not\n      and\n      dup2\n      mstore\n      0x20\n      add\n      swap2\n      pop\n    tag_122:\n      pop\n      swap5\n      pop\n      pop\n      pop\n      pop\n      pop\n      mload(0x40)\n      dup1\n      swap2\n      sub\n      swap1\n      log1\n        /* \"contracts/zombiefactory.sol\":486:754  function _createZombie(string _name, uint _dna) internal {... */\n      pop\n      pop\n      pop\n      jump\t// out\n        /* \"contracts/zombiefactory.sol\":760:913  function _generateRandomDna(string _str) private view returns (uint) {... */\n    tag_96:\n        /* \"contracts/zombiefactory.sol\":823:827  uint */\n      0x0\n        /* \"contracts/zombiefactory.sol\":839:848  uint rand */\n      dup1\n        /* \"contracts/zombiefactory.sol\":866:870  _str */\n      dup3\n        /* \"contracts/zombiefactory.sol\":856:871  keccak256(_str) */\n      mload(0x40)\n      dup1\n      dup3\n      dup1\n      mload\n      swap1\n      0x20\n      add\n      swap1\n      dup1\n      dup4\n      dup4\n        /* \"--CODEGEN--\":36:189   */\n    tag_124:\n        /* \"--CODEGEN--\":66:68   */\n      0x20\n        /* \"--CODEGEN--\":61:64   */\n      dup4\n        /* \"--CODEGEN--\":58:60   */\n      lt\n        /* \"--CODEGEN--\":51:57   */\n      iszero\n        /* \"--CODEGEN--\":36:189   */\n      iszero\n      tag_125\n      jumpi\n        /* \"--CODEGEN--\":182:185   */\n      dup1\n        /* \"--CODEGEN--\":176:181   */\n      mload\n        /* \"--CODEGEN--\":171:174   */\n      dup3\n        /* \"--CODEGEN--\":164:170   */\n      mstore\n        /* \"--CODEGEN--\":98:100   */\n      0x20\n        /* \"--CODEGEN--\":93:96   */\n      dup3\n        /* \"--CODEGEN--\":89:92   */\n      add\n        /* \"--CODEGEN--\":82:101   */\n      swap2\n      pop\n        /* \"--CODEGEN--\":123:125   */\n      0x20\n        /* \"--CODEGEN--\":118:121   */\n      dup2\n        /* \"--CODEGEN--\":114:117   */\n      add\n        /* \"--CODEGEN--\":107:126   */\n      swap1\n      pop\n        /* \"--CODEGEN--\":148:150   */\n      0x20\n        /* \"--CODEGEN--\":143:146   */\n      dup4\n        /* \"--CODEGEN--\":139:142   */\n      sub\n        /* \"--CODEGEN--\":132:151   */\n      swap3\n      pop\n        /* \"--CODEGEN--\":36:189   */\n      jump(tag_124)\n    tag_125:\n        /* \"--CODEGEN--\":274:275   */\n      0x1\n        /* \"--CODEGEN--\":267:270   */\n      dup4\n        /* \"--CODEGEN--\":263:265   */\n      0x20\n        /* \"--CODEGEN--\":259:262   */\n      sub\n        /* \"--CODEGEN--\":254:257   */\n      0x100\n        /* \"--CODEGEN--\":250:253   */\n      exp\n        /* \"--CODEGEN--\":246:249   */\n      sub\n        /* \"--CODEGEN--\":315:319   */\n      dup1\n        /* \"--CODEGEN--\":311:314   */\n      not\n        /* \"--CODEGEN--\":305:308   */\n      dup3\n        /* \"--CODEGEN--\":299:304   */\n      mload\n        /* \"--CODEGEN--\":295:298   */\n      and\n        /* \"--CODEGEN--\":356:360   */\n      dup2\n        /* \"--CODEGEN--\":350:353   */\n      dup5\n        /* \"--CODEGEN--\":344:349   */\n      mload\n        /* \"--CODEGEN--\":340:343   */\n      and\n        /* \"--CODEGEN--\":389:396   */\n      dup1\n        /* \"--CODEGEN--\":380:387   */\n      dup3\n        /* \"--CODEGEN--\":377:379   */\n      or\n        /* \"--CODEGEN--\":372:375   */\n      dup6\n        /* \"--CODEGEN--\":365:371   */\n      mstore\n        /* \"--CODEGEN--\":3:402   */\n      pop\n      pop\n      pop\n      pop\n      pop\n      pop\n      swap1\n      pop\n      add\n      swap2\n      pop\n      pop\n      mload(0x40)\n      dup1\n      swap2\n      sub\n      swap1\n      keccak256\n        /* \"contracts/zombiefactory.sol\":851:872  uint(keccak256(_str)) */\n      0x1\n      swap1\n      div\n        /* \"contracts/zombiefactory.sol\":839:872  uint rand = uint(keccak256(_str)) */\n      swap1\n      pop\n        /* \"contracts/zombiefactory.sol\":896:906  dnaModulus */\n      sload(0x2)\n        /* \"contracts/zombiefactory.sol\":889:893  rand */\n      dup2\n        /* \"contracts/zombiefactory.sol\":889:906  rand % dnaModulus */\n      dup2\n      iszero\n      iszero\n      tag_127\n      jumpi\n      invalid\n    tag_127:\n      mod\n        /* \"contracts/zombiefactory.sol\":882:906  return rand % dnaModulus */\n      swap2\n      pop\n        /* \"contracts/zombiefactory.sol\":760:913  function _generateRandomDna(string _str) private view returns (uint) {... */\n      pop\n      swap2\n      swap1\n      pop\n      jump\t// out\n        /* \"contracts/zombiehelper.sol\":57:957  contract ZombieHelper is ZombieFeeding {... */\n    tag_59:\n      0x20\n      mload(0x40)\n      swap1\n      dup2\n      add\n      0x40\n      mstore\n      dup1\n      0x0\n      dup2\n      mstore\n      pop\n      swap1\n      jump\t// out\n    tag_108:\n      dup3\n      dup1\n      sload\n      0x1\n      dup2\n      0x1\n      and\n      iszero\n      0x100\n      mul\n      sub\n      and\n      0x2\n      swap1\n      div\n      swap1\n      0x0\n      mstore\n      keccak256(0x0, 0x20)\n      swap1\n      0x1f\n      add\n      0x20\n      swap1\n      div\n      dup2\n      add\n      swap3\n      dup3\n      0x1f\n      lt\n      tag_129\n      jumpi\n      dup1\n      calldataload\n      not(0xff)\n      and\n      dup4\n      dup1\n      add\n      or\n      dup6\n      sstore\n      jump(tag_128)\n    tag_129:\n      dup3\n      dup1\n      add\n      0x1\n      add\n      dup6\n      sstore\n      dup3\n      iszero\n      tag_128\n      jumpi\n      swap2\n      dup3\n      add\n    tag_130:\n      dup3\n      dup2\n      gt\n      iszero\n      tag_131\n      jumpi\n      dup3\n      calldataload\n      dup3\n      sstore\n      swap2\n      0x20\n      add\n      swap2\n      swap1\n      0x1\n      add\n      swap1\n      jump(tag_130)\n    tag_131:\n    tag_128:\n      pop\n      swap1\n      pop\n      tag_132\n      swap2\n      swap1\n      jump\t// in(tag_133)\n    tag_132:\n      pop\n      swap1\n      jump\t// out\n    tag_115:\n      dup2\n      sload\n      dup2\n      dup4\n      sstore\n      dup2\n      dup2\n      iszero\n      gt\n      tag_134\n      jumpi\n      0x3\n      mul\n      dup2\n      0x3\n      mul\n      dup4\n      0x0\n      mstore\n      keccak256(0x0, 0x20)\n      swap2\n      dup3\n      add\n      swap2\n      add\n      tag_135\n      swap2\n      swap1\n      jump\t// in(tag_136)\n    tag_135:\n    tag_134:\n      pop\n      pop\n      pop\n      jump\t// out\n    tag_118:\n      dup3\n      dup1\n      sload\n      0x1\n      dup2\n      0x1\n      and\n      iszero\n      0x100\n      mul\n      sub\n      and\n      0x2\n      swap1\n      div\n      swap1\n      0x0\n      mstore\n      keccak256(0x0, 0x20)\n      swap1\n      0x1f\n      add\n      0x20\n      swap1\n      div\n      dup2\n      add\n      swap3\n      dup3\n      0x1f\n      lt\n      tag_138\n      jumpi\n      dup1\n      mload\n      not(0xff)\n      and\n      dup4\n      dup1\n      add\n      or\n      dup6\n      sstore\n      jump(tag_137)\n    tag_138:\n      dup3\n      dup1\n      add\n      0x1\n      add\n      dup6\n      sstore\n      dup3\n      iszero\n      tag_137\n      jumpi\n      swap2\n      dup3\n      add\n    tag_139:\n      dup3\n      dup2\n      gt\n      iszero\n      tag_140\n      jumpi\n      dup3\n      mload\n      dup3\n      sstore\n      swap2\n      0x20\n      add\n      swap2\n      swap1\n      0x1\n      add\n      swap1\n      jump(tag_139)\n    tag_140:\n    tag_137:\n      pop\n      swap1\n      pop\n      tag_141\n      swap2\n      swap1\n      jump\t// in(tag_133)\n    tag_141:\n      pop\n      swap1\n      jump\t// out\n    tag_133:\n      tag_142\n      swap2\n      swap1\n    tag_143:\n      dup1\n      dup3\n      gt\n      iszero\n      tag_144\n      jumpi\n      0x0\n      dup2\n      0x0\n      swap1\n      sstore\n      pop\n      0x1\n      add\n      jump(tag_143)\n    tag_144:\n      pop\n      swap1\n      jump\n    tag_142:\n      swap1\n      jump\t// out\n    tag_136:\n      tag_145\n      swap2\n      swap1\n    tag_146:\n      dup1\n      dup3\n      gt\n      iszero\n      tag_147\n      jumpi\n      0x0\n      dup1\n      dup3\n      add\n      0x0\n      tag_148\n      swap2\n      swap1\n      jump\t// in(tag_149)\n    tag_148:\n      0x1\n      dup3\n      add\n      0x0\n      swap1\n      sstore\n      0x2\n      dup3\n      add\n      exp(0x100, 0x0)\n      dup2\n      sload\n      swap1\n      0xffffffff\n      mul\n      not\n      and\n      swap1\n      sstore\n      0x2\n      dup3\n      add\n      exp(0x100, 0x4)\n      dup2\n      sload\n      swap1\n      0xffffffff\n      mul\n      not\n      and\n      swap1\n      sstore\n      pop\n      0x3\n      add\n      jump(tag_146)\n    tag_147:\n      pop\n      swap1\n      jump\n    tag_145:\n      swap1\n      jump\t// out\n    tag_149:\n      pop\n      dup1\n      sload\n      0x1\n      dup2\n      0x1\n      and\n      iszero\n      0x100\n      mul\n      sub\n      and\n      0x2\n      swap1\n      div\n      0x0\n      dup3\n      sstore\n      dup1\n      0x1f\n      lt\n      tag_151\n      jumpi\n      pop\n      jump(tag_150)\n    tag_151:\n      0x1f\n      add\n      0x20\n      swap1\n      div\n      swap1\n      0x0\n      mstore\n      keccak256(0x0, 0x20)\n      swap1\n      dup2\n      add\n      swap1\n      tag_152\n      swap2\n      swap1\n      jump\t// in(tag_133)\n    tag_152:\n    tag_150:\n      pop\n      jump\t// out\n\n    auxdata: 0xa165627a7a72305820b25971b85bf78c95d13d02200ca94112e18a552efdf19c5d1458e6689700ee270029\n}\n",
				"bytecode": {
					"linkReferences": {},
					"object": "60606040526010600155600154600a0a60025562015180600355336000806101000a81548173ffffffffffffffffffffffffffffffffffffffff021916908373ffffffffffffffffffffffffffffffffffffffff1602179055506112df806100686000396000f3006060604052600436106100af576000357c0100000000000000000000000000000000000000000000000000000000900463ffffffff16806317a7f4cc146100b45780632052465e146100e05780634412e104146101c6578063528b7b8f146102545780635f4623f1146102b75780635faf2880146102f05780636b0bfc801461031c5780637bff0a011461038b5780638da5cb5b146103e8578063c39cbef11461043d578063f2fde38b14610474575b600080fd5b34156100bf57600080fd5b6100de60048080359060200190919080359060200190919050506104ad565b005b34156100eb57600080fd5b610101600480803590602001909190505061061a565b60405180806020018581526020018463ffffffff1663ffffffff1681526020018363ffffffff1663ffffffff1681526020018281038252868181546001816001161561010002031660029004815260200191508054600181600116156101000203166002900480156101b45780601f10610189576101008083540402835291602001916101b4565b820191906000526020600020905b81548152906001019060200180831161019757829003601f168201915b50509550505050505060405180910390f35b34156101d157600080fd5b6101fd600480803573ffffffffffffffffffffffffffffffffffffffff16906020019091905050610678565b6040518080602001828103825283818151815260200191508051906020019060200280838360005b83811015610240578082015181840152602081019050610225565b505050509050019250505060405180910390f35b341561025f57600080fd5b61027560048080359060200190919050506107a6565b604051808273ffffffffffffffffffffffffffffffffffffffff1673ffffffffffffffffffffffffffffffffffffffff16815260200191505060405180910390f35b34156102c257600080fd5b6102ee600480803573ffffffffffffffffffffffffffffffffffffffff169060200190919050506107d9565b005b34156102fb57600080fd5b61031a6004808035906020019091908035906020019091905050610878565b005b341561032757600080fd5b610389600480803590602001909190803590602001909190803590602001908201803590602001908080601f01602080910402602001604051908101604052809392919081815260200183838082843782019150505050505091905050610958565b005b341561039657600080fd5b6103e6600480803590602001908201803590602001908080601f01602080910402602001604051908101604052809392919081815260200183838082843782019150505050505091905050610b0e565b005b34156103f357600080fd5b6103fb610b87565b604051808273ffffffffffffffffffffffffffffffffffffffff1673ffffffffffffffffffffffffffffffffffffffff16815260200191505060405180910390f35b341561044857600080fd5b61047260048080359060200190919080359060200190820180359060200191909192905050610bac565b005b341561047f57600080fd5b6104ab600480803573ffffffffffffffffffffffffffffffffffffffff16906020019091905050610c98565b005b6000600760009054906101000a900473ffffffffffffffffffffffffffffffffffffffff1673ffffffffffffffffffffffffffffffffffffffff1663e98b7f4d83600060405161014001526040518263ffffffff167c01000000000000000000000000000000000000000000000000000000000281526004018082815260200191505061014060405180830381600087803b151561054a57600080fd5b6102c65a03f1151561055b57600080fd5b505050604051805190602001805190602001805190602001805190602001805190602001805190602001805190602001805190602001805190602001805190509091929394959697985090919293949596975090919293949596509091929394955090919293945090919293509091925090915090508091505061061583826040805190810160405280600581526020017f6b69747479000000000000000000000000000000000000000000000000000000815250610958565b505050565b60048181548110151561062957fe5b906000526020600020906003020160009150905080600001908060010154908060020160009054906101000a900463ffffffff16908060020160049054906101000a900463ffffffff16905084565b61068061109b565b61068861109b565b600080600660008673ffffffffffffffffffffffffffffffffffffffff1673ffffffffffffffffffffffffffffffffffffffff168152602001908152602001600020546040518059106106d85750595b9080825280602002602001820160405250925060009150600090505b60048054905081101561079b578473ffffffffffffffffffffffffffffffffffffffff166005600083815260200190815260200160002060009054906101000a900473ffffffffffffffffffffffffffffffffffffffff1673ffffffffffffffffffffffffffffffffffffffff16141561078e5780838381518110151561077757fe5b906020019060200201818152505081806001019250505b80806001019150506106f4565b829350505050919050565b60056020528060005260406000206000915054906101000a900473ffffffffffffffffffffffffffffffffffffffff1681565b6000809054906101000a900473ffffffffffffffffffffffffffffffffffffffff1673ffffffffffffffffffffffffffffffffffffffff163373ffffffffffffffffffffffffffffffffffffffff1614151561083457600080fd5b80600760006101000a81548173ffffffffffffffffffffffffffffffffffffffff021916908373ffffffffffffffffffffffffffffffffffffffff16021790555050565b6014828160048281548110151561088b57fe5b906000526020600020906003020160020160009054906101000a900463ffffffff1663ffffffff16101515156108c057600080fd5b6005600085815260200190815260200160002060009054906101000a900473ffffffffffffffffffffffffffffffffffffffff1673ffffffffffffffffffffffffffffffffffffffff163373ffffffffffffffffffffffffffffffffffffffff1614151561092d57600080fd5b8260048581548110151561093d57fe5b90600052602060002090600302016001018190555050505050565b6000806005600086815260200190815260200160002060009054906101000a900473ffffffffffffffffffffffffffffffffffffffff1673ffffffffffffffffffffffffffffffffffffffff163373ffffffffffffffffffffffffffffffffffffffff161415156109c857600080fd5b6004858154811015156109d757fe5b90600052602060002090600302019150600254848115156109f457fe5b069350600284836001015401811515610a0957fe5b04905060405180807f6b697474790000000000000000000000000000000000000000000000000000008152506005019050604051809103902060001916836040518082805190602001908083835b602083101515610a7c5780518252602082019150602081019050602083039250610a57565b6001836020036101000a0380198251168184511680821785525050505050509050019150506040518091039020600019161415610ac8576063606482811515610ac157fe5b0682030190505b610b076040805190810160405280600681526020017f4e6f4e616d65000000000000000000000000000000000000000000000000000081525082610ded565b5050505050565b600080600660003373ffffffffffffffffffffffffffffffffffffffff1673ffffffffffffffffffffffffffffffffffffffff16815260200190815260200160002054141515610b5d57600080fd5b610b6682611019565b9050606481811515610b7457fe5b0681039050610b838282610ded565b5050565b6000809054906101000a900473ffffffffffffffffffffffffffffffffffffffff1681565b60028381600482815481101515610bbf57fe5b906000526020600020906003020160020160009054906101000a900463ffffffff1663ffffffff1610151515610bf457600080fd5b6005600086815260200190815260200160002060009054906101000a900473ffffffffffffffffffffffffffffffffffffffff1673ffffffffffffffffffffffffffffffffffffffff163373ffffffffffffffffffffffffffffffffffffffff16141515610c6157600080fd5b8383600487815481101515610c7257fe5b90600052602060002090600302016000019190610c909291906110af565b505050505050565b6000809054906101000a900473ffffffffffffffffffffffffffffffffffffffff1673ffffffffffffffffffffffffffffffffffffffff163373ffffffffffffffffffffffffffffffffffffffff16141515610cf357600080fd5b600073ffffffffffffffffffffffffffffffffffffffff168173ffffffffffffffffffffffffffffffffffffffff1614151515610d2f57600080fd5b8073ffffffffffffffffffffffffffffffffffffffff166000809054906101000a900473ffffffffffffffffffffffffffffffffffffffff1673ffffffffffffffffffffffffffffffffffffffff167f8be0079c531659141344cd1fd0a4f28419497f9722a3daafe3b4186f6b6457e060405160405180910390a3806000806101000a81548173ffffffffffffffffffffffffffffffffffffffff021916908373ffffffffffffffffffffffffffffffffffffffff16021790555050565b6000600160048054806001018281610e05919061112f565b91600052602060002090600302016000608060405190810160405280888152602001878152602001600163ffffffff168152602001600354420163ffffffff1681525090919091506000820151816000019080519060200190610e69929190611161565b506020820151816001015560408201518160020160006101000a81548163ffffffff021916908363ffffffff16021790555060608201518160020160046101000a81548163ffffffff021916908363ffffffff1602179055505050039050336005600083815260200190815260200160002060006101000a81548173ffffffffffffffffffffffffffffffffffffffff021916908373ffffffffffffffffffffffffffffffffffffffff160217905550600660003373ffffffffffffffffffffffffffffffffffffffff1673ffffffffffffffffffffffffffffffffffffffff168152602001908152602001600020600081548092919060010191905055507f88f026aacbbecc90c18411df4b1185fd8d9be2470f1962f192bf84a27d0704b78184846040518084815260200180602001838152602001828103825284818151815260200191508051906020019080838360005b83811015610fd8578082015181840152602081019050610fbd565b50505050905090810190601f1680156110055780820380516001836020036101000a031916815260200191505b5094505050505060405180910390a1505050565b600080826040518082805190602001908083835b602083101515611052578051825260208201915060208101905060208303925061102d565b6001836020036101000a03801982511681845116808217855250505050505090500191505060405180910390206001900490506002548181151561109257fe5b06915050919050565b602060405190810160405280600081525090565b828054600181600116156101000203166002900490600052602060002090601f016020900481019282601f106110f057803560ff191683800117855561111e565b8280016001018555821561111e579182015b8281111561111d578235825591602001919060010190611102565b5b50905061112b91906111e1565b5090565b81548183558181151161115c5760030281600302836000526020600020918201910161115b9190611206565b5b505050565b828054600181600116156101000203166002900490600052602060002090601f016020900481019282601f106111a257805160ff19168380011785556111d0565b828001600101855582156111d0579182015b828111156111cf5782518255916020019190600101906111b4565b5b5090506111dd91906111e1565b5090565b61120391905b808211156111ff5760008160009055506001016111e7565b5090565b90565b61126891905b808211156112645760008082016000611225919061126b565b60018201600090556002820160006101000a81549063ffffffff02191690556002820160046101000a81549063ffffffff02191690555060030161120c565b5090565b90565b50805460018160011615610100020316600290046000825580601f1061129157506112b0565b601f0160209004906000526020600020908101906112af91906111e1565b5b505600a165627a7a72305820b25971b85bf78c95d13d02200ca94112e18a552efdf19c5d1458e6689700ee270029",
					"opcodes": "PUSH1 0x60 PUSH1 0x40 MSTORE PUSH1 0x10 PUSH1 0x1 SSTORE PUSH1 0x1 SLOAD PUSH1 0xA EXP PUSH1 0x2 SSTORE PUSH3 0x15180 PUSH1 0x3 SSTORE CALLER PUSH1 0x0 DUP1 PUSH2 0x100 EXP DUP2 SLOAD DUP2 PUSH20 0xFFFFFFFFFFFFFFFFFFFFFFFFFFFFFFFFFFFFFFFF MUL NOT AND SWAP1 DUP4 PUSH20 0xFFFFFFFFFFFFFFFFFFFFFFFFFFFFFFFFFFFFFFFF AND MUL OR SWAP1 SSTORE POP PUSH2 0x12DF DUP1 PUSH2 0x68 PUSH1 0x0 CODECOPY PUSH1 0x0 RETURN STOP PUSH1 0x60 PUSH1 0x40 MSTORE PUSH1 0x4 CALLDATASIZE LT PUSH2 0xAF JUMPI PUSH1 0x0 CALLDATALOAD PUSH29 0x100000000000000000000000000000000000000000000000000000000 SWAP1 DIV PUSH4 0xFFFFFFFF AND DUP1 PUSH4 0x17A7F4CC EQ PUSH2 0xB4 JUMPI DUP1 PUSH4 0x2052465E EQ PUSH2 0xE0 JUMPI DUP1 PUSH4 0x4412E104 EQ PUSH2 0x1C6 JUMPI DUP1 PUSH4 0x528B7B8F EQ PUSH2 0x254 JUMPI DUP1 PUSH4 0x5F4623F1 EQ PUSH2 0x2B7 JUMPI DUP1 PUSH4 0x5FAF2880 EQ PUSH2 0x2F0 JUMPI DUP1 PUSH4 0x6B0BFC80 EQ PUSH2 0x31C JUMPI DUP1 PUSH4 0x7BFF0A01 EQ PUSH2 0x38B JUMPI DUP1 PUSH4 0x8DA5CB5B EQ PUSH2 0x3E8 JUMPI DUP1 PUSH4 0xC39CBEF1 EQ PUSH2 0x43D JUMPI DUP1 PUSH4 0xF2FDE38B EQ PUSH2 0x474 JUMPI JUMPDEST PUSH1 0x0 DUP1 REVERT JUMPDEST CALLVALUE ISZERO PUSH2 0xBF JUMPI PUSH1 0x0 DUP1 REVERT JUMPDEST PUSH2 0xDE PUSH1 0x4 DUP1 DUP1 CALLDATALOAD SWAP1 PUSH1 0x20 ADD SWAP1 SWAP2 SWAP1 DUP1 CALLDATALOAD SWAP1 PUSH1 0x20 ADD SWAP1 SWAP2 SWAP1 POP POP PUSH2 0x4AD JUMP JUMPDEST STOP JUMPDEST CALLVALUE ISZERO PUSH2 0xEB JUMPI PUSH1 0x0 DUP1 REVERT JUMPDEST PUSH2 0x101 PUSH1 0x4 DUP1 DUP1 CALLDATALOAD SWAP1 PUSH1 0x20 ADD SWAP1 SWAP2 SWAP1 POP POP PUSH2 0x61A JUMP JUMPDEST PUSH1 0x40 MLOAD DUP1 DUP1 PUSH1 0x20 ADD DUP6 DUP2 MSTORE PUSH1 0x20 ADD DUP5 PUSH4 0xFFFFFFFF AND PUSH4 0xFFFFFFFF AND DUP2 MSTORE PUSH1 0x20 ADD DUP4 PUSH4 0xFFFFFFFF AND PUSH4 0xFFFFFFFF AND DUP2 MSTORE PUSH1 0x20 ADD DUP3 DUP2 SUB DUP3 MSTORE DUP7 DUP2 DUP2 SLOAD PUSH1 0x1 DUP2 PUSH1 0x1 AND ISZERO PUSH2 0x100 MUL SUB AND PUSH1 0x2 SWAP1 DIV DUP2 MSTORE PUSH1 0x20 ADD SWAP2 POP DUP1 SLOAD PUSH1 0x1 DUP2 PUSH1 0x1 AND ISZERO PUSH2 0x100 MUL SUB AND PUSH1 0x2 SWAP1 DIV DUP1 ISZERO PUSH2 0x1B4 JUMPI DUP1 PUSH1 0x1F LT PUSH2 0x189 JUMPI PUSH2 0x100 DUP1 DUP4 SLOAD DIV MUL DUP4 MSTORE SWAP2 PUSH1 0x20 ADD SWAP2 PUSH2 0x1B4 JUMP JUMPDEST DUP3 ADD SWAP2 SWAP1 PUSH1 0x0 MSTORE PUSH1 0x20 PUSH1 0x0 KECCAK256 SWAP1 JUMPDEST DUP2 SLOAD DUP2 MSTORE SWAP1 PUSH1 0x1 ADD SWAP1 PUSH1 0x20 ADD DUP1 DUP4 GT PUSH2 0x197 JUMPI DUP3 SWAP1 SUB PUSH1 0x1F AND DUP3 ADD SWAP2 JUMPDEST POP POP SWAP6 POP POP POP POP POP POP PUSH1 0x40 MLOAD DUP1 SWAP2 SUB SWAP1 RETURN JUMPDEST CALLVALUE ISZERO PUSH2 0x1D1 JUMPI PUSH1 0x0 DUP1 REVERT JUMPDEST PUSH2 0x1FD PUSH1 0x4 DUP1 DUP1 CALLDATALOAD PUSH20 0xFFFFFFFFFFFFFFFFFFFFFFFFFFFFFFFFFFFFFFFF AND SWAP1 PUSH1 0x20 ADD SWAP1 SWAP2 SWAP1 POP POP PUSH2 0x678 JUMP JUMPDEST PUSH1 0x40 MLOAD DUP1 DUP1 PUSH1 0x20 ADD DUP3 DUP2 SUB DUP3 MSTORE DUP4 DUP2 DUP2 MLOAD DUP2 MSTORE PUSH1 0x20 ADD SWAP2 POP DUP1 MLOAD SWAP1 PUSH1 0x20 ADD SWAP1 PUSH1 0x20 MUL DUP1 DUP4 DUP4 PUSH1 0x0 JUMPDEST DUP4 DUP2 LT ISZERO PUSH2 0x240 JUMPI DUP1 DUP3 ADD MLOAD DUP2 DUP5 ADD MSTORE PUSH1 0x20 DUP2 ADD SWAP1 POP PUSH2 0x225 JUMP JUMPDEST POP POP POP POP SWAP1 POP ADD SWAP3 POP POP POP PUSH1 0x40 MLOAD DUP1 SWAP2 SUB SWAP1 RETURN JUMPDEST CALLVALUE ISZERO PUSH2 0x25F JUMPI PUSH1 0x0 DUP1 REVERT JUMPDEST PUSH2 0x275 PUSH1 0x4 DUP1 DUP1 CALLDATALOAD SWAP1 PUSH1 0x20 ADD SWAP1 SWAP2 SWAP1 POP POP PUSH2 0x7A6 JUMP JUMPDEST PUSH1 0x40 MLOAD DUP1 DUP3 PUSH20 0xFFFFFFFFFFFFFFFFFFFFFFFFFFFFFFFFFFFFFFFF AND PUSH20 0xFFFFFFFFFFFFFFFFFFFFFFFFFFFFFFFFFFFFFFFF AND DUP2 MSTORE PUSH1 0x20 ADD SWAP2 POP POP PUSH1 0x40 MLOAD DUP1 SWAP2 SUB SWAP1 RETURN JUMPDEST CALLVALUE ISZERO PUSH2 0x2C2 JUMPI PUSH1 0x0 DUP1 REVERT JUMPDEST PUSH2 0x2EE PUSH1 0x4 DUP1 DUP1 CALLDATALOAD PUSH20 0xFFFFFFFFFFFFFFFFFFFFFFFFFFFFFFFFFFFFFFFF AND SWAP1 PUSH1 0x20 ADD SWAP1 SWAP2 SWAP1 POP POP PUSH2 0x7D9 JUMP JUMPDEST STOP JUMPDEST CALLVALUE ISZERO PUSH2 0x2FB JUMPI PUSH1 0x0 DUP1 REVERT JUMPDEST PUSH2 0x31A PUSH1 0x4 DUP1 DUP1 CALLDATALOAD SWAP1 PUSH1 0x20 ADD SWAP1 SWAP2 SWAP1 DUP1 CALLDATALOAD SWAP1 PUSH1 0x20 ADD SWAP1 SWAP2 SWAP1 POP POP PUSH2 0x878 JUMP JUMPDEST STOP JUMPDEST CALLVALUE ISZERO PUSH2 0x327 JUMPI PUSH1 0x0 DUP1 REVERT JUMPDEST PUSH2 0x389 PUSH1 0x4 DUP1 DUP1 CALLDATALOAD SWAP1 PUSH1 0x20 ADD SWAP1 SWAP2 SWAP1 DUP1 CALLDATALOAD SWAP1 PUSH1 0x20 ADD SWAP1 SWAP2 SWAP1 DUP1 CALLDATALOAD SWAP1 PUSH1 0x20 ADD SWAP1 DUP3 ADD DUP1 CALLDATALOAD SWAP1 PUSH1 0x20 ADD SWAP1 DUP1 DUP1 PUSH1 0x1F ADD PUSH1 0x20 DUP1 SWAP2 DIV MUL PUSH1 0x20 ADD PUSH1 0x40 MLOAD SWAP1 DUP2 ADD PUSH1 0x40 MSTORE DUP1 SWAP4 SWAP3 SWAP2 SWAP1 DUP2 DUP2 MSTORE PUSH1 0x20 ADD DUP4 DUP4 DUP1 DUP3 DUP5 CALLDATACOPY DUP3 ADD SWAP2 POP POP POP POP POP POP SWAP2 SWAP1 POP POP PUSH2 0x958 JUMP JUMPDEST STOP JUMPDEST CALLVALUE ISZERO PUSH2 0x396 JUMPI PUSH1 0x0 DUP1 REVERT JUMPDEST PUSH2 0x3E6 PUSH1 0x4 DUP1 DUP1 CALLDATALOAD SWAP1 PUSH1 0x20 ADD SWAP1 DUP3 ADD DUP1 CALLDATALOAD SWAP1 PUSH1 0x20 ADD SWAP1 DUP1 DUP1 PUSH1 0x1F ADD PUSH1 0x20 DUP1 SWAP2 DIV MUL PUSH1 0x20 ADD PUSH1 0x40 MLOAD SWAP1 DUP2 ADD PUSH1 0x40 MSTORE DUP1 SWAP4 SWAP3 SWAP2 SWAP1 DUP2 DUP2 MSTORE PUSH1 0x20 ADD DUP4 DUP4 DUP1 DUP3 DUP5 CALLDATACOPY DUP3 ADD SWAP2 POP POP POP POP POP POP SWAP2 SWAP1 POP POP PUSH2 0xB0E JUMP JUMPDEST STOP JUMPDEST CALLVALUE ISZERO PUSH2 0x3F3 JUMPI PUSH1 0x0 DUP1 REVERT JUMPDEST PUSH2 0x3FB PUSH2 0xB87 JUMP JUMPDEST PUSH1 0x40 MLOAD DUP1 DUP3 PUSH20 0xFFFFFFFFFFFFFFFFFFFFFFFFFFFFFFFFFFFFFFFF AND PUSH20 0xFFFFFFFFFFFFFFFFFFFFFFFFFFFFFFFFFFFFFFFF AND DUP2 MSTORE PUSH1 0x20 ADD SWAP2 POP POP PUSH1 0x40 MLOAD DUP1 SWAP2 SUB SWAP1 RETURN JUMPDEST CALLVALUE ISZERO PUSH2 0x448 JUMPI PUSH1 0x0 DUP1 REVERT JUMPDEST PUSH2 0x472 PUSH1 0x4 DUP1 DUP1 CALLDATALOAD SWAP1 PUSH1 0x20 ADD SWAP1 SWAP2 SWAP1 DUP1 CALLDATALOAD SWAP1 PUSH1 0x20 ADD SWAP1 DUP3 ADD DUP1 CALLDATALOAD SWAP1 PUSH1 0x20 ADD SWAP2 SWAP1 SWAP2 SWAP3 SWAP1 POP POP PUSH2 0xBAC JUMP JUMPDEST STOP JUMPDEST CALLVALUE ISZERO PUSH2 0x47F JUMPI PUSH1 0x0 DUP1 REVERT JUMPDEST PUSH2 0x4AB PUSH1 0x4 DUP1 DUP1 CALLDATALOAD PUSH20 0xFFFFFFFFFFFFFFFFFFFFFFFFFFFFFFFFFFFFFFFF AND SWAP1 PUSH1 0x20 ADD SWAP1 SWAP2 SWAP1 POP POP PUSH2 0xC98 JUMP JUMPDEST STOP JUMPDEST PUSH1 0x0 PUSH1 0x7 PUSH1 0x0 SWAP1 SLOAD SWAP1 PUSH2 0x100 EXP SWAP1 DIV PUSH20 0xFFFFFFFFFFFFFFFFFFFFFFFFFFFFFFFFFFFFFFFF AND PUSH20 0xFFFFFFFFFFFFFFFFFFFFFFFFFFFFFFFFFFFFFFFF AND PUSH4 0xE98B7F4D DUP4 PUSH1 0x0 PUSH1 0x40 MLOAD PUSH2 0x140 ADD MSTORE PUSH1 0x40 MLOAD DUP3 PUSH4 0xFFFFFFFF AND PUSH29 0x100000000000000000000000000000000000000000000000000000000 MUL DUP2 MSTORE PUSH1 0x4 ADD DUP1 DUP3 DUP2 MSTORE PUSH1 0x20 ADD SWAP2 POP POP PUSH2 0x140 PUSH1 0x40 MLOAD DUP1 DUP4 SUB DUP2 PUSH1 0x0 DUP8 DUP1 EXTCODESIZE ISZERO ISZERO PUSH2 0x54A JUMPI PUSH1 0x0 DUP1 REVERT JUMPDEST PUSH2 0x2C6 GAS SUB CALL ISZERO ISZERO PUSH2 0x55B JUMPI PUSH1 0x0 DUP1 REVERT JUMPDEST POP POP POP PUSH1 0x40 MLOAD DUP1 MLOAD SWAP1 PUSH1 0x20 ADD DUP1 MLOAD SWAP1 PUSH1 0x20 ADD DUP1 MLOAD SWAP1 PUSH1 0x20 ADD DUP1 MLOAD SWAP1 PUSH1 0x20 ADD DUP1 MLOAD SWAP1 PUSH1 0x20 ADD DUP1 MLOAD SWAP1 PUSH1 0x20 ADD DUP1 MLOAD SWAP1 PUSH1 0x20 ADD DUP1 MLOAD SWAP1 PUSH1 0x20 ADD DUP1 MLOAD SWAP1 PUSH1 0x20 ADD DUP1 MLOAD SWAP1 POP SWAP1 SWAP2 SWAP3 SWAP4 SWAP5 SWAP6 SWAP7 SWAP8 SWAP9 POP SWAP1 SWAP2 SWAP3 SWAP4 SWAP5 SWAP6 SWAP7 SWAP8 POP SWAP1 SWAP2 SWAP3 SWAP4 SWAP5 SWAP6 SWAP7 POP SWAP1 SWAP2 SWAP3 SWAP4 SWAP5 SWAP6 POP SWAP1 SWAP2 SWAP3 SWAP4 SWAP5 POP SWAP1 SWAP2 SWAP3 SWAP4 POP SWAP1 SWAP2 SWAP3 POP SWAP1 SWAP2 POP SWAP1 POP DUP1 SWAP2 POP POP PUSH2 0x615 DUP4 DUP3 PUSH1 0x40 DUP1 MLOAD SWAP1 DUP2 ADD PUSH1 0x40 MSTORE DUP1 PUSH1 0x5 DUP2 MSTORE PUSH1 0x20 ADD PUSH32 0x6B69747479000000000000000000000000000000000000000000000000000000 DUP2 MSTORE POP PUSH2 0x958 JUMP JUMPDEST POP POP POP JUMP JUMPDEST PUSH1 0x4 DUP2 DUP2 SLOAD DUP2 LT ISZERO ISZERO PUSH2 0x629 JUMPI INVALID JUMPDEST SWAP1 PUSH1 0x0 MSTORE PUSH1 0x20 PUSH1 0x0 KECCAK256 SWAP1 PUSH1 0x3 MUL ADD PUSH1 0x0 SWAP2 POP SWAP1 POP DUP1 PUSH1 0x0 ADD SWAP1 DUP1 PUSH1 0x1 ADD SLOAD SWAP1 DUP1 PUSH1 0x2 ADD PUSH1 0x0 SWAP1 SLOAD SWAP1 PUSH2 0x100 EXP SWAP1 DIV PUSH4 0xFFFFFFFF AND SWAP1 DUP1 PUSH1 0x2 ADD PUSH1 0x4 SWAP1 SLOAD SWAP1 PUSH2 0x100 EXP SWAP1 DIV PUSH4 0xFFFFFFFF AND SWAP1 POP DUP5 JUMP JUMPDEST PUSH2 0x680 PUSH2 0x109B JUMP JUMPDEST PUSH2 0x688 PUSH2 0x109B JUMP JUMPDEST PUSH1 0x0 DUP1 PUSH1 0x6 PUSH1 0x0 DUP7 PUSH20 0xFFFFFFFFFFFFFFFFFFFFFFFFFFFFFFFFFFFFFFFF AND PUSH20 0xFFFFFFFFFFFFFFFFFFFFFFFFFFFFFFFFFFFFFFFF AND DUP2 MSTORE PUSH1 0x20 ADD SWAP1 DUP2 MSTORE PUSH1 0x20 ADD PUSH1 0x0 KECCAK256 SLOAD PUSH1 0x40 MLOAD DUP1 MSIZE LT PUSH2 0x6D8 JUMPI POP MSIZE JUMPDEST SWAP1 DUP1 DUP3 MSTORE DUP1 PUSH1 0x20 MUL PUSH1 0x20 ADD DUP3 ADD PUSH1 0x40 MSTORE POP SWAP3 POP PUSH1 0x0 SWAP2 POP PUSH1 0x0 SWAP1 POP JUMPDEST PUSH1 0x4 DUP1 SLOAD SWAP1 POP DUP2 LT ISZERO PUSH2 0x79B JUMPI DUP5 PUSH20 0xFFFFFFFFFFFFFFFFFFFFFFFFFFFFFFFFFFFFFFFF AND PUSH1 0x5 PUSH1 0x0 DUP4 DUP2 MSTORE PUSH1 0x20 ADD SWAP1 DUP2 MSTORE PUSH1 0x20 ADD PUSH1 0x0 KECCAK256 PUSH1 0x0 SWAP1 SLOAD SWAP1 PUSH2 0x100 EXP SWAP1 DIV PUSH20 0xFFFFFFFFFFFFFFFFFFFFFFFFFFFFFFFFFFFFFFFF AND PUSH20 0xFFFFFFFFFFFFFFFFFFFFFFFFFFFFFFFFFFFFFFFF AND EQ ISZERO PUSH2 0x78E JUMPI DUP1 DUP4 DUP4 DUP2 MLOAD DUP2 LT ISZERO ISZERO PUSH2 0x777 JUMPI INVALID JUMPDEST SWAP1 PUSH1 0x20 ADD SWAP1 PUSH1 0x20 MUL ADD DUP2 DUP2 MSTORE POP POP DUP2 DUP1 PUSH1 0x1 ADD SWAP3 POP POP JUMPDEST DUP1 DUP1 PUSH1 0x1 ADD SWAP2 POP POP PUSH2 0x6F4 JUMP JUMPDEST DUP3 SWAP4 POP POP POP POP SWAP2 SWAP1 POP JUMP JUMPDEST PUSH1 0x5 PUSH1 0x20 MSTORE DUP1 PUSH1 0x0 MSTORE PUSH1 0x40 PUSH1 0x0 KECCAK256 PUSH1 0x0 SWAP2 POP SLOAD SWAP1 PUSH2 0x100 EXP SWAP1 DIV PUSH20 0xFFFFFFFFFFFFFFFFFFFFFFFFFFFFFFFFFFFFFFFF AND DUP2 JUMP JUMPDEST PUSH1 0x0 DUP1 SWAP1 SLOAD SWAP1 PUSH2 0x100 EXP SWAP1 DIV PUSH20 0xFFFFFFFFFFFFFFFFFFFFFFFFFFFFFFFFFFFFFFFF AND PUSH20 0xFFFFFFFFFFFFFFFFFFFFFFFFFFFFFFFFFFFFFFFF AND CALLER PUSH20 0xFFFFFFFFFFFFFFFFFFFFFFFFFFFFFFFFFFFFFFFF AND EQ ISZERO ISZERO PUSH2 0x834 JUMPI PUSH1 0x0 DUP1 REVERT JUMPDEST DUP1 PUSH1 0x7 PUSH1 0x0 PUSH2 0x100 EXP DUP2 SLOAD DUP2 PUSH20 0xFFFFFFFFFFFFFFFFFFFFFFFFFFFFFFFFFFFFFFFF MUL NOT AND SWAP1 DUP4 PUSH20 0xFFFFFFFFFFFFFFFFFFFFFFFFFFFFFFFFFFFFFFFF AND MUL OR SWAP1 SSTORE POP POP JUMP JUMPDEST PUSH1 0x14 DUP3 DUP2 PUSH1 0x4 DUP3 DUP2 SLOAD DUP2 LT ISZERO ISZERO PUSH2 0x88B JUMPI INVALID JUMPDEST SWAP1 PUSH1 0x0 MSTORE PUSH1 0x20 PUSH1 0x0 KECCAK256 SWAP1 PUSH1 0x3 MUL ADD PUSH1 0x2 ADD PUSH1 0x0 SWAP1 SLOAD SWAP1 PUSH2 0x100 EXP SWAP1 DIV PUSH4 0xFFFFFFFF AND PUSH4 0xFFFFFFFF AND LT ISZERO ISZERO ISZERO PUSH2 0x8C0 JUMPI PUSH1 0x0 DUP1 REVERT JUMPDEST PUSH1 0x5 PUSH1 0x0 DUP6 DUP2 MSTORE PUSH1 0x20 ADD SWAP1 DUP2 MSTORE PUSH1 0x20 ADD PUSH1 0x0 KECCAK256 PUSH1 0x0 SWAP1 SLOAD SWAP1 PUSH2 0x100 EXP SWAP1 DIV PUSH20 0xFFFFFFFFFFFFFFFFFFFFFFFFFFFFFFFFFFFFFFFF AND PUSH20 0xFFFFFFFFFFFFFFFFFFFFFFFFFFFFFFFFFFFFFFFF AND CALLER PUSH20 0xFFFFFFFFFFFFFFFFFFFFFFFFFFFFFFFFFFFFFFFF AND EQ ISZERO ISZERO PUSH2 0x92D JUMPI PUSH1 0x0 DUP1 REVERT JUMPDEST DUP3 PUSH1 0x4 DUP6 DUP2 SLOAD DUP2 LT ISZERO ISZERO PUSH2 0x93D JUMPI INVALID JUMPDEST SWAP1 PUSH1 0x0 MSTORE PUSH1 0x20 PUSH1 0x0 KECCAK256 SWAP1 PUSH1 0x3 MUL ADD PUSH1 0x1 ADD DUP2 SWAP1 SSTORE POP POP POP POP POP JUMP JUMPDEST PUSH1 0x0 DUP1 PUSH1 0x5 PUSH1 0x0 DUP7 DUP2 MSTORE PUSH1 0x20 ADD SWAP1 DUP2 MSTORE PUSH1 0x20 ADD PUSH1 0x0 KECCAK256 PUSH1 0x0 SWAP1 SLOAD SWAP1 PUSH2 0x100 EXP SWAP1 DIV PUSH20 0xFFFFFFFFFFFFFFFFFFFFFFFFFFFFFFFFFFFFFFFF AND PUSH20 0xFFFFFFFFFFFFFFFFFFFFFFFFFFFFFFFFFFFFFFFF AND CALLER PUSH20 0xFFFFFFFFFFFFFFFFFFFFFFFFFFFFFFFFFFFFFFFF AND EQ ISZERO ISZERO PUSH2 0x9C8 JUMPI PUSH1 0x0 DUP1 REVERT JUMPDEST PUSH1 0x4 DUP6 DUP2 SLOAD DUP2 LT ISZERO ISZERO PUSH2 0x9D7 JUMPI INVALID JUMPDEST SWAP1 PUSH1 0x0 MSTORE PUSH1 0x20 PUSH1 0x0 KECCAK256 SWAP1 PUSH1 0x3 MUL ADD SWAP2 POP PUSH1 0x2 SLOAD DUP5 DUP2 ISZERO ISZERO PUSH2 0x9F4 JUMPI INVALID JUMPDEST MOD SWAP4 POP PUSH1 0x2 DUP5 DUP4 PUSH1 0x1 ADD SLOAD ADD DUP2 ISZERO ISZERO PUSH2 0xA09 JUMPI INVALID JUMPDEST DIV SWAP1 POP PUSH1 0x40 MLOAD DUP1 DUP1 PUSH32 0x6B69747479000000000000000000000000000000000000000000000000000000 DUP2 MSTORE POP PUSH1 0x5 ADD SWAP1 POP PUSH1 0x40 MLOAD DUP1 SWAP2 SUB SWAP1 KECCAK256 PUSH1 0x0 NOT AND DUP4 PUSH1 0x40 MLOAD DUP1 DUP3 DUP1 MLOAD SWAP1 PUSH1 0x20 ADD SWAP1 DUP1 DUP4 DUP4 JUMPDEST PUSH1 0x20 DUP4 LT ISZERO ISZERO PUSH2 0xA7C JUMPI DUP1 MLOAD DUP3 MSTORE PUSH1 0x20 DUP3 ADD SWAP2 POP PUSH1 0x20 DUP2 ADD SWAP1 POP PUSH1 0x20 DUP4 SUB SWAP3 POP PUSH2 0xA57 JUMP JUMPDEST PUSH1 0x1 DUP4 PUSH1 0x20 SUB PUSH2 0x100 EXP SUB DUP1 NOT DUP3 MLOAD AND DUP2 DUP5 MLOAD AND DUP1 DUP3 OR DUP6 MSTORE POP POP POP POP POP POP SWAP1 POP ADD SWAP2 POP POP PUSH1 0x40 MLOAD DUP1 SWAP2 SUB SWAP1 KECCAK256 PUSH1 0x0 NOT AND EQ ISZERO PUSH2 0xAC8 JUMPI PUSH1 0x63 PUSH1 0x64 DUP3 DUP2 ISZERO ISZERO PUSH2 0xAC1 JUMPI INVALID JUMPDEST MOD DUP3 SUB ADD SWAP1 POP JUMPDEST PUSH2 0xB07 PUSH1 0x40 DUP1 MLOAD SWAP1 DUP2 ADD PUSH1 0x40 MSTORE DUP1 PUSH1 0x6 DUP2 MSTORE PUSH1 0x20 ADD PUSH32 0x4E6F4E616D650000000000000000000000000000000000000000000000000000 DUP2 MSTORE POP DUP3 PUSH2 0xDED JUMP JUMPDEST POP POP POP POP POP JUMP JUMPDEST PUSH1 0x0 DUP1 PUSH1 0x6 PUSH1 0x0 CALLER PUSH20 0xFFFFFFFFFFFFFFFFFFFFFFFFFFFFFFFFFFFFFFFF AND PUSH20 0xFFFFFFFFFFFFFFFFFFFFFFFFFFFFFFFFFFFFFFFF AND DUP2 MSTORE PUSH1 0x20 ADD SWAP1 DUP2 MSTORE PUSH1 0x20 ADD PUSH1 0x0 KECCAK256 SLOAD EQ ISZERO ISZERO PUSH2 0xB5D JUMPI PUSH1 0x0 DUP1 REVERT JUMPDEST PUSH2 0xB66 DUP3 PUSH2 0x1019 JUMP JUMPDEST SWAP1 POP PUSH1 0x64 DUP2 DUP2 ISZERO ISZERO PUSH2 0xB74 JUMPI INVALID JUMPDEST MOD DUP2 SUB SWAP1 POP PUSH2 0xB83 DUP3 DUP3 PUSH2 0xDED JUMP JUMPDEST POP POP JUMP JUMPDEST PUSH1 0x0 DUP1 SWAP1 SLOAD SWAP1 PUSH2 0x100 EXP SWAP1 DIV PUSH20 0xFFFFFFFFFFFFFFFFFFFFFFFFFFFFFFFFFFFFFFFF AND DUP2 JUMP JUMPDEST PUSH1 0x2 DUP4 DUP2 PUSH1 0x4 DUP3 DUP2 SLOAD DUP2 LT ISZERO ISZERO PUSH2 0xBBF JUMPI INVALID JUMPDEST SWAP1 PUSH1 0x0 MSTORE PUSH1 0x20 PUSH1 0x0 KECCAK256 SWAP1 PUSH1 0x3 MUL ADD PUSH1 0x2 ADD PUSH1 0x0 SWAP1 SLOAD SWAP1 PUSH2 0x100 EXP SWAP1 DIV PUSH4 0xFFFFFFFF AND PUSH4 0xFFFFFFFF AND LT ISZERO ISZERO ISZERO PUSH2 0xBF4 JUMPI PUSH1 0x0 DUP1 REVERT JUMPDEST PUSH1 0x5 PUSH1 0x0 DUP7 DUP2 MSTORE PUSH1 0x20 ADD SWAP1 DUP2 MSTORE PUSH1 0x20 ADD PUSH1 0x0 KECCAK256 PUSH1 0x0 SWAP1 SLOAD SWAP1 PUSH2 0x100 EXP SWAP1 DIV PUSH20 0xFFFFFFFFFFFFFFFFFFFFFFFFFFFFFFFFFFFFFFFF AND PUSH20 0xFFFFFFFFFFFFFFFFFFFFFFFFFFFFFFFFFFFFFFFF AND CALLER PUSH20 0xFFFFFFFFFFFFFFFFFFFFFFFFFFFFFFFFFFFFFFFF AND EQ ISZERO ISZERO PUSH2 0xC61 JUMPI PUSH1 0x0 DUP1 REVERT JUMPDEST DUP4 DUP4 PUSH1 0x4 DUP8 DUP2 SLOAD DUP2 LT ISZERO ISZERO PUSH2 0xC72 JUMPI INVALID JUMPDEST SWAP1 PUSH1 0x0 MSTORE PUSH1 0x20 PUSH1 0x0 KECCAK256 SWAP1 PUSH1 0x3 MUL ADD PUSH1 0x0 ADD SWAP2 SWAP1 PUSH2 0xC90 SWAP3 SWAP2 SWAP1 PUSH2 0x10AF JUMP JUMPDEST POP POP POP POP POP POP JUMP JUMPDEST PUSH1 0x0 DUP1 SWAP1 SLOAD SWAP1 PUSH2 0x100 EXP SWAP1 DIV PUSH20 0xFFFFFFFFFFFFFFFFFFFFFFFFFFFFFFFFFFFFFFFF AND PUSH20 0xFFFFFFFFFFFFFFFFFFFFFFFFFFFFFFFFFFFFFFFF AND CALLER PUSH20 0xFFFFFFFFFFFFFFFFFFFFFFFFFFFFFFFFFFFFFFFF AND EQ ISZERO ISZERO PUSH2 0xCF3 JUMPI PUSH1 0x0 DUP1 REVERT JUMPDEST PUSH1 0x0 PUSH20 0xFFFFFFFFFFFFFFFFFFFFFFFFFFFFFFFFFFFFFFFF AND DUP2 PUSH20 0xFFFFFFFFFFFFFFFFFFFFFFFFFFFFFFFFFFFFFFFF AND EQ ISZERO ISZERO ISZERO PUSH2 0xD2F JUMPI PUSH1 0x0 DUP1 REVERT JUMPDEST DUP1 PUSH20 0xFFFFFFFFFFFFFFFFFFFFFFFFFFFFFFFFFFFFFFFF AND PUSH1 0x0 DUP1 SWAP1 SLOAD SWAP1 PUSH2 0x100 EXP SWAP1 DIV PUSH20 0xFFFFFFFFFFFFFFFFFFFFFFFFFFFFFFFFFFFFFFFF AND PUSH20 0xFFFFFFFFFFFFFFFFFFFFFFFFFFFFFFFFFFFFFFFF AND PUSH32 0x8BE0079C531659141344CD1FD0A4F28419497F9722A3DAAFE3B4186F6B6457E0 PUSH1 0x40 MLOAD PUSH1 0x40 MLOAD DUP1 SWAP2 SUB SWAP1 LOG3 DUP1 PUSH1 0x0 DUP1 PUSH2 0x100 EXP DUP2 SLOAD DUP2 PUSH20 0xFFFFFFFFFFFFFFFFFFFFFFFFFFFFFFFFFFFFFFFF MUL NOT AND SWAP1 DUP4 PUSH20 0xFFFFFFFFFFFFFFFFFFFFFFFFFFFFFFFFFFFFFFFF AND MUL OR SWAP1 SSTORE POP POP JUMP JUMPDEST PUSH1 0x0 PUSH1 0x1 PUSH1 0x4 DUP1 SLOAD DUP1 PUSH1 0x1 ADD DUP3 DUP2 PUSH2 0xE05 SWAP2 SWAP1 PUSH2 0x112F JUMP JUMPDEST SWAP2 PUSH1 0x0 MSTORE PUSH1 0x20 PUSH1 0x0 KECCAK256 SWAP1 PUSH1 0x3 MUL ADD PUSH1 0x0 PUSH1 0x80 PUSH1 0x40 MLOAD SWAP1 DUP2 ADD PUSH1 0x40 MSTORE DUP1 DUP9 DUP2 MSTORE PUSH1 0x20 ADD DUP8 DUP2 MSTORE PUSH1 0x20 ADD PUSH1 0x1 PUSH4 0xFFFFFFFF AND DUP2 MSTORE PUSH1 0x20 ADD PUSH1 0x3 SLOAD TIMESTAMP ADD PUSH4 0xFFFFFFFF AND DUP2 MSTORE POP SWAP1 SWAP2 SWAP1 SWAP2 POP PUSH1 0x0 DUP3 ADD MLOAD DUP2 PUSH1 0x0 ADD SWAP1 DUP1 MLOAD SWAP1 PUSH1 0x20 ADD SWAP1 PUSH2 0xE69 SWAP3 SWAP2 SWAP1 PUSH2 0x1161 JUMP JUMPDEST POP PUSH1 0x20 DUP3 ADD MLOAD DUP2 PUSH1 0x1 ADD SSTORE PUSH1 0x40 DUP3 ADD MLOAD DUP2 PUSH1 0x2 ADD PUSH1 0x0 PUSH2 0x100 EXP DUP2 SLOAD DUP2 PUSH4 0xFFFFFFFF MUL NOT AND SWAP1 DUP4 PUSH4 0xFFFFFFFF AND MUL OR SWAP1 SSTORE POP PUSH1 0x60 DUP3 ADD MLOAD DUP2 PUSH1 0x2 ADD PUSH1 0x4 PUSH2 0x100 EXP DUP2 SLOAD DUP2 PUSH4 0xFFFFFFFF MUL NOT AND SWAP1 DUP4 PUSH4 0xFFFFFFFF AND MUL OR SWAP1 SSTORE POP POP POP SUB SWAP1 POP CALLER PUSH1 0x5 PUSH1 0x0 DUP4 DUP2 MSTORE PUSH1 0x20 ADD SWAP1 DUP2 MSTORE PUSH1 0x20 ADD PUSH1 0x0 KECCAK256 PUSH1 0x0 PUSH2 0x100 EXP DUP2 SLOAD DUP2 PUSH20 0xFFFFFFFFFFFFFFFFFFFFFFFFFFFFFFFFFFFFFFFF MUL NOT AND SWAP1 DUP4 PUSH20 0xFFFFFFFFFFFFFFFFFFFFFFFFFFFFFFFFFFFFFFFF AND MUL OR SWAP1 SSTORE POP PUSH1 0x6 PUSH1 0x0 CALLER PUSH20 0xFFFFFFFFFFFFFFFFFFFFFFFFFFFFFFFFFFFFFFFF AND PUSH20 0xFFFFFFFFFFFFFFFFFFFFFFFFFFFFFFFFFFFFFFFF AND DUP2 MSTORE PUSH1 0x20 ADD SWAP1 DUP2 MSTORE PUSH1 0x20 ADD PUSH1 0x0 KECCAK256 PUSH1 0x0 DUP2 SLOAD DUP1 SWAP3 SWAP2 SWAP1 PUSH1 0x1 ADD SWAP2 SWAP1 POP SSTORE POP PUSH32 0x88F026AACBBECC90C18411DF4B1185FD8D9BE2470F1962F192BF84A27D0704B7 DUP2 DUP5 DUP5 PUSH1 0x40 MLOAD DUP1 DUP5 DUP2 MSTORE PUSH1 0x20 ADD DUP1 PUSH1 0x20 ADD DUP4 DUP2 MSTORE PUSH1 0x20 ADD DUP3 DUP2 SUB DUP3 MSTORE DUP5 DUP2 DUP2 MLOAD DUP2 MSTORE PUSH1 0x20 ADD SWAP2 POP DUP1 MLOAD SWAP1 PUSH1 0x20 ADD SWAP1 DUP1 DUP4 DUP4 PUSH1 0x0 JUMPDEST DUP4 DUP2 LT ISZERO PUSH2 0xFD8 JUMPI DUP1 DUP3 ADD MLOAD DUP2 DUP5 ADD MSTORE PUSH1 0x20 DUP2 ADD SWAP1 POP PUSH2 0xFBD JUMP JUMPDEST POP POP POP POP SWAP1 POP SWAP1 DUP2 ADD SWAP1 PUSH1 0x1F AND DUP1 ISZERO PUSH2 0x1005 JUMPI DUP1 DUP3 SUB DUP1 MLOAD PUSH1 0x1 DUP4 PUSH1 0x20 SUB PUSH2 0x100 EXP SUB NOT AND DUP2 MSTORE PUSH1 0x20 ADD SWAP2 POP JUMPDEST POP SWAP5 POP POP POP POP POP PUSH1 0x40 MLOAD DUP1 SWAP2 SUB SWAP1 LOG1 POP POP POP JUMP JUMPDEST PUSH1 0x0 DUP1 DUP3 PUSH1 0x40 MLOAD DUP1 DUP3 DUP1 MLOAD SWAP1 PUSH1 0x20 ADD SWAP1 DUP1 DUP4 DUP4 JUMPDEST PUSH1 0x20 DUP4 LT ISZERO ISZERO PUSH2 0x1052 JUMPI DUP1 MLOAD DUP3 MSTORE PUSH1 0x20 DUP3 ADD SWAP2 POP PUSH1 0x20 DUP2 ADD SWAP1 POP PUSH1 0x20 DUP4 SUB SWAP3 POP PUSH2 0x102D JUMP JUMPDEST PUSH1 0x1 DUP4 PUSH1 0x20 SUB PUSH2 0x100 EXP SUB DUP1 NOT DUP3 MLOAD AND DUP2 DUP5 MLOAD AND DUP1 DUP3 OR DUP6 MSTORE POP POP POP POP POP POP SWAP1 POP ADD SWAP2 POP POP PUSH1 0x40 MLOAD DUP1 SWAP2 SUB SWAP1 KECCAK256 PUSH1 0x1 SWAP1 DIV SWAP1 POP PUSH1 0x2 SLOAD DUP2 DUP2 ISZERO ISZERO PUSH2 0x1092 JUMPI INVALID JUMPDEST MOD SWAP2 POP POP SWAP2 SWAP1 POP JUMP JUMPDEST PUSH1 0x20 PUSH1 0x40 MLOAD SWAP1 DUP2 ADD PUSH1 0x40 MSTORE DUP1 PUSH1 0x0 DUP2 MSTORE POP SWAP1 JUMP JUMPDEST DUP3 DUP1 SLOAD PUSH1 0x1 DUP2 PUSH1 0x1 AND ISZERO PUSH2 0x100 MUL SUB AND PUSH1 0x2 SWAP1 DIV SWAP1 PUSH1 0x0 MSTORE PUSH1 0x20 PUSH1 0x0 KECCAK256 SWAP1 PUSH1 0x1F ADD PUSH1 0x20 SWAP1 DIV DUP2 ADD SWAP3 DUP3 PUSH1 0x1F LT PUSH2 0x10F0 JUMPI DUP1 CALLDATALOAD PUSH1 0xFF NOT AND DUP4 DUP1 ADD OR DUP6 SSTORE PUSH2 0x111E JUMP JUMPDEST DUP3 DUP1 ADD PUSH1 0x1 ADD DUP6 SSTORE DUP3 ISZERO PUSH2 0x111E JUMPI SWAP2 DUP3 ADD JUMPDEST DUP3 DUP2 GT ISZERO PUSH2 0x111D JUMPI DUP3 CALLDATALOAD DUP3 SSTORE SWAP2 PUSH1 0x20 ADD SWAP2 SWAP1 PUSH1 0x1 ADD SWAP1 PUSH2 0x1102 JUMP JUMPDEST JUMPDEST POP SWAP1 POP PUSH2 0x112B SWAP2 SWAP1 PUSH2 0x11E1 JUMP JUMPDEST POP SWAP1 JUMP JUMPDEST DUP2 SLOAD DUP2 DUP4 SSTORE DUP2 DUP2 ISZERO GT PUSH2 0x115C JUMPI PUSH1 0x3 MUL DUP2 PUSH1 0x3 MUL DUP4 PUSH1 0x0 MSTORE PUSH1 0x20 PUSH1 0x0 KECCAK256 SWAP2 DUP3 ADD SWAP2 ADD PUSH2 0x115B SWAP2 SWAP1 PUSH2 0x1206 JUMP JUMPDEST JUMPDEST POP POP POP JUMP JUMPDEST DUP3 DUP1 SLOAD PUSH1 0x1 DUP2 PUSH1 0x1 AND ISZERO PUSH2 0x100 MUL SUB AND PUSH1 0x2 SWAP1 DIV SWAP1 PUSH1 0x0 MSTORE PUSH1 0x20 PUSH1 0x0 KECCAK256 SWAP1 PUSH1 0x1F ADD PUSH1 0x20 SWAP1 DIV DUP2 ADD SWAP3 DUP3 PUSH1 0x1F LT PUSH2 0x11A2 JUMPI DUP1 MLOAD PUSH1 0xFF NOT AND DUP4 DUP1 ADD OR DUP6 SSTORE PUSH2 0x11D0 JUMP JUMPDEST DUP3 DUP1 ADD PUSH1 0x1 ADD DUP6 SSTORE DUP3 ISZERO PUSH2 0x11D0 JUMPI SWAP2 DUP3 ADD JUMPDEST DUP3 DUP2 GT ISZERO PUSH2 0x11CF JUMPI DUP3 MLOAD DUP3 SSTORE SWAP2 PUSH1 0x20 ADD SWAP2 SWAP1 PUSH1 0x1 ADD SWAP1 PUSH2 0x11B4 JUMP JUMPDEST JUMPDEST POP SWAP1 POP PUSH2 0x11DD SWAP2 SWAP1 PUSH2 0x11E1 JUMP JUMPDEST POP SWAP1 JUMP JUMPDEST PUSH2 0x1203 SWAP2 SWAP1 JUMPDEST DUP1 DUP3 GT ISZERO PUSH2 0x11FF JUMPI PUSH1 0x0 DUP2 PUSH1 0x0 SWAP1 SSTORE POP PUSH1 0x1 ADD PUSH2 0x11E7 JUMP JUMPDEST POP SWAP1 JUMP JUMPDEST SWAP1 JUMP JUMPDEST PUSH2 0x1268 SWAP2 SWAP1 JUMPDEST DUP1 DUP3 GT ISZERO PUSH2 0x1264 JUMPI PUSH1 0x0 DUP1 DUP3 ADD PUSH1 0x0 PUSH2 0x1225 SWAP2 SWAP1 PUSH2 0x126B JUMP JUMPDEST PUSH1 0x1 DUP3 ADD PUSH1 0x0 SWAP1 SSTORE PUSH1 0x2 DUP3 ADD PUSH1 0x0 PUSH2 0x100 EXP DUP2 SLOAD SWAP1 PUSH4 0xFFFFFFFF MUL NOT AND SWAP1 SSTORE PUSH1 0x2 DUP3 ADD PUSH1 0x4 PUSH2 0x100 EXP DUP2 SLOAD SWAP1 PUSH4 0xFFFFFFFF MUL NOT AND SWAP1 SSTORE POP PUSH1 0x3 ADD PUSH2 0x120C JUMP JUMPDEST POP SWAP1 JUMP JUMPDEST SWAP1 JUMP JUMPDEST POP DUP1 SLOAD PUSH1 0x1 DUP2 PUSH1 0x1 AND ISZERO PUSH2 0x100 MUL SUB AND PUSH1 0x2 SWAP1 DIV PUSH1 0x0 DUP3 SSTORE DUP1 PUSH1 0x1F LT PUSH2 0x1291 JUMPI POP PUSH2 0x12B0 JUMP JUMPDEST PUSH1 0x1F ADD PUSH1 0x20 SWAP1 DIV SWAP1 PUSH1 0x0 MSTORE PUSH1 0x20 PUSH1 0x0 KECCAK256 SWAP1 DUP2 ADD SWAP1 PUSH2 0x12AF SWAP2 SWAP1 PUSH2 0x11E1 JUMP JUMPDEST JUMPDEST POP JUMP STOP LOG1 PUSH6 0x627A7A723058 KECCAK256 0xb2 MSIZE PUSH18 0xB85BF78C95D13D02200CA94112E18A552EFD CALL SWAP13 0x5d EQ PC 0xe6 PUSH9 0x9700EE270029000000 "
				},
				"gasEstimates": {
					"creation": {
						"codeDepositCost": "966200",
						"executionCost": "81524",
						"totalCost": "1047724"
					},
					"external": {
						"changeDna(uint256,uint256)": "21558",
						"changeName(uint256,string)": "infinite",
						"createRandomZombie(string)": "infinite",
						"feedAndMultiply(uint256,uint256,string)": "infinite",
						"feedOnKitty(uint256,uint256)": "infinite",
						"getZombiesByOwner(address)": "infinite",
						"owner()": "610",
						"setKittyContractAddress(address)": "20801",
						"transferOwnership(address)": "22758",
						"zombieToOwner(uint256)": "599",
						"zombies(uint256)": "infinite"
					}
				},
				"methodIdentifiers": {
					"changeDna(uint256,uint256)": "5faf2880",
					"changeName(uint256,string)": "c39cbef1",
					"createRandomZombie(string)": "7bff0a01",
					"feedAndMultiply(uint256,uint256,string)": "6b0bfc80",
					"feedOnKitty(uint256,uint256)": "17a7f4cc",
					"getZombiesByOwner(address)": "4412e104",
					"owner()": "8da5cb5b",
					"setKittyContractAddress(address)": "5f4623f1",
					"transferOwnership(address)": "f2fde38b",
					"zombieToOwner(uint256)": "528b7b8f",
					"zombies(uint256)": "2052465e"
				}
			},
			"userdoc": {
				"methods": {}
			}
		}
	}
}